{
  "_format": "hh-sol-artifact-1",
  "contractName": "Token20",
  "sourceName": "contracts/Token20.sol",
  "abi": [
    {
      "inputs": [
        {
          "internalType": "string",
          "name": "testToken",
          "type": "string"
        },
        {
          "internalType": "string",
          "name": "Test",
          "type": "string"
        },
        {
          "internalType": "uint8",
          "name": "decimals_",
          "type": "uint8"
        }
      ],
      "stateMutability": "nonpayable",
      "type": "constructor"
    },
    {
      "anonymous": false,
      "inputs": [
        {
          "indexed": true,
          "internalType": "address",
          "name": "owner",
          "type": "address"
        },
        {
          "indexed": true,
          "internalType": "address",
          "name": "spender",
          "type": "address"
        },
        {
          "indexed": false,
          "internalType": "uint256",
          "name": "value",
          "type": "uint256"
        }
      ],
      "name": "Approval",
      "type": "event"
    },
    {
      "anonymous": false,
      "inputs": [
        {
          "indexed": true,
          "internalType": "address",
          "name": "from",
          "type": "address"
        },
        {
          "indexed": true,
          "internalType": "address",
          "name": "to",
          "type": "address"
        },
        {
          "indexed": false,
          "internalType": "uint256",
          "name": "value",
          "type": "uint256"
        }
      ],
      "name": "Transfer",
      "type": "event"
    },
    {
      "inputs": [
        {
          "internalType": "address",
          "name": "owner",
          "type": "address"
        },
        {
          "internalType": "address",
          "name": "spender",
          "type": "address"
        }
      ],
      "name": "allowance",
      "outputs": [
        {
          "internalType": "uint256",
          "name": "",
          "type": "uint256"
        }
      ],
      "stateMutability": "view",
      "type": "function"
    },
    {
      "inputs": [
        {
          "internalType": "address",
          "name": "spender",
          "type": "address"
        },
        {
          "internalType": "uint256",
          "name": "amount",
          "type": "uint256"
        }
      ],
      "name": "approve",
      "outputs": [
        {
          "internalType": "bool",
          "name": "",
          "type": "bool"
        }
      ],
      "stateMutability": "nonpayable",
      "type": "function"
    },
    {
      "inputs": [
        {
          "internalType": "address",
          "name": "account",
          "type": "address"
        }
      ],
      "name": "balanceOf",
      "outputs": [
        {
          "internalType": "uint256",
          "name": "",
          "type": "uint256"
        }
      ],
      "stateMutability": "view",
      "type": "function"
    },
    {
      "inputs": [
        {
          "internalType": "uint256",
          "name": "amount",
          "type": "uint256"
        }
      ],
      "name": "burn",
      "outputs": [],
      "stateMutability": "nonpayable",
      "type": "function"
    },
    {
      "inputs": [
        {
          "internalType": "address",
          "name": "account",
          "type": "address"
        },
        {
          "internalType": "uint256",
          "name": "amount",
          "type": "uint256"
        }
      ],
      "name": "burnFrom",
      "outputs": [],
      "stateMutability": "nonpayable",
      "type": "function"
    },
    {
      "inputs": [],
      "name": "decimals",
      "outputs": [
        {
          "internalType": "uint8",
          "name": "",
          "type": "uint8"
        }
      ],
      "stateMutability": "view",
      "type": "function"
    },
    {
      "inputs": [
        {
          "internalType": "address",
          "name": "spender",
          "type": "address"
        },
        {
          "internalType": "uint256",
          "name": "subtractedValue",
          "type": "uint256"
        }
      ],
      "name": "decreaseAllowance",
      "outputs": [
        {
          "internalType": "bool",
          "name": "",
          "type": "bool"
        }
      ],
      "stateMutability": "nonpayable",
      "type": "function"
    },
    {
      "inputs": [
        {
          "internalType": "address",
          "name": "spender",
          "type": "address"
        },
        {
          "internalType": "uint256",
          "name": "addedValue",
          "type": "uint256"
        }
      ],
      "name": "increaseAllowance",
      "outputs": [
        {
          "internalType": "bool",
          "name": "",
          "type": "bool"
        }
      ],
      "stateMutability": "nonpayable",
      "type": "function"
    },
    {
      "inputs": [
        {
          "internalType": "address",
          "name": "to",
          "type": "address"
        },
        {
          "internalType": "uint256",
          "name": "amount",
          "type": "uint256"
        }
      ],
      "name": "mint",
      "outputs": [],
      "stateMutability": "nonpayable",
      "type": "function"
    },
    {
      "inputs": [],
      "name": "name",
      "outputs": [
        {
          "internalType": "string",
          "name": "",
          "type": "string"
        }
      ],
      "stateMutability": "view",
      "type": "function"
    },
    {
      "inputs": [],
      "name": "symbol",
      "outputs": [
        {
          "internalType": "string",
          "name": "",
          "type": "string"
        }
      ],
      "stateMutability": "view",
      "type": "function"
    },
    {
      "inputs": [],
      "name": "totalSupply",
      "outputs": [
        {
          "internalType": "uint256",
          "name": "",
          "type": "uint256"
        }
      ],
      "stateMutability": "view",
      "type": "function"
    },
    {
      "inputs": [
        {
          "internalType": "address",
          "name": "to",
          "type": "address"
        },
        {
          "internalType": "uint256",
          "name": "amount",
          "type": "uint256"
        }
      ],
      "name": "transfer",
      "outputs": [
        {
          "internalType": "bool",
          "name": "",
          "type": "bool"
        }
      ],
      "stateMutability": "nonpayable",
      "type": "function"
    },
    {
      "inputs": [
        {
          "internalType": "address",
          "name": "from",
          "type": "address"
        },
        {
          "internalType": "address",
          "name": "to",
          "type": "address"
        },
        {
          "internalType": "uint256",
          "name": "amount",
          "type": "uint256"
        }
      ],
      "name": "transferFrom",
      "outputs": [
        {
          "internalType": "bool",
          "name": "",
          "type": "bool"
        }
      ],
      "stateMutability": "nonpayable",
      "type": "function"
    }
  ],
  "bytecode": "0x60806040523480156200001157600080fd5b506040516200124238038062001242833981016040819052620000349162000253565b8282600362000044838262000366565b50600462000053828262000366565b50506005805460ff191660ff84161790555062000098336200007760055460ff1690565b6200008490600a62000547565b62000092906127106200055f565b620000a1565b50505062000597565b6001600160a01b038216620000fc5760405162461bcd60e51b815260206004820152601f60248201527f45524332303a206d696e7420746f20746865207a65726f206164647265737300604482015260640160405180910390fd5b806002600082825462000110919062000581565b90915550506001600160a01b038216600090815260208190526040812080548392906200013f90849062000581565b90915550506040518181526001600160a01b038316906000907fddf252ad1be2c89b69c2b068fc378daa952ba7f163c4a11628f55a4df523b3ef9060200160405180910390a35050565b505050565b634e487b7160e01b600052604160045260246000fd5b600082601f830112620001b657600080fd5b81516001600160401b0380821115620001d357620001d36200018e565b604051601f8301601f19908116603f01168101908282118183101715620001fe57620001fe6200018e565b816040528381526020925086838588010111156200021b57600080fd5b600091505b838210156200023f578582018301518183018401529082019062000220565b600093810190920192909252949350505050565b6000806000606084860312156200026957600080fd5b83516001600160401b03808211156200028157600080fd5b6200028f87838801620001a4565b94506020860151915080821115620002a657600080fd5b50620002b586828701620001a4565b925050604084015160ff81168114620002cd57600080fd5b809150509250925092565b600181811c90821680620002ed57607f821691505b6020821081036200030e57634e487b7160e01b600052602260045260246000fd5b50919050565b601f8211156200018957600081815260208120601f850160051c810160208610156200033d5750805b601f850160051c820191505b818110156200035e5782815560010162000349565b505050505050565b81516001600160401b038111156200038257620003826200018e565b6200039a81620003938454620002d8565b8462000314565b602080601f831160018114620003d25760008415620003b95750858301515b600019600386901b1c1916600185901b1785556200035e565b600085815260208120601f198616915b828110156200040357888601518255948401946001909101908401620003e2565b5085821015620004225787850151600019600388901b60f8161c191681555b5050505050600190811b01905550565b634e487b7160e01b600052601160045260246000fd5b600181815b80851115620004895781600019048211156200046d576200046d62000432565b808516156200047b57918102915b93841c93908002906200044d565b509250929050565b600082620004a25750600162000541565b81620004b15750600062000541565b8160018114620004ca5760028114620004d557620004f5565b600191505062000541565b60ff841115620004e957620004e962000432565b50506001821b62000541565b5060208310610133831016604e8410600b84101617156200051a575081810a62000541565b62000526838362000448565b80600019048211156200053d576200053d62000432565b0290505b92915050565b60006200055860ff84168362000491565b9392505050565b60008160001904831182151516156200057c576200057c62000432565b500290565b8082018082111562000541576200054162000432565b610c9b80620005a76000396000f3fe608060405234801561001057600080fd5b50600436106100ea5760003560e01c806342966c681161008c57806395d89b411161006657806395d89b41146101e1578063a457c2d7146101e9578063a9059cbb146101fc578063dd62ed3e1461020f57600080fd5b806342966c681461019257806370a08231146101a557806379cc6790146101ce57600080fd5b806323b872dd116100c857806323b872dd14610142578063313ce56714610155578063395093511461016a57806340c10f191461017d57600080fd5b806306fdde03146100ef578063095ea7b31461010d57806318160ddd14610130575b600080fd5b6100f7610248565b6040516101049190610ab1565b60405180910390f35b61012061011b366004610b1b565b6102da565b6040519015158152602001610104565b6002545b604051908152602001610104565b610120610150366004610b45565b6102f4565b60055460405160ff9091168152602001610104565b610120610178366004610b1b565b610318565b61019061018b366004610b1b565b610357565b005b6101906101a0366004610b81565b610365565b6101346101b3366004610b9a565b6001600160a01b031660009081526020819052604090205490565b6101906101dc366004610b1b565b610372565b6100f7610387565b6101206101f7366004610b1b565b610396565b61012061020a366004610b1b565b610445565b61013461021d366004610bbc565b6001600160a01b03918216600090815260016020908152604080832093909416825291909152205490565b60606003805461025790610bef565b80601f016020809104026020016040519081016040528092919081815260200182805461028390610bef565b80156102d05780601f106102a5576101008083540402835291602001916102d0565b820191906000526020600020905b8154815290600101906020018083116102b357829003601f168201915b5050505050905090565b6000336102e8818585610453565b60019150505b92915050565b6000336103028582856105ac565b61030d85858561063e565b506001949350505050565b3360008181526001602090815260408083206001600160a01b03871684529091528120549091906102e89082908690610352908790610c3f565b610453565b6103618282610855565b5050565b61036f3382610934565b50565b61037d8233836105ac565b6103618282610934565b60606004805461025790610bef565b3360008181526001602090815260408083206001600160a01b0387168452909152812054909190838110156104385760405162461bcd60e51b815260206004820152602560248201527f45524332303a2064656372656173656420616c6c6f77616e63652062656c6f7760448201527f207a65726f00000000000000000000000000000000000000000000000000000060648201526084015b60405180910390fd5b61030d8286868403610453565b6000336102e881858561063e565b6001600160a01b0383166104ce5760405162461bcd60e51b8152602060048201526024808201527f45524332303a20617070726f76652066726f6d20746865207a65726f2061646460448201527f7265737300000000000000000000000000000000000000000000000000000000606482015260840161042f565b6001600160a01b03821661054a5760405162461bcd60e51b815260206004820152602260248201527f45524332303a20617070726f766520746f20746865207a65726f20616464726560448201527f7373000000000000000000000000000000000000000000000000000000000000606482015260840161042f565b6001600160a01b0383811660008181526001602090815260408083209487168084529482529182902085905590518481527f8c5be1e5ebec7d5bd14f71427d1e84f3dd0314c0f7b2291e5b200ac8c7c3b92591015b60405180910390a3505050565b6001600160a01b038381166000908152600160209081526040808320938616835292905220546000198114610638578181101561062b5760405162461bcd60e51b815260206004820152601d60248201527f45524332303a20696e73756666696369656e7420616c6c6f77616e6365000000604482015260640161042f565b6106388484848403610453565b50505050565b6001600160a01b0383166106ba5760405162461bcd60e51b815260206004820152602560248201527f45524332303a207472616e736665722066726f6d20746865207a65726f20616460448201527f6472657373000000000000000000000000000000000000000000000000000000606482015260840161042f565b6001600160a01b0382166107365760405162461bcd60e51b815260206004820152602360248201527f45524332303a207472616e7366657220746f20746865207a65726f206164647260448201527f6573730000000000000000000000000000000000000000000000000000000000606482015260840161042f565b6001600160a01b038316600090815260208190526040902054818110156107c55760405162461bcd60e51b815260206004820152602660248201527f45524332303a207472616e7366657220616d6f756e742065786365656473206260448201527f616c616e63650000000000000000000000000000000000000000000000000000606482015260840161042f565b6001600160a01b038085166000908152602081905260408082208585039055918516815290812080548492906107fc908490610c3f565b92505081905550826001600160a01b0316846001600160a01b03167fddf252ad1be2c89b69c2b068fc378daa952ba7f163c4a11628f55a4df523b3ef8460405161084891815260200190565b60405180910390a3610638565b6001600160a01b0382166108ab5760405162461bcd60e51b815260206004820152601f60248201527f45524332303a206d696e7420746f20746865207a65726f206164647265737300604482015260640161042f565b80600260008282546108bd9190610c3f565b90915550506001600160a01b038216600090815260208190526040812080548392906108ea908490610c3f565b90915550506040518181526001600160a01b038316906000907fddf252ad1be2c89b69c2b068fc378daa952ba7f163c4a11628f55a4df523b3ef9060200160405180910390a35050565b6001600160a01b0382166109b05760405162461bcd60e51b815260206004820152602160248201527f45524332303a206275726e2066726f6d20746865207a65726f2061646472657360448201527f7300000000000000000000000000000000000000000000000000000000000000606482015260840161042f565b6001600160a01b03821660009081526020819052604090205481811015610a3f5760405162461bcd60e51b815260206004820152602260248201527f45524332303a206275726e20616d6f756e7420657863656564732062616c616e60448201527f6365000000000000000000000000000000000000000000000000000000000000606482015260840161042f565b6001600160a01b0383166000908152602081905260408120838303905560028054849290610a6e908490610c52565b90915550506040518281526000906001600160a01b038516907fddf252ad1be2c89b69c2b068fc378daa952ba7f163c4a11628f55a4df523b3ef9060200161059f565b600060208083528351808285015260005b81811015610ade57858101830151858201604001528201610ac2565b506000604082860101526040601f19601f8301168501019250505092915050565b80356001600160a01b0381168114610b1657600080fd5b919050565b60008060408385031215610b2e57600080fd5b610b3783610aff565b946020939093013593505050565b600080600060608486031215610b5a57600080fd5b610b6384610aff565b9250610b7160208501610aff565b9150604084013590509250925092565b600060208284031215610b9357600080fd5b5035919050565b600060208284031215610bac57600080fd5b610bb582610aff565b9392505050565b60008060408385031215610bcf57600080fd5b610bd883610aff565b9150610be660208401610aff565b90509250929050565b600181811c90821680610c0357607f821691505b602082108103610c2357634e487b7160e01b600052602260045260246000fd5b50919050565b634e487b7160e01b600052601160045260246000fd5b808201808211156102ee576102ee610c29565b818103818111156102ee576102ee610c2956fea264697066735822122069c89975a6bb52f161aeeab505a9d538d3e9bc04335fcd8f0e932b3ab3a55e2664736f6c63430008100033",
  "linkReferences": {},
  "deployedLinkReferences": {}
}