{
  "_format": "hh-sol-artifact-1",
  "contractName": "Token20",
  "sourceName": "contracts/Token20.sol",
  "abi": [
    {
      "inputs": [
        {
          "internalType": "string",
          "name": "Sauce",
          "type": "string"
        },
        {
          "internalType": "string",
          "name": "$",
          "type": "string"
        },
        {
          "internalType": "uint8",
          "name": "decimals_",
          "type": "uint8"
        }
      ],
      "stateMutability": "nonpayable",
      "type": "constructor"
    },
    {
      "anonymous": false,
      "inputs": [
        {
          "indexed": true,
          "internalType": "address",
          "name": "owner",
          "type": "address"
        },
        {
          "indexed": true,
          "internalType": "address",
          "name": "spender",
          "type": "address"
        },
        {
          "indexed": false,
          "internalType": "uint256",
          "name": "value",
          "type": "uint256"
        }
      ],
      "name": "Approval",
      "type": "event"
    },
    {
      "anonymous": false,
      "inputs": [
        {
          "indexed": true,
          "internalType": "address",
          "name": "previousOwner",
          "type": "address"
        },
        {
          "indexed": true,
          "internalType": "address",
          "name": "newOwner",
          "type": "address"
        }
      ],
      "name": "OwnershipTransferred",
      "type": "event"
    },
    {
      "anonymous": false,
      "inputs": [
        {
          "indexed": true,
          "internalType": "address",
          "name": "from",
          "type": "address"
        },
        {
          "indexed": true,
          "internalType": "address",
          "name": "to",
          "type": "address"
        },
        {
          "indexed": false,
          "internalType": "uint256",
          "name": "value",
          "type": "uint256"
        }
      ],
      "name": "Transfer",
      "type": "event"
    },
    {
      "inputs": [
        {
          "internalType": "address",
          "name": "owner",
          "type": "address"
        },
        {
          "internalType": "address",
          "name": "spender",
          "type": "address"
        }
      ],
      "name": "allowance",
      "outputs": [
        {
          "internalType": "uint256",
          "name": "",
          "type": "uint256"
        }
      ],
      "stateMutability": "view",
      "type": "function"
    },
    {
      "inputs": [],
      "name": "amountAllowed",
      "outputs": [
        {
          "internalType": "uint256",
          "name": "",
          "type": "uint256"
        }
      ],
      "stateMutability": "view",
      "type": "function"
    },
    {
      "inputs": [
        {
          "internalType": "address",
          "name": "spender",
          "type": "address"
        },
        {
          "internalType": "uint256",
          "name": "amount",
          "type": "uint256"
        }
      ],
      "name": "approve",
      "outputs": [
        {
          "internalType": "bool",
          "name": "",
          "type": "bool"
        }
      ],
      "stateMutability": "nonpayable",
      "type": "function"
    },
    {
      "inputs": [
        {
          "internalType": "address",
          "name": "account",
          "type": "address"
        }
      ],
      "name": "balanceOf",
      "outputs": [
        {
          "internalType": "uint256",
          "name": "",
          "type": "uint256"
        }
      ],
      "stateMutability": "view",
      "type": "function"
    },
    {
      "inputs": [],
      "name": "decimals",
      "outputs": [
        {
          "internalType": "uint8",
          "name": "",
          "type": "uint8"
        }
      ],
      "stateMutability": "view",
      "type": "function"
    },
    {
      "inputs": [
        {
          "internalType": "address",
          "name": "spender",
          "type": "address"
        },
        {
          "internalType": "uint256",
          "name": "subtractedValue",
          "type": "uint256"
        }
      ],
      "name": "decreaseAllowance",
      "outputs": [
        {
          "internalType": "bool",
          "name": "",
          "type": "bool"
        }
      ],
      "stateMutability": "nonpayable",
      "type": "function"
    },
    {
      "inputs": [
        {
          "internalType": "address",
          "name": "spender",
          "type": "address"
        },
        {
          "internalType": "uint256",
          "name": "addedValue",
          "type": "uint256"
        }
      ],
      "name": "increaseAllowance",
      "outputs": [
        {
          "internalType": "bool",
          "name": "",
          "type": "bool"
        }
      ],
      "stateMutability": "nonpayable",
      "type": "function"
    },
    {
      "inputs": [
        {
          "internalType": "address",
          "name": "",
          "type": "address"
        }
      ],
      "name": "lockTime",
      "outputs": [
        {
          "internalType": "uint256",
          "name": "",
          "type": "uint256"
        }
      ],
      "stateMutability": "view",
      "type": "function"
    },
    {
      "inputs": [],
      "name": "name",
      "outputs": [
        {
          "internalType": "string",
          "name": "",
          "type": "string"
        }
      ],
      "stateMutability": "view",
      "type": "function"
    },
    {
      "inputs": [],
      "name": "owner",
      "outputs": [
        {
          "internalType": "address",
          "name": "",
          "type": "address"
        }
      ],
      "stateMutability": "view",
      "type": "function"
    },
    {
      "inputs": [],
      "name": "renounceOwnership",
      "outputs": [],
      "stateMutability": "nonpayable",
      "type": "function"
    },
    {
      "inputs": [
        {
          "internalType": "address",
          "name": "_requestor",
          "type": "address"
        }
      ],
      "name": "sendSauce",
      "outputs": [],
      "stateMutability": "nonpayable",
      "type": "function"
    },
    {
      "inputs": [],
      "name": "symbol",
      "outputs": [
        {
          "internalType": "string",
          "name": "",
          "type": "string"
        }
      ],
      "stateMutability": "view",
      "type": "function"
    },
    {
      "inputs": [],
      "name": "totalSupply",
      "outputs": [
        {
          "internalType": "uint256",
          "name": "",
          "type": "uint256"
        }
      ],
      "stateMutability": "view",
      "type": "function"
    },
    {
      "inputs": [
        {
          "internalType": "address",
          "name": "to",
          "type": "address"
        },
        {
          "internalType": "uint256",
          "name": "amount",
          "type": "uint256"
        }
      ],
      "name": "transfer",
      "outputs": [
        {
          "internalType": "bool",
          "name": "",
          "type": "bool"
        }
      ],
      "stateMutability": "nonpayable",
      "type": "function"
    },
    {
      "inputs": [
        {
          "internalType": "address",
          "name": "from",
          "type": "address"
        },
        {
          "internalType": "address",
          "name": "to",
          "type": "address"
        },
        {
          "internalType": "uint256",
          "name": "amount",
          "type": "uint256"
        }
      ],
      "name": "transferFrom",
      "outputs": [
        {
          "internalType": "bool",
          "name": "",
          "type": "bool"
        }
      ],
      "stateMutability": "nonpayable",
      "type": "function"
    },
    {
      "inputs": [
        {
          "internalType": "address",
          "name": "newOwner",
          "type": "address"
        }
      ],
      "name": "transferOwnership",
      "outputs": [],
      "stateMutability": "nonpayable",
      "type": "function"
    }
  ],
  "bytecode": "0x6080604052683635c9adc5dea000006008553480156200001e57600080fd5b506040516200138d3803806200138d8339810160408190526200004191620002e3565b82826003620000518382620003f6565b506004620000608282620003f6565b5050506200007d62000077620000db60201b60201c565b620000df565b6005805460ff60a01b1916600160a01b60ff841602179055620000d233620000ae600554600160a01b900460ff1690565b620000bb90600a620005d7565b620000cc9064e8d4a51000620005ef565b62000131565b50505062000627565b3390565b600580546001600160a01b038381166001600160a01b0319831681179093556040519116919082907f8be0079c531659141344cd1fd0a4f28419497f9722a3daafe3b4186f6b6457e090600090a35050565b6001600160a01b0382166200018c5760405162461bcd60e51b815260206004820152601f60248201527f45524332303a206d696e7420746f20746865207a65726f206164647265737300604482015260640160405180910390fd5b8060026000828254620001a0919062000611565b90915550506001600160a01b03821660009081526020819052604081208054839290620001cf90849062000611565b90915550506040518181526001600160a01b038316906000907fddf252ad1be2c89b69c2b068fc378daa952ba7f163c4a11628f55a4df523b3ef9060200160405180910390a35050565b505050565b634e487b7160e01b600052604160045260246000fd5b600082601f8301126200024657600080fd5b81516001600160401b03808211156200026357620002636200021e565b604051601f8301601f19908116603f011681019082821181831017156200028e576200028e6200021e565b81604052838152602092508683858801011115620002ab57600080fd5b600091505b83821015620002cf5785820183015181830184015290820190620002b0565b600093810190920192909252949350505050565b600080600060608486031215620002f957600080fd5b83516001600160401b03808211156200031157600080fd5b6200031f8783880162000234565b945060208601519150808211156200033657600080fd5b50620003458682870162000234565b925050604084015160ff811681146200035d57600080fd5b809150509250925092565b600181811c908216806200037d57607f821691505b6020821081036200039e57634e487b7160e01b600052602260045260246000fd5b50919050565b601f8211156200021957600081815260208120601f850160051c81016020861015620003cd5750805b601f850160051c820191505b81811015620003ee57828155600101620003d9565b505050505050565b81516001600160401b038111156200041257620004126200021e565b6200042a8162000423845462000368565b84620003a4565b602080601f831160018114620004625760008415620004495750858301515b600019600386901b1c1916600185901b178555620003ee565b600085815260208120601f198616915b82811015620004935788860151825594840194600190910190840162000472565b5085821015620004b25787850151600019600388901b60f8161c191681555b5050505050600190811b01905550565b634e487b7160e01b600052601160045260246000fd5b600181815b8085111562000519578160001904821115620004fd57620004fd620004c2565b808516156200050b57918102915b93841c9390800290620004dd565b509250929050565b6000826200053257506001620005d1565b816200054157506000620005d1565b81600181146200055a5760028114620005655762000585565b6001915050620005d1565b60ff841115620005795762000579620004c2565b50506001821b620005d1565b5060208310610133831016604e8410600b8410161715620005aa575081810a620005d1565b620005b68383620004d8565b8060001904821115620005cd57620005cd620004c2565b0290505b92915050565b6000620005e860ff84168362000521565b9392505050565b60008160001904831182151516156200060c576200060c620004c2565b500290565b80820180821115620005d157620005d1620004c2565b610d5680620006376000396000f3fe608060405234801561001057600080fd5b506004361061011b5760003560e01c8063715018a6116100b2578063a457c2d711610081578063a9059cbb11610066578063a9059cbb1461026e578063dd62ed3e14610281578063f2fde38b146102ba57600080fd5b8063a457c2d71461023b578063a4beda631461024e57600080fd5b8063715018a6146102075780638da5cb5b1461020f57806395d89b411461022a5780639ad2cd141461023257600080fd5b806323b872dd116100ee57806323b872dd14610188578063313ce5671461019b57806339509351146101cb57806370a08231146101de57600080fd5b806306fdde0314610120578063095ea7b31461013e5780630e5684a01461016157806318160ddd14610176575b600080fd5b6101286102cd565b6040516101359190610ba0565b60405180910390f35b61015161014c366004610c0a565b61035f565b6040519015158152602001610135565b61017461016f366004610c34565b610379565b005b6002545b604051908152602001610135565b610151610196366004610c56565b61042e565b60055474010000000000000000000000000000000000000000900460ff1660405160ff9091168152602001610135565b6101516101d9366004610c0a565b610452565b61017a6101ec366004610c34565b6001600160a01b031660009081526020819052604090205490565b610174610491565b6005546040516001600160a01b039091168152602001610135565b6101286104a5565b61017a60085481565b610151610249366004610c0a565b6104b4565b61017a61025c366004610c34565b60066020526000908152604090205481565b61015161027c366004610c0a565b61055e565b61017a61028f366004610c92565b6001600160a01b03918216600090815260016020908152604080832093909416825291909152205490565b6101746102c8366004610c34565b61056c565b6060600380546102dc90610cc5565b80601f016020809104026020016040519081016040528092919081815260200182805461030890610cc5565b80156103555780601f1061032a57610100808354040283529160200191610355565b820191906000526020600020905b81548152906001019060200180831161033857829003601f168201915b5050505050905090565b60003361036d8185856105fc565b60019150505b92915050565b3360009081526006602052604090205442116104025760405162461bcd60e51b815260206004820152603160248201527f6c6f636b2074696d6520686173206e6f7420657870697265642e20506c65617360448201527f652074727920616761696e206c6174657200000000000000000000000000000060648201526084015b60405180910390fd5b61040e81600854610754565b61041b4262015180610cff565b3360009081526006602052604090205550565b60003361043c858285610833565b6104478585856108c5565b506001949350505050565b3360008181526001602090815260408083206001600160a01b038716845290915281205490919061036d908290869061048c908790610cff565b6105fc565b610499610adc565b6104a36000610b36565b565b6060600480546102dc90610cc5565b3360008181526001602090815260408083206001600160a01b0387168452909152812054909190838110156105515760405162461bcd60e51b815260206004820152602560248201527f45524332303a2064656372656173656420616c6c6f77616e63652062656c6f7760448201527f207a65726f00000000000000000000000000000000000000000000000000000060648201526084016103f9565b61044782868684036105fc565b60003361036d8185856108c5565b610574610adc565b6001600160a01b0381166105f05760405162461bcd60e51b815260206004820152602660248201527f4f776e61626c653a206e6577206f776e657220697320746865207a65726f206160448201527f646472657373000000000000000000000000000000000000000000000000000060648201526084016103f9565b6105f981610b36565b50565b6001600160a01b0383166106775760405162461bcd60e51b8152602060048201526024808201527f45524332303a20617070726f76652066726f6d20746865207a65726f2061646460448201527f726573730000000000000000000000000000000000000000000000000000000060648201526084016103f9565b6001600160a01b0382166106f35760405162461bcd60e51b815260206004820152602260248201527f45524332303a20617070726f766520746f20746865207a65726f20616464726560448201527f737300000000000000000000000000000000000000000000000000000000000060648201526084016103f9565b6001600160a01b0383811660008181526001602090815260408083209487168084529482529182902085905590518481527f8c5be1e5ebec7d5bd14f71427d1e84f3dd0314c0f7b2291e5b200ac8c7c3b925910160405180910390a3505050565b6001600160a01b0382166107aa5760405162461bcd60e51b815260206004820152601f60248201527f45524332303a206d696e7420746f20746865207a65726f20616464726573730060448201526064016103f9565b80600260008282546107bc9190610cff565b90915550506001600160a01b038216600090815260208190526040812080548392906107e9908490610cff565b90915550506040518181526001600160a01b038316906000907fddf252ad1be2c89b69c2b068fc378daa952ba7f163c4a11628f55a4df523b3ef9060200160405180910390a35050565b6001600160a01b0383811660009081526001602090815260408083209386168352929052205460001981146108bf57818110156108b25760405162461bcd60e51b815260206004820152601d60248201527f45524332303a20696e73756666696369656e7420616c6c6f77616e636500000060448201526064016103f9565b6108bf84848484036105fc565b50505050565b6001600160a01b0383166109415760405162461bcd60e51b815260206004820152602560248201527f45524332303a207472616e736665722066726f6d20746865207a65726f20616460448201527f647265737300000000000000000000000000000000000000000000000000000060648201526084016103f9565b6001600160a01b0382166109bd5760405162461bcd60e51b815260206004820152602360248201527f45524332303a207472616e7366657220746f20746865207a65726f206164647260448201527f657373000000000000000000000000000000000000000000000000000000000060648201526084016103f9565b6001600160a01b03831660009081526020819052604090205481811015610a4c5760405162461bcd60e51b815260206004820152602660248201527f45524332303a207472616e7366657220616d6f756e742065786365656473206260448201527f616c616e6365000000000000000000000000000000000000000000000000000060648201526084016103f9565b6001600160a01b03808516600090815260208190526040808220858503905591851681529081208054849290610a83908490610cff565b92505081905550826001600160a01b0316846001600160a01b03167fddf252ad1be2c89b69c2b068fc378daa952ba7f163c4a11628f55a4df523b3ef84604051610acf91815260200190565b60405180910390a36108bf565b6005546001600160a01b031633146104a35760405162461bcd60e51b815260206004820181905260248201527f4f776e61626c653a2063616c6c6572206973206e6f7420746865206f776e657260448201526064016103f9565b600580546001600160a01b038381167fffffffffffffffffffffffff0000000000000000000000000000000000000000831681179093556040519116919082907f8be0079c531659141344cd1fd0a4f28419497f9722a3daafe3b4186f6b6457e090600090a35050565b600060208083528351808285015260005b81811015610bcd57858101830151858201604001528201610bb1565b506000604082860101526040601f19601f8301168501019250505092915050565b80356001600160a01b0381168114610c0557600080fd5b919050565b60008060408385031215610c1d57600080fd5b610c2683610bee565b946020939093013593505050565b600060208284031215610c4657600080fd5b610c4f82610bee565b9392505050565b600080600060608486031215610c6b57600080fd5b610c7484610bee565b9250610c8260208501610bee565b9150604084013590509250925092565b60008060408385031215610ca557600080fd5b610cae83610bee565b9150610cbc60208401610bee565b90509250929050565b600181811c90821680610cd957607f821691505b602082108103610cf957634e487b7160e01b600052602260045260246000fd5b50919050565b8082018082111561037357634e487b7160e01b600052601160045260246000fdfea2646970667358221220468337046cce70df28986b316c88ba1f49ec5dae9ed4a27a167d2525df8fa3cf64736f6c63430008100033",
  "linkReferences": {},
  "deployedLinkReferences": {}
}