{
  "_format": "hh-sol-artifact-1",
  "contractName": "Market",
  "sourceName": "contracts/Market.sol",
  "abi": [
    {
      "inputs": [
        {
          "internalType": "string",
          "name": "uri_",
          "type": "string"
        },
        {
          "internalType": "address",
          "name": "_usdc",
          "type": "address"
        }
      ],
      "stateMutability": "nonpayable",
      "type": "constructor"
    },
    {
      "anonymous": false,
      "inputs": [
        {
          "indexed": true,
          "internalType": "address",
          "name": "account",
          "type": "address"
        },
        {
          "indexed": true,
          "internalType": "address",
          "name": "operator",
          "type": "address"
        },
        {
          "indexed": false,
          "internalType": "bool",
          "name": "approved",
          "type": "bool"
        }
      ],
      "name": "ApprovalForAll",
      "type": "event"
    },
    {
      "anonymous": false,
      "inputs": [
        {
          "indexed": true,
          "internalType": "address",
          "name": "previousOwner",
          "type": "address"
        },
        {
          "indexed": true,
          "internalType": "address",
          "name": "newOwner",
          "type": "address"
        }
      ],
      "name": "OwnershipTransferred",
      "type": "event"
    },
    {
      "anonymous": false,
      "inputs": [
        {
          "indexed": true,
          "internalType": "address",
          "name": "operator",
          "type": "address"
        },
        {
          "indexed": true,
          "internalType": "address",
          "name": "from",
          "type": "address"
        },
        {
          "indexed": true,
          "internalType": "address",
          "name": "to",
          "type": "address"
        },
        {
          "indexed": false,
          "internalType": "uint256[]",
          "name": "ids",
          "type": "uint256[]"
        },
        {
          "indexed": false,
          "internalType": "uint256[]",
          "name": "values",
          "type": "uint256[]"
        }
      ],
      "name": "TransferBatch",
      "type": "event"
    },
    {
      "anonymous": false,
      "inputs": [
        {
          "indexed": true,
          "internalType": "address",
          "name": "operator",
          "type": "address"
        },
        {
          "indexed": true,
          "internalType": "address",
          "name": "from",
          "type": "address"
        },
        {
          "indexed": true,
          "internalType": "address",
          "name": "to",
          "type": "address"
        },
        {
          "indexed": false,
          "internalType": "uint256",
          "name": "id",
          "type": "uint256"
        },
        {
          "indexed": false,
          "internalType": "uint256",
          "name": "value",
          "type": "uint256"
        }
      ],
      "name": "TransferSingle",
      "type": "event"
    },
    {
      "anonymous": false,
      "inputs": [
        {
          "indexed": false,
          "internalType": "string",
          "name": "value",
          "type": "string"
        },
        {
          "indexed": true,
          "internalType": "uint256",
          "name": "id",
          "type": "uint256"
        }
      ],
      "name": "URI",
      "type": "event"
    },
    {
      "anonymous": false,
      "inputs": [
        {
          "indexed": false,
          "internalType": "uint256",
          "name": "timestamp",
          "type": "uint256"
        },
        {
          "indexed": false,
          "internalType": "bool",
          "name": "resolved",
          "type": "bool"
        }
      ],
      "name": "marketResolved",
      "type": "event"
    },
    {
      "anonymous": false,
      "inputs": [
        {
          "indexed": false,
          "internalType": "uint256",
          "name": "id",
          "type": "uint256"
        },
        {
          "indexed": false,
          "internalType": "uint256",
          "name": "amount",
          "type": "uint256"
        }
      ],
      "name": "positionCreated",
      "type": "event"
    },
    {
      "inputs": [],
      "name": "NO",
      "outputs": [
        {
          "internalType": "uint256",
          "name": "",
          "type": "uint256"
        }
      ],
      "stateMutability": "view",
      "type": "function"
    },
    {
      "inputs": [],
      "name": "YES",
      "outputs": [
        {
          "internalType": "uint256",
          "name": "",
          "type": "uint256"
        }
      ],
      "stateMutability": "view",
      "type": "function"
    },
    {
      "inputs": [
        {
          "internalType": "address",
          "name": "",
          "type": "address"
        }
      ],
      "name": "acctInfo",
      "outputs": [
        {
          "internalType": "uint256",
          "name": "avgBuyPriceYes",
          "type": "uint256"
        },
        {
          "internalType": "uint256",
          "name": "avgBuyPriceNo",
          "type": "uint256"
        },
        {
          "internalType": "uint256",
          "name": "amountYes",
          "type": "uint256"
        },
        {
          "internalType": "uint256",
          "name": "amountNo",
          "type": "uint256"
        },
        {
          "internalType": "uint256",
          "name": "amountPaidYes",
          "type": "uint256"
        },
        {
          "internalType": "uint256",
          "name": "amountPaidNo",
          "type": "uint256"
        },
        {
          "internalType": "uint256",
          "name": "Totalbuys",
          "type": "uint256"
        }
      ],
      "stateMutability": "view",
      "type": "function"
    },
    {
      "inputs": [
        {
          "internalType": "address",
          "name": "account",
          "type": "address"
        },
        {
          "internalType": "uint256",
          "name": "id",
          "type": "uint256"
        }
      ],
      "name": "balanceOf",
      "outputs": [
        {
          "internalType": "uint256",
          "name": "",
          "type": "uint256"
        }
      ],
      "stateMutability": "view",
      "type": "function"
    },
    {
      "inputs": [
        {
          "internalType": "address[]",
          "name": "accounts",
          "type": "address[]"
        },
        {
          "internalType": "uint256[]",
          "name": "ids",
          "type": "uint256[]"
        }
      ],
      "name": "balanceOfBatch",
      "outputs": [
        {
          "internalType": "uint256[]",
          "name": "",
          "type": "uint256[]"
        }
      ],
      "stateMutability": "view",
      "type": "function"
    },
    {
      "inputs": [
        {
          "internalType": "address",
          "name": "account",
          "type": "address"
        },
        {
          "internalType": "uint256",
          "name": "id",
          "type": "uint256"
        },
        {
          "internalType": "uint256",
          "name": "value",
          "type": "uint256"
        }
      ],
      "name": "burn",
      "outputs": [],
      "stateMutability": "nonpayable",
      "type": "function"
    },
    {
      "inputs": [
        {
          "internalType": "address",
          "name": "account",
          "type": "address"
        },
        {
          "internalType": "uint256[]",
          "name": "ids",
          "type": "uint256[]"
        },
        {
          "internalType": "uint256[]",
          "name": "values",
          "type": "uint256[]"
        }
      ],
      "name": "burnBatch",
      "outputs": [],
      "stateMutability": "nonpayable",
      "type": "function"
    },
    {
      "inputs": [],
      "name": "cashOut",
      "outputs": [],
      "stateMutability": "nonpayable",
      "type": "function"
    },
    {
      "inputs": [],
      "name": "closingDate",
      "outputs": [
        {
          "internalType": "uint256",
          "name": "",
          "type": "uint256"
        }
      ],
      "stateMutability": "view",
      "type": "function"
    },
    {
      "inputs": [
        {
          "internalType": "uint256",
          "name": "id",
          "type": "uint256"
        }
      ],
      "name": "exists",
      "outputs": [
        {
          "internalType": "bool",
          "name": "",
          "type": "bool"
        }
      ],
      "stateMutability": "view",
      "type": "function"
    },
    {
      "inputs": [],
      "name": "favored",
      "outputs": [
        {
          "internalType": "bool",
          "name": "",
          "type": "bool"
        }
      ],
      "stateMutability": "view",
      "type": "function"
    },
    {
      "inputs": [],
      "name": "feeCollector",
      "outputs": [
        {
          "internalType": "address",
          "name": "",
          "type": "address"
        }
      ],
      "stateMutability": "view",
      "type": "function"
    },
    {
      "inputs": [],
      "name": "fetched",
      "outputs": [
        {
          "internalType": "bool",
          "name": "",
          "type": "bool"
        }
      ],
      "stateMutability": "view",
      "type": "function"
    },
    {
      "inputs": [],
      "name": "getData",
      "outputs": [],
      "stateMutability": "nonpayable",
      "type": "function"
    },
    {
      "inputs": [],
      "name": "history",
      "outputs": [
        {
          "internalType": "uint256",
          "name": "jackpotYes",
          "type": "uint256"
        },
        {
          "internalType": "uint256",
          "name": "jackpotNo",
          "type": "uint256"
        }
      ],
      "stateMutability": "view",
      "type": "function"
    },
    {
      "inputs": [
        {
          "internalType": "uint256",
          "name": "_predictionPrice",
          "type": "uint256"
        },
        {
          "internalType": "address",
          "name": "_oracleFeed",
          "type": "address"
        },
        {
          "internalType": "uint256",
          "name": "_closingDate",
          "type": "uint256"
        },
        {
          "internalType": "string",
          "name": "_sku",
          "type": "string"
        }
      ],
      "name": "initialize",
      "outputs": [],
      "stateMutability": "nonpayable",
      "type": "function"
    },
    {
      "inputs": [
        {
          "internalType": "address",
          "name": "account",
          "type": "address"
        },
        {
          "internalType": "address",
          "name": "operator",
          "type": "address"
        }
      ],
      "name": "isApprovedForAll",
      "outputs": [
        {
          "internalType": "bool",
          "name": "",
          "type": "bool"
        }
      ],
      "stateMutability": "view",
      "type": "function"
    },
    {
      "inputs": [
        {
          "internalType": "uint256",
          "name": "id",
          "type": "uint256"
        },
        {
          "internalType": "uint256",
          "name": "amount",
          "type": "uint256"
        }
      ],
      "name": "mint",
      "outputs": [],
      "stateMutability": "nonpayable",
      "type": "function"
    },
    {
      "inputs": [],
      "name": "owner",
      "outputs": [
        {
          "internalType": "address",
          "name": "",
          "type": "address"
        }
      ],
      "stateMutability": "view",
      "type": "function"
    },
    {
      "inputs": [
        {
          "internalType": "uint256",
          "name": "",
          "type": "uint256"
        }
      ],
      "name": "participants",
      "outputs": [
        {
          "internalType": "address",
          "name": "",
          "type": "address"
        }
      ],
      "stateMutability": "view",
      "type": "function"
    },
    {
      "inputs": [],
      "name": "predictionPrice",
      "outputs": [
        {
          "internalType": "uint256",
          "name": "",
          "type": "uint256"
        }
      ],
      "stateMutability": "view",
      "type": "function"
    },
    {
      "inputs": [],
      "name": "priceOfNo",
      "outputs": [
        {
          "internalType": "uint256",
          "name": "",
          "type": "uint256"
        }
      ],
      "stateMutability": "view",
      "type": "function"
    },
    {
      "inputs": [],
      "name": "priceOfYes",
      "outputs": [
        {
          "internalType": "uint256",
          "name": "",
          "type": "uint256"
        }
      ],
      "stateMutability": "view",
      "type": "function"
    },
    {
      "inputs": [],
      "name": "renounceOwnership",
      "outputs": [],
      "stateMutability": "nonpayable",
      "type": "function"
    },
    {
      "inputs": [],
      "name": "resolveAssetPrice",
      "outputs": [],
      "stateMutability": "nonpayable",
      "type": "function"
    },
    {
      "inputs": [],
      "name": "resolved",
      "outputs": [
        {
          "internalType": "bool",
          "name": "",
          "type": "bool"
        }
      ],
      "stateMutability": "view",
      "type": "function"
    },
    {
      "inputs": [
        {
          "internalType": "address",
          "name": "from",
          "type": "address"
        },
        {
          "internalType": "address",
          "name": "to",
          "type": "address"
        },
        {
          "internalType": "uint256[]",
          "name": "ids",
          "type": "uint256[]"
        },
        {
          "internalType": "uint256[]",
          "name": "amounts",
          "type": "uint256[]"
        },
        {
          "internalType": "bytes",
          "name": "data",
          "type": "bytes"
        }
      ],
      "name": "safeBatchTransferFrom",
      "outputs": [],
      "stateMutability": "nonpayable",
      "type": "function"
    },
    {
      "inputs": [
        {
          "internalType": "address",
          "name": "from",
          "type": "address"
        },
        {
          "internalType": "address",
          "name": "to",
          "type": "address"
        },
        {
          "internalType": "uint256",
          "name": "id",
          "type": "uint256"
        },
        {
          "internalType": "uint256",
          "name": "amount",
          "type": "uint256"
        },
        {
          "internalType": "bytes",
          "name": "data",
          "type": "bytes"
        }
      ],
      "name": "safeTransferFrom",
      "outputs": [],
      "stateMutability": "nonpayable",
      "type": "function"
    },
    {
      "inputs": [
        {
          "internalType": "address",
          "name": "operator",
          "type": "address"
        },
        {
          "internalType": "bool",
          "name": "approved",
          "type": "bool"
        }
      ],
      "name": "setApprovalForAll",
      "outputs": [],
      "stateMutability": "nonpayable",
      "type": "function"
    },
    {
      "inputs": [
        {
          "internalType": "string",
          "name": "newuri",
          "type": "string"
        }
      ],
      "name": "setURI",
      "outputs": [],
      "stateMutability": "nonpayable",
      "type": "function"
    },
    {
      "inputs": [],
      "name": "sku",
      "outputs": [
        {
          "internalType": "string",
          "name": "",
          "type": "string"
        }
      ],
      "stateMutability": "view",
      "type": "function"
    },
    {
      "inputs": [
        {
          "internalType": "bytes4",
          "name": "interfaceId",
          "type": "bytes4"
        }
      ],
      "name": "supportsInterface",
      "outputs": [
        {
          "internalType": "bool",
          "name": "",
          "type": "bool"
        }
      ],
      "stateMutability": "view",
      "type": "function"
    },
    {
      "inputs": [
        {
          "internalType": "uint256",
          "name": "id",
          "type": "uint256"
        }
      ],
      "name": "totalSupply",
      "outputs": [
        {
          "internalType": "uint256",
          "name": "",
          "type": "uint256"
        }
      ],
      "stateMutability": "view",
      "type": "function"
    },
    {
      "inputs": [
        {
          "internalType": "address",
          "name": "newOwner",
          "type": "address"
        }
      ],
      "name": "transferOwnership",
      "outputs": [],
      "stateMutability": "nonpayable",
      "type": "function"
    },
    {
      "inputs": [
        {
          "internalType": "uint256",
          "name": "",
          "type": "uint256"
        }
      ],
      "name": "uri",
      "outputs": [
        {
          "internalType": "string",
          "name": "",
          "type": "string"
        }
      ],
      "stateMutability": "view",
      "type": "function"
    }
  ],
  "bytecode": "0x6080604052600a805460ff60b01b1916905542600b553480156200002257600080fd5b5060405162003ca738038062003ca78339810160408190526200004591620006c9565b816200005181620000cd565b506200005d33620000df565b6200008130600180604051806020016040528060008152506200013160201b60201c565b620000a63060026001604051806020016040528060008152506200013160201b60201c565b601080546001600160a01b0319166001600160a01b03929092169190911790555062000ab3565b6002620000db82826200081a565b5050565b600380546001600160a01b038381166001600160a01b0319831681179093556040519116919082907f8be0079c531659141344cd1fd0a4f28419497f9722a3daafe3b4186f6b6457e090600090a35050565b6001600160a01b038416620001975760405162461bcd60e51b815260206004820152602160248201527f455243313135353a206d696e7420746f20746865207a65726f206164647265736044820152607360f81b60648201526084015b60405180910390fd5b336000620001a58562000264565b90506000620001b48562000264565b9050620001c783600089858589620002b2565b6000868152602081815260408083206001600160a01b038b16845290915281208054879290620001f9908490620008fc565b909155505060408051878152602081018790526001600160a01b03808a1692600092918716917fc3d58168c5ae7397731d063d5bbf3d657854427343f4c083240f7aacaa2d0f62910160405180910390a46200025b83600089898989620002d5565b50505050505050565b60408051600180825281830190925260609160009190602080830190803683370190505090508281600081518110620002a157620002a162000918565b602090810291909101015292915050565b620002cd868686868686620004a160201b620014e61760201c565b505050505050565b620002f4846001600160a01b03166200064f60201b6200167d1760201c565b15620002cd5760405163f23a6e6160e01b81526001600160a01b0385169063f23a6e61906200033090899089908890889088906004016200095c565b6020604051808303816000875af19250505080156200036e575060408051601f3d908101601f191682019092526200036b91810190620009a3565b60015b6200042e576200037d620009d6565b806308c379a003620003bd575062000394620009f3565b80620003a15750620003bf565b8060405162461bcd60e51b81526004016200018e919062000a82565b505b60405162461bcd60e51b815260206004820152603460248201527f455243313135353a207472616e7366657220746f206e6f6e204552433131353560448201527f526563656976657220696d706c656d656e74657200000000000000000000000060648201526084016200018e565b6001600160e01b0319811663f23a6e6160e01b146200025b5760405162461bcd60e51b815260206004820152602860248201527f455243313135353a204552433131353552656365697665722072656a656374656044820152676420746f6b656e7360c01b60648201526084016200018e565b620004bc868686868686620002cd60201b620011c01760201c565b6001600160a01b038516620005505760005b83518110156200054e57828181518110620004ed57620004ed62000918565b6020026020010151600460008684815181106200050e576200050e62000918565b602002602001015181526020019081526020016000206000828254620005359190620008fc565b909155506200054690508162000a97565b9050620004ce565b505b6001600160a01b038416620002cd5760005b83518110156200025b57600084828151811062000583576200058362000918565b602002602001015190506000848381518110620005a457620005a462000918565b6020026020010151905060006004600084815260200190815260200160002054905081811015620006295760405162461bcd60e51b815260206004820152602860248201527f455243313135353a206275726e20616d6f756e74206578636565647320746f74604482015267616c537570706c7960c01b60648201526084016200018e565b60009283526004602052604090922091039055620006478162000a97565b905062000562565b6001600160a01b03163b151590565b634e487b7160e01b600052604160045260246000fd5b601f8201601f191681016001600160401b03811182821017156200069c576200069c6200065e565b6040525050565b60005b83811015620006c0578181015183820152602001620006a6565b50506000910152565b60008060408385031215620006dd57600080fd5b82516001600160401b0380821115620006f557600080fd5b818501915085601f8301126200070a57600080fd5b8151818111156200071f576200071f6200065e565b60405191506200073a601f8201601f19166020018362000674565b8082528660208285010111156200075057600080fd5b62000763816020840160208601620006a3565b50602085015190935090506001600160a01b03811681146200078457600080fd5b809150509250929050565b600181811c90821680620007a457607f821691505b602082108103620007c557634e487b7160e01b600052602260045260246000fd5b50919050565b601f8211156200081557600081815260208120601f850160051c81016020861015620007f45750805b601f850160051c820191505b81811015620002cd5782815560010162000800565b505050565b81516001600160401b038111156200083657620008366200065e565b6200084e816200084784546200078f565b84620007cb565b602080601f8311600181146200088657600084156200086d5750858301515b600019600386901b1c1916600185901b178555620002cd565b600085815260208120601f198616915b82811015620008b75788860151825594840194600190910190840162000896565b5085821015620008d65787850151600019600388901b60f8161c191681555b5050505050600190811b01905550565b634e487b7160e01b600052601160045260246000fd5b80820180821115620009125762000912620008e6565b92915050565b634e487b7160e01b600052603260045260246000fd5b6000815180845262000948816020860160208601620006a3565b601f01601f19169290920160200192915050565b6001600160a01b03868116825285166020820152604081018490526060810183905260a06080820181905260009062000998908301846200092e565b979650505050505050565b600060208284031215620009b657600080fd5b81516001600160e01b031981168114620009cf57600080fd5b9392505050565b600060033d1115620009f05760046000803e5060005160e01c5b90565b600060443d101562000a025790565b6040516003193d81016004833e81513d6001600160401b03808311602484018310171562000a3257505050505090565b828501915081518181111562000a4b5750505050505090565b843d870101602082850101111562000a665750505050505090565b62000a776020828601018762000674565b509095945050505050565b602081526000620009cf60208301846200092e565b60006001820162000aac5762000aac620008e6565b5060010190565b6131e48062000ac36000396000f3fe608060405234801561001057600080fd5b50600436106102405760003560e01c80635306037611610145578063b2449d65116100bd578063e985e9c51161008c578063f2fde38b11610071578063f2fde38b1461054b578063f5298aca1461055e578063f6880ec71461057157600080fd5b8063e985e9c5146104fc578063f242432a1461053857600080fd5b8063b2449d65146104ad578063bd85b039146104b5578063c415b95c146104d5578063caedcd89146104e857600080fd5b80638da5cb5b116101145780639eae0c4c116100f95780639eae0c4c14610489578063a22cb46514610491578063a628828f146104a457600080fd5b80638da5cb5b1461045557806398daac831461046657600080fd5b806353060376146104295780636b20c45414610432578063715018a614610445578063793cd71e1461044d57600080fd5b80631b2ef1ca116101d85780633bc5de30116101a75780634462f40c1161018c5780634462f40c146103df5780634e1273f4146103e75780634f558e791461040757600080fd5b80633bc5de30146103ca5780633f6fa655146103d257600080fd5b80631b2ef1ca146102f9578063228db8ee1461030c5780632eb2c2d61461038c57806335c1d3491461039f57600080fd5b8063063113941161021457806306311394146102b55780630d483442146102be5780630d9f0e92146102c65780630e89341c146102d957600080fd5b8062fdd58e1461024557806301ffc9a71461026b57806302fe53051461028e578063039491df146102a3575b600080fd5b6102586102533660046127bd565b61057a565b6040519081526020015b60405180910390f35b61027e6102793660046127fd565b610626565b6040519015158152602001610262565b6102a161029c3660046128d1565b6106c1565b005b600a5461027e90610100900460ff1681565b61025860085481565b610258600281565b6102a16102d4366004612906565b6106d5565b6102ec6102e7366004612967565b610732565b60405161026291906129d0565b6102a16103073660046129e3565b6107c6565b61035761031a366004612a05565b6011602052600090815260409020805460018201546002830154600384015460048501546005860154600690960154949593949293919290919087565b604080519788526020880196909652948601939093526060850191909152608084015260a083015260c082015260e001610262565b6102a161039a366004612ab5565b610c09565b6103b26103ad366004612967565b610c96565b6040516001600160a01b039091168152602001610262565b6102a1610cc0565b600a5461027e9060ff1681565b6102ec610d76565b6103fa6103f5366004612b5f565b610e04565b6040516102629190612c65565b61027e610415366004612967565b600090815260046020526040902054151590565b610258600d5481565b6102a1610440366004612c78565b610f42565b6102a1610fcd565b6102a1610fe1565b6003546001600160a01b03166103b2565b600554600654610474919082565b60408051928352602083019190915201610262565b6102a1611242565b6102a161049f366004612cfa565b611336565b610258600c5481565b610258600181565b6102586104c3366004612967565b60009081526004602052604090205490565b6007546103b2906001600160a01b031681565b600a5461027e90600160b01b900460ff1681565b61027e61050a366004612d31565b6001600160a01b03918216600090815260016020908152604080832093909416825291909152205460ff1690565b6102a1610546366004612d64565b611341565b6102a1610559366004612a05565b6113ce565b6102a161056c366004612dc9565b61145b565b610258600e5481565b60006001600160a01b0383166105fd5760405162461bcd60e51b815260206004820152602a60248201527f455243313135353a2061646472657373207a65726f206973206e6f742061207660448201527f616c6964206f776e65720000000000000000000000000000000000000000000060648201526084015b60405180910390fd5b506000818152602081815260408083206001600160a01b03861684529091529020545b92915050565b60006001600160e01b031982167fd9b67a2600000000000000000000000000000000000000000000000000000000148061068957506001600160e01b031982167f0e89341c00000000000000000000000000000000000000000000000000000000145b8061062057507f01ffc9a7000000000000000000000000000000000000000000000000000000006001600160e01b0319831614610620565b6106c961168c565b6106d2816116e6565b50565b6106dd61168c565b600c829055600a80547fffffffffffffffffffff0000000000000000000000000000000000000000ffff16620100006001600160a01b038616021790556008849055600f61072b8282612e7c565b5050505050565b60606002805461074190612dfc565b80601f016020809104026020016040519081016040528092919081815260200182805461076d90612dfc565b80156107ba5780601f1061078f576101008083540402835291602001916107ba565b820191906000526020600020905b81548152906001019060200180831161079d57829003601f168201915b50505050509050919050565b81158015906107d6575060028211155b6108225760405162461bcd60e51b815260206004820152600a60248201527f496e76616c69642049440000000000000000000000000000000000000000000060448201526064016105f4565b60046020527f91da3fd0782e51c6b3986e9e672fd566868e71f3dbc2d6c2cd6fbb3e361af2a754600160009081527fabd6e7cb50984ff9c2f3e18a2660c3353dadf4e3291deeb275dae2cd1e44fe055490916108c9916108829190612f52565b600260005260046020527f91da3fd0782e51c6b3986e9e672fd566868e71f3dbc2d6c2cd6fbb3e361af2a7546108c390670de0b6b3a7640000905b906116f2565b90611705565b600d5560046020527f91da3fd0782e51c6b3986e9e672fd566868e71f3dbc2d6c2cd6fbb3e361af2a75460016000527fabd6e7cb50984ff9c2f3e18a2660c3353dadf4e3291deeb275dae2cd1e44fe05546109669161092791612f52565b600160005260046020527fabd6e7cb50984ff9c2f3e18a2660c3353dadf4e3291deeb275dae2cd1e44fe05546108c390670de0b6b3a7640000906108bd565b600e556001839003610a9e57600e5461097f90836116f2565b60105490915061099a906001600160a01b0316333084611711565b6109b53384846040518060200160405280600081525061179f565b336000908152601160205260408120600681018054919260059260019291906109df908490612f52565b92505081905550838260020160008282546109fa9190612f52565b9250508190555082826004016000828254610a159190612f52565b9091555050805483908290600090610a2e908490612f52565b909155505060028201546004830154610a4691611705565b90915550601280546001810182556000919091527fbb8a6a4669ba250d26cd7a459eca9d215f8307e33aebe50379bc5a3617ec344401805473ffffffffffffffffffffffffffffffffffffffff191633179055505050565b600d54610aab90836116f2565b601054909150610ac6906001600160a01b0316333084611711565b610ae13384846040518060200160405280600081525061179f565b33600090815260116020526040812060068101805491926005926001929190610b0b908490612f52565b9250508190555083826003016000828254610b269190612f52565b9250508190555082826005016000828254610b419190612f52565b9250508190555082816001016000828254610b5c9190612f52565b909155505060038201546005830154610b7491611705565b6001838101919091556012805491820181556000527fbb8a6a4669ba250d26cd7a459eca9d215f8307e33aebe50379bc5a3617ec344401805473ffffffffffffffffffffffffffffffffffffffff19163317905560408051868152602081018690527f3923a82cb620a1af3ec9322d3347e92e90f81f20cef82079a61145417437251a910160405180910390a150505b505050565b6001600160a01b038516331480610c255750610c25853361050a565b610c895760405162461bcd60e51b815260206004820152602f60248201527f455243313135353a2063616c6c6572206973206e6f7420746f6b656e206f776e60448201526e195c881b9bdc88185c1c1c9bdd9959608a1b60648201526084016105f4565b61072b85858585856118d5565b60128181548110610ca657600080fd5b6000918252602090912001546001600160a01b0316905081565b610cc861168c565b600a60029054906101000a90046001600160a01b03166001600160a01b0316631604f9ea6040518163ffffffff1660e01b81526004016020604051808303816000875af1158015610d1d573d6000803e3d6000fd5b505050506040513d601f19601f82011682018060405250810190610d419190612f65565b50600a80547fffffffffffffffffff00ffffffffffffffffffffffffffffffffffffffffffff16600160b01b17905542600955565b600f8054610d8390612dfc565b80601f0160208091040260200160405190810160405280929190818152602001828054610daf90612dfc565b8015610dfc5780601f10610dd157610100808354040283529160200191610dfc565b820191906000526020600020905b815481529060010190602001808311610ddf57829003601f168201915b505050505081565b60608151835114610e7d5760405162461bcd60e51b815260206004820152602960248201527f455243313135353a206163636f756e747320616e6420696473206c656e67746860448201527f206d69736d61746368000000000000000000000000000000000000000000000060648201526084016105f4565b6000835167ffffffffffffffff811115610e9957610e9961281a565b604051908082528060200260200182016040528015610ec2578160200160208202803683370190505b50905060005b8451811015610f3a57610f0d858281518110610ee657610ee6612f7e565b6020026020010151858381518110610f0057610f00612f7e565b602002602001015161057a565b828281518110610f1f57610f1f612f7e565b6020908102919091010152610f3381612f94565b9050610ec8565b509392505050565b6001600160a01b038316331480610f5e5750610f5e833361050a565b610fc25760405162461bcd60e51b815260206004820152602f60248201527f455243313135353a2063616c6c6572206973206e6f7420746f6b656e206f776e60448201526e195c881b9bdc88185c1c1c9bdd9959608a1b60648201526084016105f4565b610c04838383611b39565b610fd561168c565b610fdf6000611d8e565b565b600a5460ff1615156001146110385760405162461bcd60e51b815260206004820152601460248201527f44617461206e6f7420666574636865642079657400000000000000000000000060448201526064016105f4565b33600090815260116020908152604091829020825160e0810184528154815260018083015493820193909352600282015493810193909352600381015460608401526004810154608084015260058082015460a085015260069091015460c0840152600a54909161010090910460ff16151590036111c85760006110bd33600161057a565b6001600090815260046020527fabd6e7cb50984ff9c2f3e18a2660c3353dadf4e3291deeb275dae2cd1e44fe0554919250906110f99083612fad565b905061110733600184611ded565b8351600090611117908490612fcf565b8285600101546111279190612fcf565b6111319190612f52565b6010546040517fa9059cbb000000000000000000000000000000000000000000000000000000008152336004820152602481018390529192506001600160a01b03169063a9059cbb906044016020604051808303816000875af115801561119c573d6000803e3d6000fd5b505050506040513d601f19601f820116820180604052508101906111c09190612fee565b505050505050565b60006111d533600261057a565b6002600090815260046020527f91da3fd0782e51c6b3986e9e672fd566868e71f3dbc2d6c2cd6fbb3e361af2a754919250906112119083612fad565b905061121f33600284611ded565b60008285602001516112319190612fcf565b8454611127908490612fcf565b5050565b61124a61168c565b600a60029054906101000a90046001600160a01b03166001600160a01b031663a035b1fe6040518163ffffffff1660e01b8152600401602060405180830381865afa15801561129d573d6000803e3d6000fd5b505050506040513d601f19601f820116820180604052508101906112c19190612f65565b60085411156112de57600a805461ff0019166101001790556112ea565b600a805461ff00191690555b600a805460ff191660019081179091556040805142815260208101929092527f8fa2d274daefea958970f4f024aa1a08ae8f60eb2512c71a89d79621335d57c9910160405180910390a1565b61123e338383611f7d565b6001600160a01b03851633148061135d575061135d853361050a565b6113c15760405162461bcd60e51b815260206004820152602f60248201527f455243313135353a2063616c6c6572206973206e6f7420746f6b656e206f776e60448201526e195c881b9bdc88185c1c1c9bdd9959608a1b60648201526084016105f4565b61072b8585858585612071565b6113d661168c565b6001600160a01b0381166114525760405162461bcd60e51b815260206004820152602660248201527f4f776e61626c653a206e6577206f776e657220697320746865207a65726f206160448201527f646472657373000000000000000000000000000000000000000000000000000060648201526084016105f4565b6106d281611d8e565b6001600160a01b0383163314806114775750611477833361050a565b6114db5760405162461bcd60e51b815260206004820152602f60248201527f455243313135353a2063616c6c6572206973206e6f7420746f6b656e206f776e60448201526e195c881b9bdc88185c1c1c9bdd9959608a1b60648201526084016105f4565b610c04838383611ded565b6001600160a01b03851661156d5760005b835181101561156b5782818151811061151257611512612f7e565b60200260200101516004600086848151811061153057611530612f7e565b6020026020010151815260200190815260200160002060008282546115559190612f52565b90915550611564905081612f94565b90506114f7565b505b6001600160a01b0384166111c05760005b835181101561167457600084828151811061159b5761159b612f7e565b6020026020010151905060008483815181106115b9576115b9612f7e565b60200260200101519050600060046000848152602001908152602001600020549050818110156116515760405162461bcd60e51b815260206004820152602860248201527f455243313135353a206275726e20616d6f756e74206578636565647320746f7460448201527f616c537570706c7900000000000000000000000000000000000000000000000060648201526084016105f4565b6000928352600460205260409092209103905561166d81612f94565b905061157e565b50505050505050565b6001600160a01b03163b151590565b6003546001600160a01b03163314610fdf5760405162461bcd60e51b815260206004820181905260248201527f4f776e61626c653a2063616c6c6572206973206e6f7420746865206f776e657260448201526064016105f4565b600261123e8282612e7c565b60006116fe8284612fcf565b9392505050565b60006116fe8284612fad565b604080516001600160a01b0385811660248301528416604482015260648082018490528251808303909101815260849091019091526020810180517bffffffffffffffffffffffffffffffffffffffffffffffffffffffff167f23b872dd0000000000000000000000000000000000000000000000000000000017905261179990859061222a565b50505050565b6001600160a01b03841661181b5760405162461bcd60e51b815260206004820152602160248201527f455243313135353a206d696e7420746f20746865207a65726f2061646472657360448201527f730000000000000000000000000000000000000000000000000000000000000060648201526084016105f4565b3360006118278561230f565b905060006118348561230f565b90506118458360008985858961235a565b6000868152602081815260408083206001600160a01b038b16845290915281208054879290611875908490612f52565b909155505060408051878152602081018790526001600160a01b03808a1692600092918716917fc3d58168c5ae7397731d063d5bbf3d657854427343f4c083240f7aacaa2d0f62910160405180910390a461167483600089898989612368565b81518351146119375760405162461bcd60e51b815260206004820152602860248201527f455243313135353a2069647320616e6420616d6f756e7473206c656e677468206044820152670dad2e6dac2e8c6d60c31b60648201526084016105f4565b6001600160a01b03841661199b5760405162461bcd60e51b815260206004820152602560248201527f455243313135353a207472616e7366657220746f20746865207a65726f206164604482015264647265737360d81b60648201526084016105f4565b336119aa81878787878761235a565b60005b8451811015611ad35760008582815181106119ca576119ca612f7e565b6020026020010151905060008583815181106119e8576119e8612f7e565b602090810291909101810151600084815280835260408082206001600160a01b038e168352909352919091205490915081811015611a7b5760405162461bcd60e51b815260206004820152602a60248201527f455243313135353a20696e73756666696369656e742062616c616e636520666f60448201526939103a3930b739b332b960b11b60648201526084016105f4565b6000838152602081815260408083206001600160a01b038e8116855292528083208585039055908b16825281208054849290611ab8908490612f52565b9250508190555050505080611acc90612f94565b90506119ad565b50846001600160a01b0316866001600160a01b0316826001600160a01b03167f4a39dc06d4c0dbc64b70af90fd698a233a518aa5d07e595d983b8c0526c8f7fb8787604051611b2392919061300b565b60405180910390a46111c081878787878761250d565b6001600160a01b038316611b9b5760405162461bcd60e51b815260206004820152602360248201527f455243313135353a206275726e2066726f6d20746865207a65726f206164647260448201526265737360e81b60648201526084016105f4565b8051825114611bfd5760405162461bcd60e51b815260206004820152602860248201527f455243313135353a2069647320616e6420616d6f756e7473206c656e677468206044820152670dad2e6dac2e8c6d60c31b60648201526084016105f4565b6000339050611c208185600086866040518060200160405280600081525061235a565b60005b8351811015611d21576000848281518110611c4057611c40612f7e565b602002602001015190506000848381518110611c5e57611c5e612f7e565b602090810291909101810151600084815280835260408082206001600160a01b038c168352909352919091205490915081811015611cea5760405162461bcd60e51b8152602060048201526024808201527f455243313135353a206275726e20616d6f756e7420657863656564732062616c604482015263616e636560e01b60648201526084016105f4565b6000928352602083815260408085206001600160a01b038b1686529091529092209103905580611d1981612f94565b915050611c23565b5060006001600160a01b0316846001600160a01b0316826001600160a01b03167f4a39dc06d4c0dbc64b70af90fd698a233a518aa5d07e595d983b8c0526c8f7fb8686604051611d7292919061300b565b60405180910390a4604080516020810190915260009052611799565b600380546001600160a01b0383811673ffffffffffffffffffffffffffffffffffffffff19831681179093556040519116919082907f8be0079c531659141344cd1fd0a4f28419497f9722a3daafe3b4186f6b6457e090600090a35050565b6001600160a01b038316611e4f5760405162461bcd60e51b815260206004820152602360248201527f455243313135353a206275726e2066726f6d20746865207a65726f206164647260448201526265737360e81b60648201526084016105f4565b336000611e5b8461230f565b90506000611e688461230f565b9050611e888387600085856040518060200160405280600081525061235a565b6000858152602081815260408083206001600160a01b038a16845290915290205484811015611f055760405162461bcd60e51b8152602060048201526024808201527f455243313135353a206275726e20616d6f756e7420657863656564732062616c604482015263616e636560e01b60648201526084016105f4565b6000868152602081815260408083206001600160a01b038b81168086529184528285208a8703905582518b81529384018a90529092908816917fc3d58168c5ae7397731d063d5bbf3d657854427343f4c083240f7aacaa2d0f62910160405180910390a4604080516020810190915260009052611674565b816001600160a01b0316836001600160a01b0316036120045760405162461bcd60e51b815260206004820152602960248201527f455243313135353a2073657474696e6720617070726f76616c2073746174757360448201527f20666f722073656c66000000000000000000000000000000000000000000000060648201526084016105f4565b6001600160a01b03838116600081815260016020908152604080832094871680845294825291829020805460ff191686151590811790915591519182527f17307eab39ab6107e8899845ad3d59bd9653f200f220920489ca2b5937696c31910160405180910390a3505050565b6001600160a01b0384166120d55760405162461bcd60e51b815260206004820152602560248201527f455243313135353a207472616e7366657220746f20746865207a65726f206164604482015264647265737360d81b60648201526084016105f4565b3360006120e18561230f565b905060006120ee8561230f565b90506120fe83898985858961235a565b6000868152602081815260408083206001600160a01b038c168452909152902054858110156121825760405162461bcd60e51b815260206004820152602a60248201527f455243313135353a20696e73756666696369656e742062616c616e636520666f60448201526939103a3930b739b332b960b11b60648201526084016105f4565b6000878152602081815260408083206001600160a01b038d8116855292528083208985039055908a168252812080548892906121bf908490612f52565b909155505060408051888152602081018890526001600160a01b03808b16928c821692918816917fc3d58168c5ae7397731d063d5bbf3d657854427343f4c083240f7aacaa2d0f62910160405180910390a461221f848a8a8a8a8a612368565b505050505050505050565b600061227f826040518060400160405280602081526020017f5361666545524332303a206c6f772d6c6576656c2063616c6c206661696c6564815250856001600160a01b03166126099092919063ffffffff16565b805190915015610c04578080602001905181019061229d9190612fee565b610c045760405162461bcd60e51b815260206004820152602a60248201527f5361666545524332303a204552433230206f7065726174696f6e20646964206e60448201527f6f7420737563636565640000000000000000000000000000000000000000000060648201526084016105f4565b6040805160018082528183019092526060916000919060208083019080368337019050509050828160008151811061234957612349612f7e565b602090810291909101015292915050565b6111c08686868686866114e6565b6001600160a01b0384163b156111c05760405163f23a6e6160e01b81526001600160a01b0385169063f23a6e61906123ac9089908990889088908890600401613039565b6020604051808303816000875af19250505080156123e7575060408051601f3d908101601f191682019092526123e491810190613071565b60015b61249c576123f361308e565b806308c379a00361242c57506124076130aa565b80612412575061242e565b8060405162461bcd60e51b81526004016105f491906129d0565b505b60405162461bcd60e51b815260206004820152603460248201527f455243313135353a207472616e7366657220746f206e6f6e204552433131353560448201527f526563656976657220696d706c656d656e74657200000000000000000000000060648201526084016105f4565b6001600160e01b0319811663f23a6e6160e01b146116745760405162461bcd60e51b815260206004820152602860248201527f455243313135353a204552433131353552656365697665722072656a656374656044820152676420746f6b656e7360c01b60648201526084016105f4565b6001600160a01b0384163b156111c05760405163bc197c8160e01b81526001600160a01b0385169063bc197c81906125519089908990889088908890600401613134565b6020604051808303816000875af192505050801561258c575060408051601f3d908101601f1916820190925261258991810190613071565b60015b612598576123f361308e565b6001600160e01b0319811663bc197c8160e01b146116745760405162461bcd60e51b815260206004820152602860248201527f455243313135353a204552433131353552656365697665722072656a656374656044820152676420746f6b656e7360c01b60648201526084016105f4565b60606126188484600085612620565b949350505050565b6060824710156126985760405162461bcd60e51b815260206004820152602660248201527f416464726573733a20696e73756666696369656e742062616c616e636520666f60448201527f722063616c6c000000000000000000000000000000000000000000000000000060648201526084016105f4565b6001600160a01b0385163b6126ef5760405162461bcd60e51b815260206004820152601d60248201527f416464726573733a2063616c6c20746f206e6f6e2d636f6e747261637400000060448201526064016105f4565b600080866001600160a01b0316858760405161270b9190613192565b60006040518083038185875af1925050503d8060008114612748576040519150601f19603f3d011682016040523d82523d6000602084013e61274d565b606091505b509150915061275d828286612768565b979650505050505050565b606083156127775750816116fe565b8251156127875782518084602001fd5b8160405162461bcd60e51b81526004016105f491906129d0565b80356001600160a01b03811681146127b857600080fd5b919050565b600080604083850312156127d057600080fd5b6127d9836127a1565b946020939093013593505050565b6001600160e01b0319811681146106d257600080fd5b60006020828403121561280f57600080fd5b81356116fe816127e7565b634e487b7160e01b600052604160045260246000fd5b601f8201601f1916810167ffffffffffffffff811182821017156128565761285661281a565b6040525050565b600082601f83011261286e57600080fd5b813567ffffffffffffffff8111156128885761288861281a565b60405161289f601f8301601f191660200182612830565b8181528460208386010111156128b457600080fd5b816020850160208301376000918101602001919091529392505050565b6000602082840312156128e357600080fd5b813567ffffffffffffffff8111156128fa57600080fd5b6126188482850161285d565b6000806000806080858703121561291c57600080fd5b8435935061292c602086016127a1565b925060408501359150606085013567ffffffffffffffff81111561294f57600080fd5b61295b8782880161285d565b91505092959194509250565b60006020828403121561297957600080fd5b5035919050565b60005b8381101561299b578181015183820152602001612983565b50506000910152565b600081518084526129bc816020860160208601612980565b601f01601f19169290920160200192915050565b6020815260006116fe60208301846129a4565b600080604083850312156129f657600080fd5b50508035926020909101359150565b600060208284031215612a1757600080fd5b6116fe826127a1565b600067ffffffffffffffff821115612a3a57612a3a61281a565b5060051b60200190565b600082601f830112612a5557600080fd5b81356020612a6282612a20565b604051612a6f8282612830565b83815260059390931b8501820192828101915086841115612a8f57600080fd5b8286015b84811015612aaa5780358352918301918301612a93565b509695505050505050565b600080600080600060a08688031215612acd57600080fd5b612ad6866127a1565b9450612ae4602087016127a1565b9350604086013567ffffffffffffffff80821115612b0157600080fd5b612b0d89838a01612a44565b94506060880135915080821115612b2357600080fd5b612b2f89838a01612a44565b93506080880135915080821115612b4557600080fd5b50612b528882890161285d565b9150509295509295909350565b60008060408385031215612b7257600080fd5b823567ffffffffffffffff80821115612b8a57600080fd5b818501915085601f830112612b9e57600080fd5b81356020612bab82612a20565b604051612bb88282612830565b83815260059390931b8501820192828101915089841115612bd857600080fd5b948201945b83861015612bfd57612bee866127a1565b82529482019490820190612bdd565b96505086013592505080821115612c1357600080fd5b50612c2085828601612a44565b9150509250929050565b600081518084526020808501945080840160005b83811015612c5a57815187529582019590820190600101612c3e565b509495945050505050565b6020815260006116fe6020830184612c2a565b600080600060608486031215612c8d57600080fd5b612c96846127a1565b9250602084013567ffffffffffffffff80821115612cb357600080fd5b612cbf87838801612a44565b93506040860135915080821115612cd557600080fd5b50612ce286828701612a44565b9150509250925092565b80151581146106d257600080fd5b60008060408385031215612d0d57600080fd5b612d16836127a1565b91506020830135612d2681612cec565b809150509250929050565b60008060408385031215612d4457600080fd5b612d4d836127a1565b9150612d5b602084016127a1565b90509250929050565b600080600080600060a08688031215612d7c57600080fd5b612d85866127a1565b9450612d93602087016127a1565b93506040860135925060608601359150608086013567ffffffffffffffff811115612dbd57600080fd5b612b528882890161285d565b600080600060608486031215612dde57600080fd5b612de7846127a1565b95602085013595506040909401359392505050565b600181811c90821680612e1057607f821691505b602082108103612e3057634e487b7160e01b600052602260045260246000fd5b50919050565b601f821115610c0457600081815260208120601f850160051c81016020861015612e5d5750805b601f850160051c820191505b818110156111c057828155600101612e69565b815167ffffffffffffffff811115612e9657612e9661281a565b612eaa81612ea48454612dfc565b84612e36565b602080601f831160018114612edf5760008415612ec75750858301515b600019600386901b1c1916600185901b1785556111c0565b600085815260208120601f198616915b82811015612f0e57888601518255948401946001909101908401612eef565b5085821015612f2c5787850151600019600388901b60f8161c191681555b5050505050600190811b01905550565b634e487b7160e01b600052601160045260246000fd5b8082018082111561062057610620612f3c565b600060208284031215612f7757600080fd5b5051919050565b634e487b7160e01b600052603260045260246000fd5b600060018201612fa657612fa6612f3c565b5060010190565b600082612fca57634e487b7160e01b600052601260045260246000fd5b500490565b6000816000190483118215151615612fe957612fe9612f3c565b500290565b60006020828403121561300057600080fd5b81516116fe81612cec565b60408152600061301e6040830185612c2a565b82810360208401526130308185612c2a565b95945050505050565b60006001600160a01b03808816835280871660208401525084604083015283606083015260a0608083015261275d60a08301846129a4565b60006020828403121561308357600080fd5b81516116fe816127e7565b600060033d11156130a75760046000803e5060005160e01c5b90565b600060443d10156130b85790565b6040516003193d81016004833e81513d67ffffffffffffffff81602484011181841117156130e857505050505090565b82850191508151818111156131005750505050505090565b843d870101602082850101111561311a5750505050505090565b61312960208286010187612830565b509095945050505050565b60006001600160a01b03808816835280871660208401525060a0604083015261316060a0830186612c2a565b82810360608401526131728186612c2a565b9050828103608084015261318681856129a4565b98975050505050505050565b600082516131a4818460208701612980565b919091019291505056fea2646970667358221220da52cc7e17c3e4d2561d9770e5f4f49b8b2b0247cdddb4d7984eb70cc39bea9364736f6c63430008100033",
  "linkReferences": {},
  "deployedLinkReferences": {}
}