{
  "_format": "hh-sol-artifact-1",
  "contractName": "Market",
  "sourceName": "contracts/Market.sol",
  "abi": [
    {
      "inputs": [
        {
          "internalType": "string",
          "name": "uri_",
          "type": "string"
        },
        {
          "internalType": "address",
          "name": "_usdc",
          "type": "address"
        }
      ],
      "stateMutability": "nonpayable",
      "type": "constructor"
    },
    {
      "anonymous": false,
      "inputs": [
        {
          "indexed": true,
          "internalType": "address",
          "name": "account",
          "type": "address"
        },
        {
          "indexed": true,
          "internalType": "address",
          "name": "operator",
          "type": "address"
        },
        {
          "indexed": false,
          "internalType": "bool",
          "name": "approved",
          "type": "bool"
        }
      ],
      "name": "ApprovalForAll",
      "type": "event"
    },
    {
      "anonymous": false,
      "inputs": [
        {
          "indexed": true,
          "internalType": "address",
          "name": "previousOwner",
          "type": "address"
        },
        {
          "indexed": true,
          "internalType": "address",
          "name": "newOwner",
          "type": "address"
        }
      ],
      "name": "OwnershipTransferred",
      "type": "event"
    },
    {
      "anonymous": false,
      "inputs": [
        {
          "indexed": true,
          "internalType": "address",
          "name": "operator",
          "type": "address"
        },
        {
          "indexed": true,
          "internalType": "address",
          "name": "from",
          "type": "address"
        },
        {
          "indexed": true,
          "internalType": "address",
          "name": "to",
          "type": "address"
        },
        {
          "indexed": false,
          "internalType": "uint256[]",
          "name": "ids",
          "type": "uint256[]"
        },
        {
          "indexed": false,
          "internalType": "uint256[]",
          "name": "values",
          "type": "uint256[]"
        }
      ],
      "name": "TransferBatch",
      "type": "event"
    },
    {
      "anonymous": false,
      "inputs": [
        {
          "indexed": true,
          "internalType": "address",
          "name": "operator",
          "type": "address"
        },
        {
          "indexed": true,
          "internalType": "address",
          "name": "from",
          "type": "address"
        },
        {
          "indexed": true,
          "internalType": "address",
          "name": "to",
          "type": "address"
        },
        {
          "indexed": false,
          "internalType": "uint256",
          "name": "id",
          "type": "uint256"
        },
        {
          "indexed": false,
          "internalType": "uint256",
          "name": "value",
          "type": "uint256"
        }
      ],
      "name": "TransferSingle",
      "type": "event"
    },
    {
      "anonymous": false,
      "inputs": [
        {
          "indexed": false,
          "internalType": "string",
          "name": "value",
          "type": "string"
        },
        {
          "indexed": true,
          "internalType": "uint256",
          "name": "id",
          "type": "uint256"
        }
      ],
      "name": "URI",
      "type": "event"
    },
    {
      "anonymous": false,
      "inputs": [
        {
          "indexed": false,
          "internalType": "uint256",
          "name": "id",
          "type": "uint256"
        },
        {
          "indexed": false,
          "internalType": "uint256",
          "name": "amount",
          "type": "uint256"
        }
      ],
      "name": "positionCreated",
      "type": "event"
    },
    {
      "inputs": [],
      "name": "Book",
      "outputs": [
        {
          "internalType": "address",
          "name": "",
          "type": "address"
        }
      ],
      "stateMutability": "view",
      "type": "function"
    },
    {
      "inputs": [],
      "name": "NO",
      "outputs": [
        {
          "internalType": "uint256",
          "name": "",
          "type": "uint256"
        }
      ],
      "stateMutability": "view",
      "type": "function"
    },
    {
      "inputs": [],
      "name": "YES",
      "outputs": [
        {
          "internalType": "uint256",
          "name": "",
          "type": "uint256"
        }
      ],
      "stateMutability": "view",
      "type": "function"
    },
    {
      "inputs": [
        {
          "internalType": "address",
          "name": "account",
          "type": "address"
        },
        {
          "internalType": "uint256",
          "name": "id",
          "type": "uint256"
        }
      ],
      "name": "balanceOf",
      "outputs": [
        {
          "internalType": "uint256",
          "name": "",
          "type": "uint256"
        }
      ],
      "stateMutability": "view",
      "type": "function"
    },
    {
      "inputs": [
        {
          "internalType": "address[]",
          "name": "accounts",
          "type": "address[]"
        },
        {
          "internalType": "uint256[]",
          "name": "ids",
          "type": "uint256[]"
        }
      ],
      "name": "balanceOfBatch",
      "outputs": [
        {
          "internalType": "uint256[]",
          "name": "",
          "type": "uint256[]"
        }
      ],
      "stateMutability": "view",
      "type": "function"
    },
    {
      "inputs": [
        {
          "internalType": "address",
          "name": "account",
          "type": "address"
        },
        {
          "internalType": "uint256",
          "name": "id",
          "type": "uint256"
        },
        {
          "internalType": "uint256",
          "name": "value",
          "type": "uint256"
        }
      ],
      "name": "burn",
      "outputs": [],
      "stateMutability": "nonpayable",
      "type": "function"
    },
    {
      "inputs": [
        {
          "internalType": "address",
          "name": "account",
          "type": "address"
        },
        {
          "internalType": "uint256[]",
          "name": "ids",
          "type": "uint256[]"
        },
        {
          "internalType": "uint256[]",
          "name": "values",
          "type": "uint256[]"
        }
      ],
      "name": "burnBatch",
      "outputs": [],
      "stateMutability": "nonpayable",
      "type": "function"
    },
    {
      "inputs": [],
      "name": "cashOut",
      "outputs": [],
      "stateMutability": "nonpayable",
      "type": "function"
    },
    {
      "inputs": [],
      "name": "closingDate",
      "outputs": [
        {
          "internalType": "uint256",
          "name": "",
          "type": "uint256"
        }
      ],
      "stateMutability": "view",
      "type": "function"
    },
    {
      "inputs": [
        {
          "internalType": "uint256",
          "name": "id",
          "type": "uint256"
        }
      ],
      "name": "exists",
      "outputs": [
        {
          "internalType": "bool",
          "name": "",
          "type": "bool"
        }
      ],
      "stateMutability": "view",
      "type": "function"
    },
    {
      "inputs": [],
      "name": "favored",
      "outputs": [
        {
          "internalType": "bool",
          "name": "",
          "type": "bool"
        }
      ],
      "stateMutability": "view",
      "type": "function"
    },
    {
      "inputs": [],
      "name": "feeCollector",
      "outputs": [
        {
          "internalType": "address",
          "name": "",
          "type": "address"
        }
      ],
      "stateMutability": "view",
      "type": "function"
    },
    {
      "inputs": [],
      "name": "fetched",
      "outputs": [
        {
          "internalType": "bool",
          "name": "",
          "type": "bool"
        }
      ],
      "stateMutability": "view",
      "type": "function"
    },
    {
      "inputs": [],
      "name": "getData",
      "outputs": [],
      "stateMutability": "nonpayable",
      "type": "function"
    },
    {
      "inputs": [
        {
          "internalType": "uint256",
          "name": "_predictionPrice",
          "type": "uint256"
        },
        {
          "internalType": "address",
          "name": "_oracleFeed",
          "type": "address"
        },
        {
          "internalType": "uint256",
          "name": "_closingDate",
          "type": "uint256"
        },
        {
          "internalType": "string",
          "name": "_sku",
          "type": "string"
        },
        {
          "internalType": "address",
          "name": "_Book",
          "type": "address"
        }
      ],
      "name": "initialize",
      "outputs": [],
      "stateMutability": "nonpayable",
      "type": "function"
    },
    {
      "inputs": [
        {
          "internalType": "address",
          "name": "account",
          "type": "address"
        },
        {
          "internalType": "address",
          "name": "operator",
          "type": "address"
        }
      ],
      "name": "isApprovedForAll",
      "outputs": [
        {
          "internalType": "bool",
          "name": "",
          "type": "bool"
        }
      ],
      "stateMutability": "view",
      "type": "function"
    },
    {
      "inputs": [
        {
          "internalType": "uint256",
          "name": "id",
          "type": "uint256"
        },
        {
          "internalType": "uint256",
          "name": "amount",
          "type": "uint256"
        }
      ],
      "name": "mint",
      "outputs": [],
      "stateMutability": "nonpayable",
      "type": "function"
    },
    {
      "inputs": [],
      "name": "owner",
      "outputs": [
        {
          "internalType": "address",
          "name": "",
          "type": "address"
        }
      ],
      "stateMutability": "view",
      "type": "function"
    },
    {
      "inputs": [],
      "name": "predictionPrice",
      "outputs": [
        {
          "internalType": "uint256",
          "name": "",
          "type": "uint256"
        }
      ],
      "stateMutability": "view",
      "type": "function"
    },
    {
      "inputs": [],
      "name": "priceOfNo",
      "outputs": [
        {
          "internalType": "uint256",
          "name": "",
          "type": "uint256"
        }
      ],
      "stateMutability": "view",
      "type": "function"
    },
    {
      "inputs": [],
      "name": "priceOfYes",
      "outputs": [
        {
          "internalType": "uint256",
          "name": "",
          "type": "uint256"
        }
      ],
      "stateMutability": "view",
      "type": "function"
    },
    {
      "inputs": [],
      "name": "renounceOwnership",
      "outputs": [],
      "stateMutability": "nonpayable",
      "type": "function"
    },
    {
      "inputs": [],
      "name": "resolveAssetPrice",
      "outputs": [],
      "stateMutability": "nonpayable",
      "type": "function"
    },
    {
      "inputs": [],
      "name": "resolved",
      "outputs": [
        {
          "internalType": "bool",
          "name": "",
          "type": "bool"
        }
      ],
      "stateMutability": "view",
      "type": "function"
    },
    {
      "inputs": [
        {
          "internalType": "address",
          "name": "from",
          "type": "address"
        },
        {
          "internalType": "address",
          "name": "to",
          "type": "address"
        },
        {
          "internalType": "uint256[]",
          "name": "ids",
          "type": "uint256[]"
        },
        {
          "internalType": "uint256[]",
          "name": "amounts",
          "type": "uint256[]"
        },
        {
          "internalType": "bytes",
          "name": "data",
          "type": "bytes"
        }
      ],
      "name": "safeBatchTransferFrom",
      "outputs": [],
      "stateMutability": "nonpayable",
      "type": "function"
    },
    {
      "inputs": [
        {
          "internalType": "address",
          "name": "from",
          "type": "address"
        },
        {
          "internalType": "address",
          "name": "to",
          "type": "address"
        },
        {
          "internalType": "uint256",
          "name": "id",
          "type": "uint256"
        },
        {
          "internalType": "uint256",
          "name": "amount",
          "type": "uint256"
        },
        {
          "internalType": "bytes",
          "name": "data",
          "type": "bytes"
        }
      ],
      "name": "safeTransferFrom",
      "outputs": [],
      "stateMutability": "nonpayable",
      "type": "function"
    },
    {
      "inputs": [
        {
          "internalType": "address",
          "name": "operator",
          "type": "address"
        },
        {
          "internalType": "bool",
          "name": "approved",
          "type": "bool"
        }
      ],
      "name": "setApprovalForAll",
      "outputs": [],
      "stateMutability": "nonpayable",
      "type": "function"
    },
    {
      "inputs": [
        {
          "internalType": "string",
          "name": "newuri",
          "type": "string"
        }
      ],
      "name": "setURI",
      "outputs": [],
      "stateMutability": "nonpayable",
      "type": "function"
    },
    {
      "inputs": [],
      "name": "sku",
      "outputs": [
        {
          "internalType": "string",
          "name": "",
          "type": "string"
        }
      ],
      "stateMutability": "view",
      "type": "function"
    },
    {
      "inputs": [
        {
          "internalType": "bytes4",
          "name": "interfaceId",
          "type": "bytes4"
        }
      ],
      "name": "supportsInterface",
      "outputs": [
        {
          "internalType": "bool",
          "name": "",
          "type": "bool"
        }
      ],
      "stateMutability": "view",
      "type": "function"
    },
    {
      "inputs": [
        {
          "internalType": "uint256",
          "name": "id",
          "type": "uint256"
        }
      ],
      "name": "totalSupply",
      "outputs": [
        {
          "internalType": "uint256",
          "name": "",
          "type": "uint256"
        }
      ],
      "stateMutability": "view",
      "type": "function"
    },
    {
      "inputs": [
        {
          "internalType": "address",
          "name": "newOwner",
          "type": "address"
        }
      ],
      "name": "transferOwnership",
      "outputs": [],
      "stateMutability": "nonpayable",
      "type": "function"
    },
    {
      "inputs": [
        {
          "internalType": "uint256",
          "name": "",
          "type": "uint256"
        }
      ],
      "name": "uri",
      "outputs": [
        {
          "internalType": "string",
          "name": "",
          "type": "string"
        }
      ],
      "stateMutability": "view",
      "type": "function"
    }
  ],
  "bytecode": "0x60806040526008805460ff60b01b19169055426009553480156200002257600080fd5b50604051620039c3380380620039c38339810160408190526200004591620006c9565b816200005181620000cd565b506200005d33620000df565b6200008130600180604051806020016040528060008152506200013160201b60201c565b620000a63060026001604051806020016040528060008152506200013160201b60201c565b600f80546001600160a01b0319166001600160a01b03929092169190911790555062000ab3565b6002620000db82826200081a565b5050565b600380546001600160a01b038381166001600160a01b0319831681179093556040519116919082907f8be0079c531659141344cd1fd0a4f28419497f9722a3daafe3b4186f6b6457e090600090a35050565b6001600160a01b038416620001975760405162461bcd60e51b815260206004820152602160248201527f455243313135353a206d696e7420746f20746865207a65726f206164647265736044820152607360f81b60648201526084015b60405180910390fd5b336000620001a58562000264565b90506000620001b48562000264565b9050620001c783600089858589620002b2565b6000868152602081815260408083206001600160a01b038b16845290915281208054879290620001f9908490620008fc565b909155505060408051878152602081018790526001600160a01b03808a1692600092918716917fc3d58168c5ae7397731d063d5bbf3d657854427343f4c083240f7aacaa2d0f62910160405180910390a46200025b83600089898989620002d5565b50505050505050565b60408051600180825281830190925260609160009190602080830190803683370190505090508281600081518110620002a157620002a162000918565b602090810291909101015292915050565b620002cd868686868686620004a160201b620011f61760201c565b505050505050565b620002f4846001600160a01b03166200064f60201b6200138e1760201c565b15620002cd5760405163f23a6e6160e01b81526001600160a01b0385169063f23a6e61906200033090899089908890889088906004016200095c565b6020604051808303816000875af19250505080156200036e575060408051601f3d908101601f191682019092526200036b91810190620009a3565b60015b6200042e576200037d620009d6565b806308c379a003620003bd575062000394620009f3565b80620003a15750620003bf565b8060405162461bcd60e51b81526004016200018e919062000a82565b505b60405162461bcd60e51b815260206004820152603460248201527f455243313135353a207472616e7366657220746f206e6f6e204552433131353560448201527f526563656976657220696d706c656d656e74657200000000000000000000000060648201526084016200018e565b6001600160e01b0319811663f23a6e6160e01b146200025b5760405162461bcd60e51b815260206004820152602860248201527f455243313135353a204552433131353552656365697665722072656a656374656044820152676420746f6b656e7360c01b60648201526084016200018e565b620004bc868686868686620002cd60201b620013861760201c565b6001600160a01b038516620005505760005b83518110156200054e57828181518110620004ed57620004ed62000918565b6020026020010151600460008684815181106200050e576200050e62000918565b602002602001015181526020019081526020016000206000828254620005359190620008fc565b909155506200054690508162000a97565b9050620004ce565b505b6001600160a01b038416620002cd5760005b83518110156200025b57600084828151811062000583576200058362000918565b602002602001015190506000848381518110620005a457620005a462000918565b6020026020010151905060006004600084815260200190815260200160002054905081811015620006295760405162461bcd60e51b815260206004820152602860248201527f455243313135353a206275726e20616d6f756e74206578636565647320746f74604482015267616c537570706c7960c01b60648201526084016200018e565b60009283526004602052604090922091039055620006478162000a97565b905062000562565b6001600160a01b03163b151590565b634e487b7160e01b600052604160045260246000fd5b601f8201601f191681016001600160401b03811182821017156200069c576200069c6200065e565b6040525050565b60005b83811015620006c0578181015183820152602001620006a6565b50506000910152565b60008060408385031215620006dd57600080fd5b82516001600160401b0380821115620006f557600080fd5b818501915085601f8301126200070a57600080fd5b8151818111156200071f576200071f6200065e565b60405191506200073a601f8201601f19166020018362000674565b8082528660208285010111156200075057600080fd5b62000763816020840160208601620006a3565b50602085015190935090506001600160a01b03811681146200078457600080fd5b809150509250929050565b600181811c90821680620007a457607f821691505b602082108103620007c557634e487b7160e01b600052602260045260246000fd5b50919050565b601f8211156200081557600081815260208120601f850160051c81016020861015620007f45750805b601f850160051c820191505b81811015620002cd5782815560010162000800565b505050565b81516001600160401b038111156200083657620008366200065e565b6200084e816200084784546200078f565b84620007cb565b602080601f8311600181146200088657600084156200086d5750858301515b600019600386901b1c1916600185901b178555620002cd565b600085815260208120601f198616915b82811015620008b75788860151825594840194600190910190840162000896565b5085821015620008d65787850151600019600388901b60f8161c191681555b5050505050600190811b01905550565b634e487b7160e01b600052601160045260246000fd5b80820180821115620009125762000912620008e6565b92915050565b634e487b7160e01b600052603260045260246000fd5b6000815180845262000948816020860160208601620006a3565b601f01601f19169290920160200192915050565b6001600160a01b03868116825285166020820152604081018490526060810183905260a06080820181905260009062000998908301846200092e565b979650505050505050565b600060208284031215620009b657600080fd5b81516001600160e01b031981168114620009cf57600080fd5b9392505050565b600060033d1115620009f05760046000803e5060005160e01c5b90565b600060443d101562000a025790565b6040516003193d81016004833e81513d6001600160401b03808311602484018310171562000a3257505050505090565b828501915081518181111562000a4b5750505050505090565b843d870101602082850101111562000a665750505050505090565b62000a776020828601018762000674565b509095945050505050565b602081526000620009cf60208301846200092e565b60006001820162000aac5762000aac620008e6565b5060010190565b612f008062000ac36000396000f3fe608060405234801561001057600080fd5b506004361061020a5760003560e01c80636b20c4541161012a578063bd85b039116100bd578063e985e9c51161008c578063f2fde38b11610071578063f2fde38b14610472578063f5298aca14610485578063f6880ec71461049857600080fd5b8063e985e9c514610423578063f242432a1461045f57600080fd5b8063bd85b039146103c9578063c415b95c146103e9578063caedcd89146103fc578063d1aa65fa1461041057600080fd5b80639eae0c4c116100f95780639eae0c4c1461039d578063a22cb465146103a5578063a628828f146103b8578063b2449d65146103c157600080fd5b80636b20c45414610369578063715018a61461037c578063793cd71e146103845780638da5cb5b1461038c57600080fd5b80632eb2c2d6116101a25780634ad4c538116101715780634ad4c538146102f35780634e1273f41461031e5780634f558e791461033e578063530603761461036057600080fd5b80632eb2c2d6146102c35780633bc5de30146102d65780633f6fa655146102de5780634462f40c146102eb57600080fd5b806306311394116101de578063063113941461027f5780630d483442146102885780630e89341c146102905780631b2ef1ca146102b057600080fd5b8062fdd58e1461020f57806301ffc9a71461023557806302fe530514610258578063039491df1461026d575b600080fd5b61022261021d3660046124c8565b6104a1565b6040519081526020015b60405180910390f35b610248610243366004612508565b61054d565b604051901515815260200161022c565b61026b6102663660046125dc565b6105e8565b005b60085461024890610100900460ff1681565b61022260065481565b610222600281565b6102a361029e366004612611565b6105fc565b60405161022c919061267a565b61026b6102be36600461268d565b610690565b61026b6102d1366004612744565b610905565b61026b610999565b6008546102489060ff1681565b6102a3610a4f565b600d54610306906001600160a01b031681565b6040516001600160a01b03909116815260200161022c565b61033161032c3660046127ee565b610add565b60405161022c91906128f4565b61024861034c366004612611565b600090815260046020526040902054151590565b610222600b5481565b61026b610377366004612907565b610c1b565b61026b610cab565b61026b610cbf565b6003546001600160a01b0316610306565b61026b610f01565b61026b6103b3366004612989565b610fb8565b610222600a5481565b610222600181565b6102226103d7366004612611565b60009081526004602052604090205490565b600554610306906001600160a01b031681565b60085461024890600160b01b900460ff1681565b61026b61041e3660046129c0565b610fc7565b610248610431366004612a32565b6001600160a01b03918216600090815260016020908152604080832093909416825291909152205460ff1690565b61026b61046d366004612a65565b611051565b61026b610480366004612aca565b6110de565b61026b610493366004612ae5565b61116b565b610222600c5481565b60006001600160a01b0383166105245760405162461bcd60e51b815260206004820152602a60248201527f455243313135353a2061646472657373207a65726f206973206e6f742061207660448201527f616c6964206f776e65720000000000000000000000000000000000000000000060648201526084015b60405180910390fd5b506000818152602081815260408083206001600160a01b03861684529091529020545b92915050565b60006001600160e01b031982167fd9b67a260000000000000000000000000000000000000000000000000000000014806105b057506001600160e01b031982167f0e89341c00000000000000000000000000000000000000000000000000000000145b8061054757507f01ffc9a7000000000000000000000000000000000000000000000000000000006001600160e01b0319831614610547565b6105f061139d565b6105f9816113f7565b50565b60606002805461060b90612b18565b80601f016020809104026020016040519081016040528092919081815260200182805461063790612b18565b80156106845780601f1061065957610100808354040283529160200191610684565b820191906000526020600020905b81548152906001019060200180831161066757829003601f168201915b50505050509050919050565b81158015906106a0575060028211155b6106ec5760405162461bcd60e51b815260206004820152600a60248201527f496e76616c696420494400000000000000000000000000000000000000000000604482015260640161051b565b60046020527f91da3fd0782e51c6b3986e9e672fd566868e71f3dbc2d6c2cd6fbb3e361af2a754600160009081527fabd6e7cb50984ff9c2f3e18a2660c3353dadf4e3291deeb275dae2cd1e44fe055490916107939161074c9190612b68565b600260005260046020527f91da3fd0782e51c6b3986e9e672fd566868e71f3dbc2d6c2cd6fbb3e361af2a75461078d90670de0b6b3a7640000905b90611403565b90611416565b600b5560046020527f91da3fd0782e51c6b3986e9e672fd566868e71f3dbc2d6c2cd6fbb3e361af2a75460016000527fabd6e7cb50984ff9c2f3e18a2660c3353dadf4e3291deeb275dae2cd1e44fe0554610830916107f191612b68565b600160005260046020527fabd6e7cb50984ff9c2f3e18a2660c3353dadf4e3291deeb275dae2cd1e44fe055461078d90670de0b6b3a764000090610787565b600c55600183900361088457600c546108499083611403565b600f54909150610864906001600160a01b0316333084611422565b61087f338484604051806020016040528060008152506114aa565b6108c7565b600b546108919083611403565b600f549091506108ac906001600160a01b0316333084611422565b6108c7338484604051806020016040528060008152506114aa565b60408051848152602081018490527f3923a82cb620a1af3ec9322d3347e92e90f81f20cef82079a61145417437251a910160405180910390a1505050565b6001600160a01b03851633148061092157506109218533610431565b6109855760405162461bcd60e51b815260206004820152602f60248201527f455243313135353a2063616c6c6572206973206e6f7420746f6b656e206f776e60448201526e195c881b9bdc88185c1c1c9bdd9959608a1b606482015260840161051b565b61099285858585856115e0565b5050505050565b6109a161139d565b600860029054906101000a90046001600160a01b03166001600160a01b0316631604f9ea6040518163ffffffff1660e01b81526004016020604051808303816000875af11580156109f6573d6000803e3d6000fd5b505050506040513d601f19601f82011682018060405250810190610a1a9190612b7b565b50600880547fffffffffffffffffff00ffffffffffffffffffffffffffffffffffffffffffff16600160b01b17905542600755565b600e8054610a5c90612b18565b80601f0160208091040260200160405190810160405280929190818152602001828054610a8890612b18565b8015610ad55780601f10610aaa57610100808354040283529160200191610ad5565b820191906000526020600020905b815481529060010190602001808311610ab857829003601f168201915b505050505081565b60608151835114610b565760405162461bcd60e51b815260206004820152602960248201527f455243313135353a206163636f756e747320616e6420696473206c656e67746860448201527f206d69736d617463680000000000000000000000000000000000000000000000606482015260840161051b565b6000835167ffffffffffffffff811115610b7257610b72612525565b604051908082528060200260200182016040528015610b9b578160200160208202803683370190505b50905060005b8451811015610c1357610be6858281518110610bbf57610bbf612b94565b6020026020010151858381518110610bd957610bd9612b94565b60200260200101516104a1565b828281518110610bf857610bf8612b94565b6020908102919091010152610c0c81612baa565b9050610ba1565b509392505050565b6001600160a01b038316331480610c375750610c378333610431565b610c9b5760405162461bcd60e51b815260206004820152602f60248201527f455243313135353a2063616c6c6572206973206e6f7420746f6b656e206f776e60448201526e195c881b9bdc88185c1c1c9bdd9959608a1b606482015260840161051b565b610ca6838383611844565b505050565b610cb361139d565b610cbd6000611a99565b565b60085460ff161515600114610d165760405162461bcd60e51b815260206004820152601460248201527f44617461206e6f74206665746368656420796574000000000000000000000000604482015260640161051b565b600854610100900460ff161515600103610eaa576000610d373360016104a1565b6001600090815260046020527fabd6e7cb50984ff9c2f3e18a2660c3353dadf4e3291deeb275dae2cd1e44fe055491925090610d739083612bc3565b9050610d8133600184611af8565b600f546040517f70a0823100000000000000000000000000000000000000000000000000000000815230600482015260009183916001600160a01b03909116906370a0823190602401602060405180830381865afa158015610de7573d6000803e3d6000fd5b505050506040513d601f19601f82011682018060405250810190610e0b9190612b7b565b610e159190612bc3565b600f546040517fa9059cbb000000000000000000000000000000000000000000000000000000008152336004820152602481018390529192506001600160a01b03169063a9059cbb906044016020604051808303816000875af1158015610e80573d6000803e3d6000fd5b505050506040513d601f19601f82011682018060405250810190610ea49190612be5565b50505050565b6000610eb73360026104a1565b6002600090815260046020527f91da3fd0782e51c6b3986e9e672fd566868e71f3dbc2d6c2cd6fbb3e361af2a75491925090610ef39083612bc3565b9050610d8133600284611af8565b610f0961139d565b600860029054906101000a90046001600160a01b03166001600160a01b031663a035b1fe6040518163ffffffff1660e01b8152600401602060405180830381865afa158015610f5c573d6000803e3d6000fd5b505050506040513d601f19601f82011682018060405250810190610f809190612b7b565b6006541115610f9d576008805461ff001916610100179055610fa9565b6008805461ff00191690555b6008805460ff19166001179055565b610fc3338383611c88565b5050565b610fcf61139d565b600a839055600880547fffffffffffffffffffff0000000000000000000000000000000000000000ffff16620100006001600160a01b038716021790556006859055600e61101d8382612c48565b50600d805473ffffffffffffffffffffffffffffffffffffffff19166001600160a01b039290921691909117905550505050565b6001600160a01b03851633148061106d575061106d8533610431565b6110d15760405162461bcd60e51b815260206004820152602f60248201527f455243313135353a2063616c6c6572206973206e6f7420746f6b656e206f776e60448201526e195c881b9bdc88185c1c1c9bdd9959608a1b606482015260840161051b565b6109928585858585611d7c565b6110e661139d565b6001600160a01b0381166111625760405162461bcd60e51b815260206004820152602660248201527f4f776e61626c653a206e6577206f776e657220697320746865207a65726f206160448201527f6464726573730000000000000000000000000000000000000000000000000000606482015260840161051b565b6105f981611a99565b6001600160a01b03831633148061118757506111878333610431565b6111eb5760405162461bcd60e51b815260206004820152602f60248201527f455243313135353a2063616c6c6572206973206e6f7420746f6b656e206f776e60448201526e195c881b9bdc88185c1c1c9bdd9959608a1b606482015260840161051b565b610ca6838383611af8565b6001600160a01b03851661127d5760005b835181101561127b5782818151811061122257611222612b94565b60200260200101516004600086848151811061124057611240612b94565b6020026020010151815260200190815260200160002060008282546112659190612b68565b90915550611274905081612baa565b9050611207565b505b6001600160a01b0384166113865760005b83518110156113845760008482815181106112ab576112ab612b94565b6020026020010151905060008483815181106112c9576112c9612b94565b60200260200101519050600060046000848152602001908152602001600020549050818110156113615760405162461bcd60e51b815260206004820152602860248201527f455243313135353a206275726e20616d6f756e74206578636565647320746f7460448201527f616c537570706c79000000000000000000000000000000000000000000000000606482015260840161051b565b6000928352600460205260409092209103905561137d81612baa565b905061128e565b505b505050505050565b6001600160a01b03163b151590565b6003546001600160a01b03163314610cbd5760405162461bcd60e51b815260206004820181905260248201527f4f776e61626c653a2063616c6c6572206973206e6f7420746865206f776e6572604482015260640161051b565b6002610fc38282612c48565b600061140f8284612d08565b9392505050565b600061140f8284612bc3565b604080516001600160a01b0385811660248301528416604482015260648082018490528251808303909101815260849091019091526020810180517bffffffffffffffffffffffffffffffffffffffffffffffffffffffff167f23b872dd00000000000000000000000000000000000000000000000000000000179052610ea4908590611f35565b6001600160a01b0384166115265760405162461bcd60e51b815260206004820152602160248201527f455243313135353a206d696e7420746f20746865207a65726f2061646472657360448201527f7300000000000000000000000000000000000000000000000000000000000000606482015260840161051b565b3360006115328561201a565b9050600061153f8561201a565b905061155083600089858589612065565b6000868152602081815260408083206001600160a01b038b16845290915281208054879290611580908490612b68565b909155505060408051878152602081018790526001600160a01b03808a1692600092918716917fc3d58168c5ae7397731d063d5bbf3d657854427343f4c083240f7aacaa2d0f62910160405180910390a461138483600089898989612073565b81518351146116425760405162461bcd60e51b815260206004820152602860248201527f455243313135353a2069647320616e6420616d6f756e7473206c656e677468206044820152670dad2e6dac2e8c6d60c31b606482015260840161051b565b6001600160a01b0384166116a65760405162461bcd60e51b815260206004820152602560248201527f455243313135353a207472616e7366657220746f20746865207a65726f206164604482015264647265737360d81b606482015260840161051b565b336116b5818787878787612065565b60005b84518110156117de5760008582815181106116d5576116d5612b94565b6020026020010151905060008583815181106116f3576116f3612b94565b602090810291909101810151600084815280835260408082206001600160a01b038e1683529093529190912054909150818110156117865760405162461bcd60e51b815260206004820152602a60248201527f455243313135353a20696e73756666696369656e742062616c616e636520666f60448201526939103a3930b739b332b960b11b606482015260840161051b565b6000838152602081815260408083206001600160a01b038e8116855292528083208585039055908b168252812080548492906117c3908490612b68565b92505081905550505050806117d790612baa565b90506116b8565b50846001600160a01b0316866001600160a01b0316826001600160a01b03167f4a39dc06d4c0dbc64b70af90fd698a233a518aa5d07e595d983b8c0526c8f7fb878760405161182e929190612d27565b60405180910390a4611386818787878787612218565b6001600160a01b0383166118a65760405162461bcd60e51b815260206004820152602360248201527f455243313135353a206275726e2066726f6d20746865207a65726f206164647260448201526265737360e81b606482015260840161051b565b80518251146119085760405162461bcd60e51b815260206004820152602860248201527f455243313135353a2069647320616e6420616d6f756e7473206c656e677468206044820152670dad2e6dac2e8c6d60c31b606482015260840161051b565b600033905061192b81856000868660405180602001604052806000815250612065565b60005b8351811015611a2c57600084828151811061194b5761194b612b94565b60200260200101519050600084838151811061196957611969612b94565b602090810291909101810151600084815280835260408082206001600160a01b038c1683529093529190912054909150818110156119f55760405162461bcd60e51b8152602060048201526024808201527f455243313135353a206275726e20616d6f756e7420657863656564732062616c604482015263616e636560e01b606482015260840161051b565b6000928352602083815260408085206001600160a01b038b1686529091529092209103905580611a2481612baa565b91505061192e565b5060006001600160a01b0316846001600160a01b0316826001600160a01b03167f4a39dc06d4c0dbc64b70af90fd698a233a518aa5d07e595d983b8c0526c8f7fb8686604051611a7d929190612d27565b60405180910390a4604080516020810190915260009052610ea4565b600380546001600160a01b0383811673ffffffffffffffffffffffffffffffffffffffff19831681179093556040519116919082907f8be0079c531659141344cd1fd0a4f28419497f9722a3daafe3b4186f6b6457e090600090a35050565b6001600160a01b038316611b5a5760405162461bcd60e51b815260206004820152602360248201527f455243313135353a206275726e2066726f6d20746865207a65726f206164647260448201526265737360e81b606482015260840161051b565b336000611b668461201a565b90506000611b738461201a565b9050611b9383876000858560405180602001604052806000815250612065565b6000858152602081815260408083206001600160a01b038a16845290915290205484811015611c105760405162461bcd60e51b8152602060048201526024808201527f455243313135353a206275726e20616d6f756e7420657863656564732062616c604482015263616e636560e01b606482015260840161051b565b6000868152602081815260408083206001600160a01b038b81168086529184528285208a8703905582518b81529384018a90529092908816917fc3d58168c5ae7397731d063d5bbf3d657854427343f4c083240f7aacaa2d0f62910160405180910390a4604080516020810190915260009052611384565b816001600160a01b0316836001600160a01b031603611d0f5760405162461bcd60e51b815260206004820152602960248201527f455243313135353a2073657474696e6720617070726f76616c2073746174757360448201527f20666f722073656c660000000000000000000000000000000000000000000000606482015260840161051b565b6001600160a01b03838116600081815260016020908152604080832094871680845294825291829020805460ff191686151590811790915591519182527f17307eab39ab6107e8899845ad3d59bd9653f200f220920489ca2b5937696c31910160405180910390a3505050565b6001600160a01b038416611de05760405162461bcd60e51b815260206004820152602560248201527f455243313135353a207472616e7366657220746f20746865207a65726f206164604482015264647265737360d81b606482015260840161051b565b336000611dec8561201a565b90506000611df98561201a565b9050611e09838989858589612065565b6000868152602081815260408083206001600160a01b038c16845290915290205485811015611e8d5760405162461bcd60e51b815260206004820152602a60248201527f455243313135353a20696e73756666696369656e742062616c616e636520666f60448201526939103a3930b739b332b960b11b606482015260840161051b565b6000878152602081815260408083206001600160a01b038d8116855292528083208985039055908a16825281208054889290611eca908490612b68565b909155505060408051888152602081018890526001600160a01b03808b16928c821692918816917fc3d58168c5ae7397731d063d5bbf3d657854427343f4c083240f7aacaa2d0f62910160405180910390a4611f2a848a8a8a8a8a612073565b505050505050505050565b6000611f8a826040518060400160405280602081526020017f5361666545524332303a206c6f772d6c6576656c2063616c6c206661696c6564815250856001600160a01b03166123149092919063ffffffff16565b805190915015610ca65780806020019051810190611fa89190612be5565b610ca65760405162461bcd60e51b815260206004820152602a60248201527f5361666545524332303a204552433230206f7065726174696f6e20646964206e60448201527f6f74207375636365656400000000000000000000000000000000000000000000606482015260840161051b565b6040805160018082528183019092526060916000919060208083019080368337019050509050828160008151811061205457612054612b94565b602090810291909101015292915050565b6113868686868686866111f6565b6001600160a01b0384163b156113865760405163f23a6e6160e01b81526001600160a01b0385169063f23a6e61906120b79089908990889088908890600401612d55565b6020604051808303816000875af19250505080156120f2575060408051601f3d908101601f191682019092526120ef91810190612d8d565b60015b6121a7576120fe612daa565b806308c379a0036121375750612112612dc6565b8061211d5750612139565b8060405162461bcd60e51b815260040161051b919061267a565b505b60405162461bcd60e51b815260206004820152603460248201527f455243313135353a207472616e7366657220746f206e6f6e204552433131353560448201527f526563656976657220696d706c656d656e746572000000000000000000000000606482015260840161051b565b6001600160e01b0319811663f23a6e6160e01b146113845760405162461bcd60e51b815260206004820152602860248201527f455243313135353a204552433131353552656365697665722072656a656374656044820152676420746f6b656e7360c01b606482015260840161051b565b6001600160a01b0384163b156113865760405163bc197c8160e01b81526001600160a01b0385169063bc197c819061225c9089908990889088908890600401612e50565b6020604051808303816000875af1925050508015612297575060408051601f3d908101601f1916820190925261229491810190612d8d565b60015b6122a3576120fe612daa565b6001600160e01b0319811663bc197c8160e01b146113845760405162461bcd60e51b815260206004820152602860248201527f455243313135353a204552433131353552656365697665722072656a656374656044820152676420746f6b656e7360c01b606482015260840161051b565b6060612323848460008561232b565b949350505050565b6060824710156123a35760405162461bcd60e51b815260206004820152602660248201527f416464726573733a20696e73756666696369656e742062616c616e636520666f60448201527f722063616c6c0000000000000000000000000000000000000000000000000000606482015260840161051b565b6001600160a01b0385163b6123fa5760405162461bcd60e51b815260206004820152601d60248201527f416464726573733a2063616c6c20746f206e6f6e2d636f6e7472616374000000604482015260640161051b565b600080866001600160a01b031685876040516124169190612eae565b60006040518083038185875af1925050503d8060008114612453576040519150601f19603f3d011682016040523d82523d6000602084013e612458565b606091505b5091509150612468828286612473565b979650505050505050565b6060831561248257508161140f565b8251156124925782518084602001fd5b8160405162461bcd60e51b815260040161051b919061267a565b80356001600160a01b03811681146124c357600080fd5b919050565b600080604083850312156124db57600080fd5b6124e4836124ac565b946020939093013593505050565b6001600160e01b0319811681146105f957600080fd5b60006020828403121561251a57600080fd5b813561140f816124f2565b634e487b7160e01b600052604160045260246000fd5b601f8201601f1916810167ffffffffffffffff8111828210171561256157612561612525565b6040525050565b600082601f83011261257957600080fd5b813567ffffffffffffffff81111561259357612593612525565b6040516125aa601f8301601f19166020018261253b565b8181528460208386010111156125bf57600080fd5b816020850160208301376000918101602001919091529392505050565b6000602082840312156125ee57600080fd5b813567ffffffffffffffff81111561260557600080fd5b61232384828501612568565b60006020828403121561262357600080fd5b5035919050565b60005b8381101561264557818101518382015260200161262d565b50506000910152565b6000815180845261266681602086016020860161262a565b601f01601f19169290920160200192915050565b60208152600061140f602083018461264e565b600080604083850312156126a057600080fd5b50508035926020909101359150565b600067ffffffffffffffff8211156126c9576126c9612525565b5060051b60200190565b600082601f8301126126e457600080fd5b813560206126f1826126af565b6040516126fe828261253b565b83815260059390931b850182019282810191508684111561271e57600080fd5b8286015b848110156127395780358352918301918301612722565b509695505050505050565b600080600080600060a0868803121561275c57600080fd5b612765866124ac565b9450612773602087016124ac565b9350604086013567ffffffffffffffff8082111561279057600080fd5b61279c89838a016126d3565b945060608801359150808211156127b257600080fd5b6127be89838a016126d3565b935060808801359150808211156127d457600080fd5b506127e188828901612568565b9150509295509295909350565b6000806040838503121561280157600080fd5b823567ffffffffffffffff8082111561281957600080fd5b818501915085601f83011261282d57600080fd5b8135602061283a826126af565b604051612847828261253b565b83815260059390931b850182019282810191508984111561286757600080fd5b948201945b8386101561288c5761287d866124ac565b8252948201949082019061286c565b965050860135925050808211156128a257600080fd5b506128af858286016126d3565b9150509250929050565b600081518084526020808501945080840160005b838110156128e9578151875295820195908201906001016128cd565b509495945050505050565b60208152600061140f60208301846128b9565b60008060006060848603121561291c57600080fd5b612925846124ac565b9250602084013567ffffffffffffffff8082111561294257600080fd5b61294e878388016126d3565b9350604086013591508082111561296457600080fd5b50612971868287016126d3565b9150509250925092565b80151581146105f957600080fd5b6000806040838503121561299c57600080fd5b6129a5836124ac565b915060208301356129b58161297b565b809150509250929050565b600080600080600060a086880312156129d857600080fd5b853594506129e8602087016124ac565b935060408601359250606086013567ffffffffffffffff811115612a0b57600080fd5b612a1788828901612568565b925050612a26608087016124ac565b90509295509295909350565b60008060408385031215612a4557600080fd5b612a4e836124ac565b9150612a5c602084016124ac565b90509250929050565b600080600080600060a08688031215612a7d57600080fd5b612a86866124ac565b9450612a94602087016124ac565b93506040860135925060608601359150608086013567ffffffffffffffff811115612abe57600080fd5b6127e188828901612568565b600060208284031215612adc57600080fd5b61140f826124ac565b600080600060608486031215612afa57600080fd5b612b03846124ac565b95602085013595506040909401359392505050565b600181811c90821680612b2c57607f821691505b602082108103612b4c57634e487b7160e01b600052602260045260246000fd5b50919050565b634e487b7160e01b600052601160045260246000fd5b8082018082111561054757610547612b52565b600060208284031215612b8d57600080fd5b5051919050565b634e487b7160e01b600052603260045260246000fd5b600060018201612bbc57612bbc612b52565b5060010190565b600082612be057634e487b7160e01b600052601260045260246000fd5b500490565b600060208284031215612bf757600080fd5b815161140f8161297b565b601f821115610ca657600081815260208120601f850160051c81016020861015612c295750805b601f850160051c820191505b8181101561138657828155600101612c35565b815167ffffffffffffffff811115612c6257612c62612525565b612c7681612c708454612b18565b84612c02565b602080601f831160018114612cab5760008415612c935750858301515b600019600386901b1c1916600185901b178555611386565b600085815260208120601f198616915b82811015612cda57888601518255948401946001909101908401612cbb565b5085821015612cf85787850151600019600388901b60f8161c191681555b5050505050600190811b01905550565b6000816000190483118215151615612d2257612d22612b52565b500290565b604081526000612d3a60408301856128b9565b8281036020840152612d4c81856128b9565b95945050505050565b60006001600160a01b03808816835280871660208401525084604083015283606083015260a0608083015261246860a083018461264e565b600060208284031215612d9f57600080fd5b815161140f816124f2565b600060033d1115612dc35760046000803e5060005160e01c5b90565b600060443d1015612dd45790565b6040516003193d81016004833e81513d67ffffffffffffffff8160248401118184111715612e0457505050505090565b8285019150815181811115612e1c5750505050505090565b843d8701016020828501011115612e365750505050505090565b612e456020828601018761253b565b509095945050505050565b60006001600160a01b03808816835280871660208401525060a06040830152612e7c60a08301866128b9565b8281036060840152612e8e81866128b9565b90508281036080840152612ea2818561264e565b98975050505050505050565b60008251612ec081846020870161262a565b919091019291505056fea2646970667358221220f435a1e743b728a3503591ad9f817b713f76599ad4f5e16e80779389b49fb3da64736f6c63430008100033",
  "linkReferences": {},
  "deployedLinkReferences": {}
}