{
  "_format": "hh-sol-artifact-1",
  "contractName": "Market",
  "sourceName": "contracts/Market.sol",
  "abi": [
    {
      "inputs": [
        {
          "internalType": "string",
          "name": "uri_",
          "type": "string"
        },
        {
          "internalType": "address",
          "name": "_usdc",
          "type": "address"
        }
      ],
      "stateMutability": "nonpayable",
      "type": "constructor"
    },
    {
      "anonymous": false,
      "inputs": [
        {
          "indexed": true,
          "internalType": "address",
          "name": "account",
          "type": "address"
        },
        {
          "indexed": true,
          "internalType": "address",
          "name": "operator",
          "type": "address"
        },
        {
          "indexed": false,
          "internalType": "bool",
          "name": "approved",
          "type": "bool"
        }
      ],
      "name": "ApprovalForAll",
      "type": "event"
    },
    {
      "anonymous": false,
      "inputs": [
        {
          "indexed": true,
          "internalType": "address",
          "name": "previousOwner",
          "type": "address"
        },
        {
          "indexed": true,
          "internalType": "address",
          "name": "newOwner",
          "type": "address"
        }
      ],
      "name": "OwnershipTransferred",
      "type": "event"
    },
    {
      "anonymous": false,
      "inputs": [
        {
          "indexed": true,
          "internalType": "address",
          "name": "operator",
          "type": "address"
        },
        {
          "indexed": true,
          "internalType": "address",
          "name": "from",
          "type": "address"
        },
        {
          "indexed": true,
          "internalType": "address",
          "name": "to",
          "type": "address"
        },
        {
          "indexed": false,
          "internalType": "uint256[]",
          "name": "ids",
          "type": "uint256[]"
        },
        {
          "indexed": false,
          "internalType": "uint256[]",
          "name": "values",
          "type": "uint256[]"
        }
      ],
      "name": "TransferBatch",
      "type": "event"
    },
    {
      "anonymous": false,
      "inputs": [
        {
          "indexed": true,
          "internalType": "address",
          "name": "operator",
          "type": "address"
        },
        {
          "indexed": true,
          "internalType": "address",
          "name": "from",
          "type": "address"
        },
        {
          "indexed": true,
          "internalType": "address",
          "name": "to",
          "type": "address"
        },
        {
          "indexed": false,
          "internalType": "uint256",
          "name": "id",
          "type": "uint256"
        },
        {
          "indexed": false,
          "internalType": "uint256",
          "name": "value",
          "type": "uint256"
        }
      ],
      "name": "TransferSingle",
      "type": "event"
    },
    {
      "anonymous": false,
      "inputs": [
        {
          "indexed": false,
          "internalType": "string",
          "name": "value",
          "type": "string"
        },
        {
          "indexed": true,
          "internalType": "uint256",
          "name": "id",
          "type": "uint256"
        }
      ],
      "name": "URI",
      "type": "event"
    },
    {
      "anonymous": false,
      "inputs": [
        {
          "indexed": false,
          "internalType": "uint256",
          "name": "id",
          "type": "uint256"
        },
        {
          "indexed": false,
          "internalType": "uint256",
          "name": "amount",
          "type": "uint256"
        }
      ],
      "name": "positionCreated",
      "type": "event"
    },
    {
      "inputs": [],
      "name": "NO",
      "outputs": [
        {
          "internalType": "uint256",
          "name": "",
          "type": "uint256"
        }
      ],
      "stateMutability": "view",
      "type": "function"
    },
    {
      "inputs": [],
      "name": "YES",
      "outputs": [
        {
          "internalType": "uint256",
          "name": "",
          "type": "uint256"
        }
      ],
      "stateMutability": "view",
      "type": "function"
    },
    {
      "inputs": [
        {
          "internalType": "address",
          "name": "account",
          "type": "address"
        },
        {
          "internalType": "uint256",
          "name": "id",
          "type": "uint256"
        }
      ],
      "name": "balanceOf",
      "outputs": [
        {
          "internalType": "uint256",
          "name": "",
          "type": "uint256"
        }
      ],
      "stateMutability": "view",
      "type": "function"
    },
    {
      "inputs": [
        {
          "internalType": "address[]",
          "name": "accounts",
          "type": "address[]"
        },
        {
          "internalType": "uint256[]",
          "name": "ids",
          "type": "uint256[]"
        }
      ],
      "name": "balanceOfBatch",
      "outputs": [
        {
          "internalType": "uint256[]",
          "name": "",
          "type": "uint256[]"
        }
      ],
      "stateMutability": "view",
      "type": "function"
    },
    {
      "inputs": [
        {
          "internalType": "address",
          "name": "account",
          "type": "address"
        },
        {
          "internalType": "uint256",
          "name": "id",
          "type": "uint256"
        },
        {
          "internalType": "uint256",
          "name": "value",
          "type": "uint256"
        }
      ],
      "name": "burn",
      "outputs": [],
      "stateMutability": "nonpayable",
      "type": "function"
    },
    {
      "inputs": [
        {
          "internalType": "address",
          "name": "account",
          "type": "address"
        },
        {
          "internalType": "uint256[]",
          "name": "ids",
          "type": "uint256[]"
        },
        {
          "internalType": "uint256[]",
          "name": "values",
          "type": "uint256[]"
        }
      ],
      "name": "burnBatch",
      "outputs": [],
      "stateMutability": "nonpayable",
      "type": "function"
    },
    {
      "inputs": [],
      "name": "cashOut",
      "outputs": [],
      "stateMutability": "nonpayable",
      "type": "function"
    },
    {
      "inputs": [],
      "name": "closingDate",
      "outputs": [
        {
          "internalType": "uint256",
          "name": "",
          "type": "uint256"
        }
      ],
      "stateMutability": "view",
      "type": "function"
    },
    {
      "inputs": [
        {
          "internalType": "uint256",
          "name": "id",
          "type": "uint256"
        }
      ],
      "name": "exists",
      "outputs": [
        {
          "internalType": "bool",
          "name": "",
          "type": "bool"
        }
      ],
      "stateMutability": "view",
      "type": "function"
    },
    {
      "inputs": [],
      "name": "favored",
      "outputs": [
        {
          "internalType": "bool",
          "name": "",
          "type": "bool"
        }
      ],
      "stateMutability": "view",
      "type": "function"
    },
    {
      "inputs": [],
      "name": "feeCollector",
      "outputs": [
        {
          "internalType": "address",
          "name": "",
          "type": "address"
        }
      ],
      "stateMutability": "view",
      "type": "function"
    },
    {
      "inputs": [],
      "name": "fetched",
      "outputs": [
        {
          "internalType": "bool",
          "name": "",
          "type": "bool"
        }
      ],
      "stateMutability": "view",
      "type": "function"
    },
    {
      "inputs": [],
      "name": "getData",
      "outputs": [],
      "stateMutability": "nonpayable",
      "type": "function"
    },
    {
      "inputs": [
        {
          "internalType": "uint256",
          "name": "_predictionPrice",
          "type": "uint256"
        },
        {
          "internalType": "address",
          "name": "_oracleFeed",
          "type": "address"
        },
        {
          "internalType": "uint256",
          "name": "_closingDate",
          "type": "uint256"
        },
        {
          "internalType": "string",
          "name": "_sku",
          "type": "string"
        }
      ],
      "name": "initialize",
      "outputs": [],
      "stateMutability": "nonpayable",
      "type": "function"
    },
    {
      "inputs": [
        {
          "internalType": "address",
          "name": "account",
          "type": "address"
        },
        {
          "internalType": "address",
          "name": "operator",
          "type": "address"
        }
      ],
      "name": "isApprovedForAll",
      "outputs": [
        {
          "internalType": "bool",
          "name": "",
          "type": "bool"
        }
      ],
      "stateMutability": "view",
      "type": "function"
    },
    {
      "inputs": [
        {
          "internalType": "uint256",
          "name": "id",
          "type": "uint256"
        },
        {
          "internalType": "uint256",
          "name": "amount",
          "type": "uint256"
        }
      ],
      "name": "mint",
      "outputs": [],
      "stateMutability": "nonpayable",
      "type": "function"
    },
    {
      "inputs": [],
      "name": "owner",
      "outputs": [
        {
          "internalType": "address",
          "name": "",
          "type": "address"
        }
      ],
      "stateMutability": "view",
      "type": "function"
    },
    {
      "inputs": [],
      "name": "predictionPrice",
      "outputs": [
        {
          "internalType": "uint256",
          "name": "",
          "type": "uint256"
        }
      ],
      "stateMutability": "view",
      "type": "function"
    },
    {
      "inputs": [],
      "name": "priceOfNo",
      "outputs": [
        {
          "internalType": "uint256",
          "name": "",
          "type": "uint256"
        }
      ],
      "stateMutability": "view",
      "type": "function"
    },
    {
      "inputs": [],
      "name": "priceOfYes",
      "outputs": [
        {
          "internalType": "uint256",
          "name": "",
          "type": "uint256"
        }
      ],
      "stateMutability": "view",
      "type": "function"
    },
    {
      "inputs": [],
      "name": "renounceOwnership",
      "outputs": [],
      "stateMutability": "nonpayable",
      "type": "function"
    },
    {
      "inputs": [],
      "name": "resolveAssetPrice",
      "outputs": [],
      "stateMutability": "nonpayable",
      "type": "function"
    },
    {
      "inputs": [],
      "name": "resolved",
      "outputs": [
        {
          "internalType": "bool",
          "name": "",
          "type": "bool"
        }
      ],
      "stateMutability": "view",
      "type": "function"
    },
    {
      "inputs": [
        {
          "internalType": "address",
          "name": "from",
          "type": "address"
        },
        {
          "internalType": "address",
          "name": "to",
          "type": "address"
        },
        {
          "internalType": "uint256[]",
          "name": "ids",
          "type": "uint256[]"
        },
        {
          "internalType": "uint256[]",
          "name": "amounts",
          "type": "uint256[]"
        },
        {
          "internalType": "bytes",
          "name": "data",
          "type": "bytes"
        }
      ],
      "name": "safeBatchTransferFrom",
      "outputs": [],
      "stateMutability": "nonpayable",
      "type": "function"
    },
    {
      "inputs": [
        {
          "internalType": "address",
          "name": "from",
          "type": "address"
        },
        {
          "internalType": "address",
          "name": "to",
          "type": "address"
        },
        {
          "internalType": "uint256",
          "name": "id",
          "type": "uint256"
        },
        {
          "internalType": "uint256",
          "name": "amount",
          "type": "uint256"
        },
        {
          "internalType": "bytes",
          "name": "data",
          "type": "bytes"
        }
      ],
      "name": "safeTransferFrom",
      "outputs": [],
      "stateMutability": "nonpayable",
      "type": "function"
    },
    {
      "inputs": [
        {
          "internalType": "address",
          "name": "operator",
          "type": "address"
        },
        {
          "internalType": "bool",
          "name": "approved",
          "type": "bool"
        }
      ],
      "name": "setApprovalForAll",
      "outputs": [],
      "stateMutability": "nonpayable",
      "type": "function"
    },
    {
      "inputs": [
        {
          "internalType": "string",
          "name": "newuri",
          "type": "string"
        }
      ],
      "name": "setURI",
      "outputs": [],
      "stateMutability": "nonpayable",
      "type": "function"
    },
    {
      "inputs": [],
      "name": "sku",
      "outputs": [
        {
          "internalType": "string",
          "name": "",
          "type": "string"
        }
      ],
      "stateMutability": "view",
      "type": "function"
    },
    {
      "inputs": [
        {
          "internalType": "bytes4",
          "name": "interfaceId",
          "type": "bytes4"
        }
      ],
      "name": "supportsInterface",
      "outputs": [
        {
          "internalType": "bool",
          "name": "",
          "type": "bool"
        }
      ],
      "stateMutability": "view",
      "type": "function"
    },
    {
      "inputs": [
        {
          "internalType": "uint256",
          "name": "id",
          "type": "uint256"
        }
      ],
      "name": "totalSupply",
      "outputs": [
        {
          "internalType": "uint256",
          "name": "",
          "type": "uint256"
        }
      ],
      "stateMutability": "view",
      "type": "function"
    },
    {
      "inputs": [
        {
          "internalType": "address",
          "name": "newOwner",
          "type": "address"
        }
      ],
      "name": "transferOwnership",
      "outputs": [],
      "stateMutability": "nonpayable",
      "type": "function"
    },
    {
      "inputs": [
        {
          "internalType": "uint256",
          "name": "",
          "type": "uint256"
        }
      ],
      "name": "uri",
      "outputs": [
        {
          "internalType": "string",
          "name": "",
          "type": "string"
        }
      ],
      "stateMutability": "view",
      "type": "function"
    },
    {
      "inputs": [
        {
          "internalType": "uint256",
          "name": "fromId",
          "type": "uint256"
        },
        {
          "internalType": "uint256",
          "name": "amount",
          "type": "uint256"
        }
      ],
      "name": "xchange",
      "outputs": [],
      "stateMutability": "nonpayable",
      "type": "function"
    }
  ],
  "bytecode": "0x60806040526008805460ff60b01b19169055426009553480156200002257600080fd5b5060405162003ec538038062003ec58339810160408190526200004591620006c9565b816200005181620000cd565b506200005d33620000df565b6200008130600180604051806020016040528060008152506200013160201b60201c565b620000a63060026001604051806020016040528060008152506200013160201b60201c565b600e80546001600160a01b0319166001600160a01b03929092169190911790555062000ab3565b6002620000db82826200081a565b5050565b600380546001600160a01b038381166001600160a01b0319831681179093556040519116919082907f8be0079c531659141344cd1fd0a4f28419497f9722a3daafe3b4186f6b6457e090600090a35050565b6001600160a01b038416620001975760405162461bcd60e51b815260206004820152602160248201527f455243313135353a206d696e7420746f20746865207a65726f206164647265736044820152607360f81b60648201526084015b60405180910390fd5b336000620001a58562000264565b90506000620001b48562000264565b9050620001c783600089858589620002b2565b6000868152602081815260408083206001600160a01b038b16845290915281208054879290620001f9908490620008fc565b909155505060408051878152602081018790526001600160a01b03808a1692600092918716917fc3d58168c5ae7397731d063d5bbf3d657854427343f4c083240f7aacaa2d0f62910160405180910390a46200025b83600089898989620002d5565b50505050505050565b60408051600180825281830190925260609160009190602080830190803683370190505090508281600081518110620002a157620002a162000918565b602090810291909101015292915050565b620002cd868686868686620004a160201b620016291760201c565b505050505050565b620002f4846001600160a01b03166200064f60201b620017c11760201c565b15620002cd5760405163f23a6e6160e01b81526001600160a01b0385169063f23a6e61906200033090899089908890889088906004016200095c565b6020604051808303816000875af19250505080156200036e575060408051601f3d908101601f191682019092526200036b91810190620009a3565b60015b6200042e576200037d620009d6565b806308c379a003620003bd575062000394620009f3565b80620003a15750620003bf565b8060405162461bcd60e51b81526004016200018e919062000a82565b505b60405162461bcd60e51b815260206004820152603460248201527f455243313135353a207472616e7366657220746f206e6f6e204552433131353560448201527f526563656976657220696d706c656d656e74657200000000000000000000000060648201526084016200018e565b6001600160e01b0319811663f23a6e6160e01b146200025b5760405162461bcd60e51b815260206004820152602860248201527f455243313135353a204552433131353552656365697665722072656a656374656044820152676420746f6b656e7360c01b60648201526084016200018e565b620004bc868686868686620002cd60201b620017b91760201c565b6001600160a01b038516620005505760005b83518110156200054e57828181518110620004ed57620004ed62000918565b6020026020010151600460008684815181106200050e576200050e62000918565b602002602001015181526020019081526020016000206000828254620005359190620008fc565b909155506200054690508162000a97565b9050620004ce565b505b6001600160a01b038416620002cd5760005b83518110156200025b57600084828151811062000583576200058362000918565b602002602001015190506000848381518110620005a457620005a462000918565b6020026020010151905060006004600084815260200190815260200160002054905081811015620006295760405162461bcd60e51b815260206004820152602860248201527f455243313135353a206275726e20616d6f756e74206578636565647320746f74604482015267616c537570706c7960c01b60648201526084016200018e565b60009283526004602052604090922091039055620006478162000a97565b905062000562565b6001600160a01b03163b151590565b634e487b7160e01b600052604160045260246000fd5b601f8201601f191681016001600160401b03811182821017156200069c576200069c6200065e565b6040525050565b60005b83811015620006c0578181015183820152602001620006a6565b50506000910152565b60008060408385031215620006dd57600080fd5b82516001600160401b0380821115620006f557600080fd5b818501915085601f8301126200070a57600080fd5b8151818111156200071f576200071f6200065e565b60405191506200073a601f8201601f19166020018362000674565b8082528660208285010111156200075057600080fd5b62000763816020840160208601620006a3565b50602085015190935090506001600160a01b03811681146200078457600080fd5b809150509250929050565b600181811c90821680620007a457607f821691505b602082108103620007c557634e487b7160e01b600052602260045260246000fd5b50919050565b601f8211156200081557600081815260208120601f850160051c81016020861015620007f45750805b601f850160051c820191505b81811015620002cd5782815560010162000800565b505050565b81516001600160401b038111156200083657620008366200065e565b6200084e816200084784546200078f565b84620007cb565b602080601f8311600181146200088657600084156200086d5750858301515b600019600386901b1c1916600185901b178555620002cd565b600085815260208120601f198616915b82811015620008b75788860151825594840194600190910190840162000896565b5085821015620008d65787850151600019600388901b60f8161c191681555b5050505050600190811b01905550565b634e487b7160e01b600052601160045260246000fd5b80820180821115620009125762000912620008e6565b92915050565b634e487b7160e01b600052603260045260246000fd5b6000815180845262000948816020860160208601620006a3565b601f01601f19169290920160200192915050565b6001600160a01b03868116825285166020820152604081018490526060810183905260a06080820181905260009062000998908301846200092e565b979650505050505050565b600060208284031215620009b657600080fd5b81516001600160e01b031981168114620009cf57600080fd5b9392505050565b600060033d1115620009f05760046000803e5060005160e01c5b90565b600060443d101562000a025790565b6040516003193d81016004833e81513d6001600160401b03808311602484018310171562000a3257505050505090565b828501915081518181111562000a4b5750505050505090565b843d870101602082850101111562000a665750505050505090565b62000a776020828601018762000674565b509095945050505050565b602081526000620009cf60208301846200092e565b60006001820162000aac5762000aac620008e6565b5060010190565b6134028062000ac36000396000f3fe608060405234801561001057600080fd5b506004361061020a5760003560e01c8063530603761161012a578063b2449d65116100bd578063e985e9c51161008c578063f2fde38b11610071578063f2fde38b1461046e578063f5298aca14610481578063f6880ec71461049457600080fd5b8063e985e9c51461041f578063f242432a1461045b57600080fd5b8063b2449d65146103d0578063bd85b039146103d8578063c415b95c146103f8578063caedcd891461040b57600080fd5b80638da5cb5b116100f95780638da5cb5b146103875780639eae0c4c146103ac578063a22cb465146103b4578063a628828f146103c757600080fd5b8063530603761461035b5780636b20c45414610364578063715018a614610377578063793cd71e1461037f57600080fd5b8063131f57bd116101a25780633f6fa655116101715780633f6fa655146103045780634462f40c146103115780634e1273f4146103195780634f558e791461033957600080fd5b8063131f57bd146102c35780631b2ef1ca146102d65780632eb2c2d6146102e95780633bc5de30146102fc57600080fd5b806306311394116101de578063063113941461027f5780630d483442146102885780630d9f0e92146102905780630e89341c146102a357600080fd5b8062fdd58e1461020f57806301ffc9a71461023557806302fe530514610258578063039491df1461026d575b600080fd5b61022261021d3660046129db565b61049d565b6040519081526020015b60405180910390f35b610248610243366004612a1b565b610549565b604051901515815260200161022c565b61026b610266366004612aef565b6105e4565b005b60085461024890610100900460ff1681565b61022260065481565b610222600281565b61026b61029e366004612b24565b6105f8565b6102b66102b1366004612b85565b610655565b60405161022c9190612bee565b61026b6102d1366004612c01565b6106e9565b61026b6102e4366004612c01565b610c46565b61026b6102f7366004612cb8565b610de6565b61026b610e73565b6008546102489060ff1681565b6102b6610f29565b61032c610327366004612d62565b610fb7565b60405161022c9190612e68565b610248610347366004612b85565b600090815260046020526040902054151590565b610222600b5481565b61026b610372366004612e7b565b6110f5565b61026b611185565b61026b611199565b6003546001600160a01b03165b6040516001600160a01b03909116815260200161022c565b61026b6113c2565b61026b6103c2366004612efd565b611479565b610222600a5481565b610222600181565b6102226103e6366004612b85565b60009081526004602052604090205490565b600554610394906001600160a01b031681565b60085461024890600160b01b900460ff1681565b61024861042d366004612f34565b6001600160a01b03918216600090815260016020908152604080832093909416825291909152205460ff1690565b61026b610469366004612f67565b611484565b61026b61047c366004612fcc565b611511565b61026b61048f366004612fe7565b61159e565b610222600c5481565b60006001600160a01b0383166105205760405162461bcd60e51b815260206004820152602a60248201527f455243313135353a2061646472657373207a65726f206973206e6f742061207660448201527f616c6964206f776e65720000000000000000000000000000000000000000000060648201526084015b60405180910390fd5b506000818152602081815260408083206001600160a01b03861684529091529020545b92915050565b60006001600160e01b031982167fd9b67a260000000000000000000000000000000000000000000000000000000014806105ac57506001600160e01b031982167f0e89341c00000000000000000000000000000000000000000000000000000000145b8061054357507f01ffc9a7000000000000000000000000000000000000000000000000000000006001600160e01b0319831614610543565b6105ec6117d0565b6105f58161182a565b50565b6106006117d0565b600a829055600880547fffffffffffffffffffff0000000000000000000000000000000000000000ffff16620100006001600160a01b038616021790556006849055600d61064e828261309a565b5050505050565b6060600280546106649061301a565b80601f01602080910402602001604051908101604052809291908181526020018280546106909061301a565b80156106dd5780601f106106b2576101008083540402835291602001916106dd565b820191906000526020600020905b8154815290600101906020018083116106c057829003601f168201915b50505050509050919050565b600260005260046020527f91da3fd0782e51c6b3986e9e672fd566868e71f3dbc2d6c2cd6fbb3e361af2a754610797905b600160005260046020527fabd6e7cb50984ff9c2f3e18a2660c3353dadf4e3291deeb275dae2cd1e44fe05546107509190613170565b600260005260046020527f91da3fd0782e51c6b3986e9e672fd566868e71f3dbc2d6c2cd6fbb3e361af2a75461079190670de0b6b3a7640000905b90611836565b90611849565b600b55600260005260046020527f91da3fd0782e51c6b3986e9e672fd566868e71f3dbc2d6c2cd6fbb3e361af2a754610840905b600160005260046020527fabd6e7cb50984ff9c2f3e18a2660c3353dadf4e3291deeb275dae2cd1e44fe05546108019190613170565b600160005260046020527fabd6e7cb50984ff9c2f3e18a2660c3353dadf4e3291deeb275dae2cd1e44fe055461079190670de0b6b3a76400009061078b565b600c556001829003610a5f5761085733600161049d565b8111156108a65760405162461bcd60e51b815260206004820152600f60248201527f42616c616e636520746f6f206c6f7700000000000000000000000000000000006044820152606401610517565b60006108bd600c548361183690919063ffffffff16565b90506108ec6108e76064610791670de0b6b3a7640000610791600b5488600c5461078b9190613183565b611855565b6108f8336001846118c8565b600061091b670de0b6b3a7640000610791600b548561183690919063ffffffff16565b9050600061094b60646107916d314dc6448d9338c15b0a00000000610791600b548861183690919063ffffffff16565b905060018110156109ea5760405162461bcd60e51b815260206004820152605d60248201527f596f7520646f206e6f74206861766520656e6f75676820636f6c6c617465726160448201527f6c20746f2065786368616e676520796f757220706f736974696f6e2e2054686560648201527f206d696e696d756d2065786368616e6765206973203120746f6b656e2e000000608482015260a401610517565b600e54610a01906001600160a01b03163384611a58565b610a1d3360028360405180602001604052806000815250611ad0565b6040805160028152602081018390527f3923a82cb620a1af3ec9322d3347e92e90f81f20cef82079a61145417437251a91015b60405180910390a15050505050565b81600203610c4257610a7233600261049d565b811115610ac15760405162461bcd60e51b815260206004820152600f60248201527f42616c616e636520746f6f206c6f7700000000000000000000000000000000006044820152606401610517565b6000610ad8600b548361183690919063ffffffff16565b9050610ae6336002846118c8565b6000610b09670de0b6b3a7640000610791600c548561183690919063ffffffff16565b90506000610b3960646107916d314dc6448d9338c15b0a00000000610791600c548861183690919063ffffffff16565b90506001811015610bd85760405162461bcd60e51b815260206004820152605d60248201527f596f7520646f206e6f74206861766520656e6f75676820636f6c6c617465726160448201527f6c20746f2065786368616e676520796f757220706f736974696f6e2e2054686560648201527f206d696e696d756d2065786368616e6765206973203120746f6b656e2e000000608482015260a401610517565b600e54610bef906001600160a01b03163384611a58565b610c0b3360018360405180602001604052806000815250611ad0565b6040805160018152602081018390527f3923a82cb620a1af3ec9322d3347e92e90f81f20cef82079a61145417437251a9101610a50565b5050565b8115801590610c56575060028211155b610ca25760405162461bcd60e51b815260206004820152600a60248201527f496e76616c6964204944000000000000000000000000000000000000000000006044820152606401610517565b6002600090815260046020527f91da3fd0782e51c6b3986e9e672fd566868e71f3dbc2d6c2cd6fbb3e361af2a754610cd99061071a565b600b55600260005260046020527f91da3fd0782e51c6b3986e9e672fd566868e71f3dbc2d6c2cd6fbb3e361af2a754610d11906107cb565b600c556001839003610d6557600c54610d2a9083611836565b600e54909150610d45906001600160a01b0316333084611c06565b610d6033848460405180602001604052806000815250611ad0565b610da8565b600b54610d729083611836565b600e54909150610d8d906001600160a01b0316333084611c06565b610da833848460405180602001604052806000815250611ad0565b60408051848152602081018490527f3923a82cb620a1af3ec9322d3347e92e90f81f20cef82079a61145417437251a910160405180910390a1505050565b6001600160a01b038516331480610e025750610e02853361042d565b610e665760405162461bcd60e51b815260206004820152602f60248201527f455243313135353a2063616c6c6572206973206e6f7420746f6b656e206f776e60448201526e195c881b9bdc88185c1c1c9bdd9959608a1b6064820152608401610517565b61064e8585858585611c57565b610e7b6117d0565b600860029054906101000a90046001600160a01b03166001600160a01b0316631604f9ea6040518163ffffffff1660e01b81526004016020604051808303816000875af1158015610ed0573d6000803e3d6000fd5b505050506040513d601f19601f82011682018060405250810190610ef491906131a2565b50600880547fffffffffffffffffff00ffffffffffffffffffffffffffffffffffffffffffff16600160b01b17905542600755565b600d8054610f369061301a565b80601f0160208091040260200160405190810160405280929190818152602001828054610f629061301a565b8015610faf5780601f10610f8457610100808354040283529160200191610faf565b820191906000526020600020905b815481529060010190602001808311610f9257829003601f168201915b505050505081565b606081518351146110305760405162461bcd60e51b815260206004820152602960248201527f455243313135353a206163636f756e747320616e6420696473206c656e67746860448201527f206d69736d6174636800000000000000000000000000000000000000000000006064820152608401610517565b6000835167ffffffffffffffff81111561104c5761104c612a38565b604051908082528060200260200182016040528015611075578160200160208202803683370190505b50905060005b84518110156110ed576110c0858281518110611099576110996131bb565b60200260200101518583815181106110b3576110b36131bb565b602002602001015161049d565b8282815181106110d2576110d26131bb565b60209081029190910101526110e6816131d1565b905061107b565b509392505050565b6001600160a01b0383163314806111115750611111833361042d565b6111755760405162461bcd60e51b815260206004820152602f60248201527f455243313135353a2063616c6c6572206973206e6f7420746f6b656e206f776e60448201526e195c881b9bdc88185c1c1c9bdd9959608a1b6064820152608401610517565b611180838383611ebb565b505050565b61118d6117d0565b6111976000612110565b565b60085460ff1615156001146111f05760405162461bcd60e51b815260206004820152601460248201527f44617461206e6f742066657463686564207965740000000000000000000000006044820152606401610517565b600854610100900460ff16151560010361136b57600061121133600161049d565b6001600090815260046020527fabd6e7cb50984ff9c2f3e18a2660c3353dadf4e3291deeb275dae2cd1e44fe05549192509061124d90836131ea565b905061125b336001846118c8565b600e546040517f70a0823100000000000000000000000000000000000000000000000000000000815230600482015260009183916001600160a01b03909116906370a0823190602401602060405180830381865afa1580156112c1573d6000803e3d6000fd5b505050506040513d601f19601f820116820180604052508101906112e591906131a2565b6112ef91906131ea565b600e5460405163a9059cbb60e01b8152336004820152602481018390529192506001600160a01b03169063a9059cbb906044016020604051808303816000875af1158015611341573d6000803e3d6000fd5b505050506040513d601f19601f82011682018060405250810190611365919061320c565b50505050565b600061137833600261049d565b6002600090815260046020527f91da3fd0782e51c6b3986e9e672fd566868e71f3dbc2d6c2cd6fbb3e361af2a754919250906113b490836131ea565b905061125b336002846118c8565b6113ca6117d0565b600860029054906101000a90046001600160a01b03166001600160a01b031663a035b1fe6040518163ffffffff1660e01b8152600401602060405180830381865afa15801561141d573d6000803e3d6000fd5b505050506040513d601f19601f8201168201806040525081019061144191906131a2565b600654111561145e576008805461ff00191661010017905561146a565b6008805461ff00191690555b6008805460ff19166001179055565b610c4233838361217a565b6001600160a01b0385163314806114a057506114a0853361042d565b6115045760405162461bcd60e51b815260206004820152602f60248201527f455243313135353a2063616c6c6572206973206e6f7420746f6b656e206f776e60448201526e195c881b9bdc88185c1c1c9bdd9959608a1b6064820152608401610517565b61064e858585858561226e565b6115196117d0565b6001600160a01b0381166115955760405162461bcd60e51b815260206004820152602660248201527f4f776e61626c653a206e6577206f776e657220697320746865207a65726f206160448201527f64647265737300000000000000000000000000000000000000000000000000006064820152608401610517565b6105f581612110565b6001600160a01b0383163314806115ba57506115ba833361042d565b61161e5760405162461bcd60e51b815260206004820152602f60248201527f455243313135353a2063616c6c6572206973206e6f7420746f6b656e206f776e60448201526e195c881b9bdc88185c1c1c9bdd9959608a1b6064820152608401610517565b6111808383836118c8565b6001600160a01b0385166116b05760005b83518110156116ae57828181518110611655576116556131bb565b602002602001015160046000868481518110611673576116736131bb565b6020026020010151815260200190815260200160002060008282546116989190613170565b909155506116a79050816131d1565b905061163a565b505b6001600160a01b0384166117b95760005b83518110156117b75760008482815181106116de576116de6131bb565b6020026020010151905060008483815181106116fc576116fc6131bb565b60200260200101519050600060046000848152602001908152602001600020549050818110156117945760405162461bcd60e51b815260206004820152602860248201527f455243313135353a206275726e20616d6f756e74206578636565647320746f7460448201527f616c537570706c790000000000000000000000000000000000000000000000006064820152608401610517565b600092835260046020526040909220910390556117b0816131d1565b90506116c1565b505b505050505050565b6001600160a01b03163b151590565b6003546001600160a01b031633146111975760405162461bcd60e51b815260206004820181905260248201527f4f776e61626c653a2063616c6c6572206973206e6f7420746865206f776e65726044820152606401610517565b6002610c42828261309a565b60006118428284613183565b9392505050565b600061184282846131ea565b6105f58160405160240161186b91815260200190565b60408051601f198184030181529190526020810180517bffffffffffffffffffffffffffffffffffffffffffffffffffffffff167ff82c50f100000000000000000000000000000000000000000000000000000000179052612427565b6001600160a01b03831661192a5760405162461bcd60e51b815260206004820152602360248201527f455243313135353a206275726e2066726f6d20746865207a65726f206164647260448201526265737360e81b6064820152608401610517565b33600061193684612448565b9050600061194384612448565b905061196383876000858560405180602001604052806000815250612493565b6000858152602081815260408083206001600160a01b038a168452909152902054848110156119e05760405162461bcd60e51b8152602060048201526024808201527f455243313135353a206275726e20616d6f756e7420657863656564732062616c604482015263616e636560e01b6064820152608401610517565b6000868152602081815260408083206001600160a01b038b81168086529184528285208a8703905582518b81529384018a90529092908816917fc3d58168c5ae7397731d063d5bbf3d657854427343f4c083240f7aacaa2d0f62910160405180910390a46040805160208101909152600090526117b7565b6040516001600160a01b03831660248201526044810182905261118090849063a9059cbb60e01b906064015b60408051601f198184030181529190526020810180517bffffffffffffffffffffffffffffffffffffffffffffffffffffffff166001600160e01b0319909316929092179091526124a1565b6001600160a01b038416611b4c5760405162461bcd60e51b815260206004820152602160248201527f455243313135353a206d696e7420746f20746865207a65726f2061646472657360448201527f73000000000000000000000000000000000000000000000000000000000000006064820152608401610517565b336000611b5885612448565b90506000611b6585612448565b9050611b7683600089858589612493565b6000868152602081815260408083206001600160a01b038b16845290915281208054879290611ba6908490613170565b909155505060408051878152602081018790526001600160a01b03808a1692600092918716917fc3d58168c5ae7397731d063d5bbf3d657854427343f4c083240f7aacaa2d0f62910160405180910390a46117b783600089898989612586565b6040516001600160a01b03808516602483015283166044820152606481018290526113659085907f23b872dd0000000000000000000000000000000000000000000000000000000090608401611a84565b8151835114611cb95760405162461bcd60e51b815260206004820152602860248201527f455243313135353a2069647320616e6420616d6f756e7473206c656e677468206044820152670dad2e6dac2e8c6d60c31b6064820152608401610517565b6001600160a01b038416611d1d5760405162461bcd60e51b815260206004820152602560248201527f455243313135353a207472616e7366657220746f20746865207a65726f206164604482015264647265737360d81b6064820152608401610517565b33611d2c818787878787612493565b60005b8451811015611e55576000858281518110611d4c57611d4c6131bb565b602002602001015190506000858381518110611d6a57611d6a6131bb565b602090810291909101810151600084815280835260408082206001600160a01b038e168352909352919091205490915081811015611dfd5760405162461bcd60e51b815260206004820152602a60248201527f455243313135353a20696e73756666696369656e742062616c616e636520666f60448201526939103a3930b739b332b960b11b6064820152608401610517565b6000838152602081815260408083206001600160a01b038e8116855292528083208585039055908b16825281208054849290611e3a908490613170565b9250508190555050505080611e4e906131d1565b9050611d2f565b50846001600160a01b0316866001600160a01b0316826001600160a01b03167f4a39dc06d4c0dbc64b70af90fd698a233a518aa5d07e595d983b8c0526c8f7fb8787604051611ea5929190613229565b60405180910390a46117b981878787878761272b565b6001600160a01b038316611f1d5760405162461bcd60e51b815260206004820152602360248201527f455243313135353a206275726e2066726f6d20746865207a65726f206164647260448201526265737360e81b6064820152608401610517565b8051825114611f7f5760405162461bcd60e51b815260206004820152602860248201527f455243313135353a2069647320616e6420616d6f756e7473206c656e677468206044820152670dad2e6dac2e8c6d60c31b6064820152608401610517565b6000339050611fa281856000868660405180602001604052806000815250612493565b60005b83518110156120a3576000848281518110611fc257611fc26131bb565b602002602001015190506000848381518110611fe057611fe06131bb565b602090810291909101810151600084815280835260408082206001600160a01b038c16835290935291909120549091508181101561206c5760405162461bcd60e51b8152602060048201526024808201527f455243313135353a206275726e20616d6f756e7420657863656564732062616c604482015263616e636560e01b6064820152608401610517565b6000928352602083815260408085206001600160a01b038b168652909152909220910390558061209b816131d1565b915050611fa5565b5060006001600160a01b0316846001600160a01b0316826001600160a01b03167f4a39dc06d4c0dbc64b70af90fd698a233a518aa5d07e595d983b8c0526c8f7fb86866040516120f4929190613229565b60405180910390a4604080516020810190915260009052611365565b600380546001600160a01b038381167fffffffffffffffffffffffff0000000000000000000000000000000000000000831681179093556040519116919082907f8be0079c531659141344cd1fd0a4f28419497f9722a3daafe3b4186f6b6457e090600090a35050565b816001600160a01b0316836001600160a01b0316036122015760405162461bcd60e51b815260206004820152602960248201527f455243313135353a2073657474696e6720617070726f76616c2073746174757360448201527f20666f722073656c6600000000000000000000000000000000000000000000006064820152608401610517565b6001600160a01b03838116600081815260016020908152604080832094871680845294825291829020805460ff191686151590811790915591519182527f17307eab39ab6107e8899845ad3d59bd9653f200f220920489ca2b5937696c31910160405180910390a3505050565b6001600160a01b0384166122d25760405162461bcd60e51b815260206004820152602560248201527f455243313135353a207472616e7366657220746f20746865207a65726f206164604482015264647265737360d81b6064820152608401610517565b3360006122de85612448565b905060006122eb85612448565b90506122fb838989858589612493565b6000868152602081815260408083206001600160a01b038c1684529091529020548581101561237f5760405162461bcd60e51b815260206004820152602a60248201527f455243313135353a20696e73756666696369656e742062616c616e636520666f60448201526939103a3930b739b332b960b11b6064820152608401610517565b6000878152602081815260408083206001600160a01b038d8116855292528083208985039055908a168252812080548892906123bc908490613170565b909155505060408051888152602081018890526001600160a01b03808b16928c821692918816917fc3d58168c5ae7397731d063d5bbf3d657854427343f4c083240f7aacaa2d0f62910160405180910390a461241c848a8a8a8a8a612586565b505050505050505050565b80516a636f6e736f6c652e6c6f67602083016000808483855afa5050505050565b60408051600180825281830190925260609160009190602080830190803683370190505090508281600081518110612482576124826131bb565b602090810291909101015292915050565b6117b9868686868686611629565b60006124f6826040518060400160405280602081526020017f5361666545524332303a206c6f772d6c6576656c2063616c6c206661696c6564815250856001600160a01b03166128279092919063ffffffff16565b8051909150156111805780806020019051810190612514919061320c565b6111805760405162461bcd60e51b815260206004820152602a60248201527f5361666545524332303a204552433230206f7065726174696f6e20646964206e60448201527f6f742073756363656564000000000000000000000000000000000000000000006064820152608401610517565b6001600160a01b0384163b156117b95760405163f23a6e6160e01b81526001600160a01b0385169063f23a6e61906125ca9089908990889088908890600401613257565b6020604051808303816000875af1925050508015612605575060408051601f3d908101601f191682019092526126029181019061328f565b60015b6126ba576126116132ac565b806308c379a00361264a57506126256132c8565b80612630575061264c565b8060405162461bcd60e51b81526004016105179190612bee565b505b60405162461bcd60e51b815260206004820152603460248201527f455243313135353a207472616e7366657220746f206e6f6e204552433131353560448201527f526563656976657220696d706c656d656e7465720000000000000000000000006064820152608401610517565b6001600160e01b0319811663f23a6e6160e01b146117b75760405162461bcd60e51b815260206004820152602860248201527f455243313135353a204552433131353552656365697665722072656a656374656044820152676420746f6b656e7360c01b6064820152608401610517565b6001600160a01b0384163b156117b95760405163bc197c8160e01b81526001600160a01b0385169063bc197c819061276f9089908990889088908890600401613352565b6020604051808303816000875af19250505080156127aa575060408051601f3d908101601f191682019092526127a79181019061328f565b60015b6127b6576126116132ac565b6001600160e01b0319811663bc197c8160e01b146117b75760405162461bcd60e51b815260206004820152602860248201527f455243313135353a204552433131353552656365697665722072656a656374656044820152676420746f6b656e7360c01b6064820152608401610517565b6060612836848460008561283e565b949350505050565b6060824710156128b65760405162461bcd60e51b815260206004820152602660248201527f416464726573733a20696e73756666696369656e742062616c616e636520666f60448201527f722063616c6c00000000000000000000000000000000000000000000000000006064820152608401610517565b6001600160a01b0385163b61290d5760405162461bcd60e51b815260206004820152601d60248201527f416464726573733a2063616c6c20746f206e6f6e2d636f6e74726163740000006044820152606401610517565b600080866001600160a01b0316858760405161292991906133b0565b60006040518083038185875af1925050503d8060008114612966576040519150601f19603f3d011682016040523d82523d6000602084013e61296b565b606091505b509150915061297b828286612986565b979650505050505050565b60608315612995575081611842565b8251156129a55782518084602001fd5b8160405162461bcd60e51b81526004016105179190612bee565b80356001600160a01b03811681146129d657600080fd5b919050565b600080604083850312156129ee57600080fd5b6129f7836129bf565b946020939093013593505050565b6001600160e01b0319811681146105f557600080fd5b600060208284031215612a2d57600080fd5b813561184281612a05565b634e487b7160e01b600052604160045260246000fd5b601f8201601f1916810167ffffffffffffffff81118282101715612a7457612a74612a38565b6040525050565b600082601f830112612a8c57600080fd5b813567ffffffffffffffff811115612aa657612aa6612a38565b604051612abd601f8301601f191660200182612a4e565b818152846020838601011115612ad257600080fd5b816020850160208301376000918101602001919091529392505050565b600060208284031215612b0157600080fd5b813567ffffffffffffffff811115612b1857600080fd5b61283684828501612a7b565b60008060008060808587031215612b3a57600080fd5b84359350612b4a602086016129bf565b925060408501359150606085013567ffffffffffffffff811115612b6d57600080fd5b612b7987828801612a7b565b91505092959194509250565b600060208284031215612b9757600080fd5b5035919050565b60005b83811015612bb9578181015183820152602001612ba1565b50506000910152565b60008151808452612bda816020860160208601612b9e565b601f01601f19169290920160200192915050565b6020815260006118426020830184612bc2565b60008060408385031215612c1457600080fd5b50508035926020909101359150565b600067ffffffffffffffff821115612c3d57612c3d612a38565b5060051b60200190565b600082601f830112612c5857600080fd5b81356020612c6582612c23565b604051612c728282612a4e565b83815260059390931b8501820192828101915086841115612c9257600080fd5b8286015b84811015612cad5780358352918301918301612c96565b509695505050505050565b600080600080600060a08688031215612cd057600080fd5b612cd9866129bf565b9450612ce7602087016129bf565b9350604086013567ffffffffffffffff80821115612d0457600080fd5b612d1089838a01612c47565b94506060880135915080821115612d2657600080fd5b612d3289838a01612c47565b93506080880135915080821115612d4857600080fd5b50612d5588828901612a7b565b9150509295509295909350565b60008060408385031215612d7557600080fd5b823567ffffffffffffffff80821115612d8d57600080fd5b818501915085601f830112612da157600080fd5b81356020612dae82612c23565b604051612dbb8282612a4e565b83815260059390931b8501820192828101915089841115612ddb57600080fd5b948201945b83861015612e0057612df1866129bf565b82529482019490820190612de0565b96505086013592505080821115612e1657600080fd5b50612e2385828601612c47565b9150509250929050565b600081518084526020808501945080840160005b83811015612e5d57815187529582019590820190600101612e41565b509495945050505050565b6020815260006118426020830184612e2d565b600080600060608486031215612e9057600080fd5b612e99846129bf565b9250602084013567ffffffffffffffff80821115612eb657600080fd5b612ec287838801612c47565b93506040860135915080821115612ed857600080fd5b50612ee586828701612c47565b9150509250925092565b80151581146105f557600080fd5b60008060408385031215612f1057600080fd5b612f19836129bf565b91506020830135612f2981612eef565b809150509250929050565b60008060408385031215612f4757600080fd5b612f50836129bf565b9150612f5e602084016129bf565b90509250929050565b600080600080600060a08688031215612f7f57600080fd5b612f88866129bf565b9450612f96602087016129bf565b93506040860135925060608601359150608086013567ffffffffffffffff811115612fc057600080fd5b612d5588828901612a7b565b600060208284031215612fde57600080fd5b611842826129bf565b600080600060608486031215612ffc57600080fd5b613005846129bf565b95602085013595506040909401359392505050565b600181811c9082168061302e57607f821691505b60208210810361304e57634e487b7160e01b600052602260045260246000fd5b50919050565b601f82111561118057600081815260208120601f850160051c8101602086101561307b5750805b601f850160051c820191505b818110156117b957828155600101613087565b815167ffffffffffffffff8111156130b4576130b4612a38565b6130c8816130c2845461301a565b84613054565b602080601f8311600181146130fd57600084156130e55750858301515b600019600386901b1c1916600185901b1785556117b9565b600085815260208120601f198616915b8281101561312c5788860151825594840194600190910190840161310d565b508582101561314a5787850151600019600388901b60f8161c191681555b5050505050600190811b01905550565b634e487b7160e01b600052601160045260246000fd5b808201808211156105435761054361315a565b600081600019048311821515161561319d5761319d61315a565b500290565b6000602082840312156131b457600080fd5b5051919050565b634e487b7160e01b600052603260045260246000fd5b6000600182016131e3576131e361315a565b5060010190565b60008261320757634e487b7160e01b600052601260045260246000fd5b500490565b60006020828403121561321e57600080fd5b815161184281612eef565b60408152600061323c6040830185612e2d565b828103602084015261324e8185612e2d565b95945050505050565b60006001600160a01b03808816835280871660208401525084604083015283606083015260a0608083015261297b60a0830184612bc2565b6000602082840312156132a157600080fd5b815161184281612a05565b600060033d11156132c55760046000803e5060005160e01c5b90565b600060443d10156132d65790565b6040516003193d81016004833e81513d67ffffffffffffffff816024840111818411171561330657505050505090565b828501915081518181111561331e5750505050505090565b843d87010160208285010111156133385750505050505090565b61334760208286010187612a4e565b509095945050505050565b60006001600160a01b03808816835280871660208401525060a0604083015261337e60a0830186612e2d565b82810360608401526133908186612e2d565b905082810360808401526133a48185612bc2565b98975050505050505050565b600082516133c2818460208701612b9e565b919091019291505056fea26469706673582212208df82b48615ce5502e1af29909e299a68c1654c7b4affee6197da5fc5949ce0764736f6c63430008100033",
  "linkReferences": {},
  "deployedLinkReferences": {}
}