{
  "_format": "hh-sol-artifact-1",
  "contractName": "Market",
  "sourceName": "contracts/Market.sol",
  "abi": [
    {
      "inputs": [
        {
          "internalType": "string",
          "name": "uri_",
          "type": "string"
        }
      ],
      "stateMutability": "nonpayable",
      "type": "constructor"
    },
    {
      "anonymous": false,
      "inputs": [
        {
          "indexed": true,
          "internalType": "address",
          "name": "account",
          "type": "address"
        },
        {
          "indexed": true,
          "internalType": "address",
          "name": "operator",
          "type": "address"
        },
        {
          "indexed": false,
          "internalType": "bool",
          "name": "approved",
          "type": "bool"
        }
      ],
      "name": "ApprovalForAll",
      "type": "event"
    },
    {
      "anonymous": false,
      "inputs": [
        {
          "indexed": true,
          "internalType": "address",
          "name": "previousOwner",
          "type": "address"
        },
        {
          "indexed": true,
          "internalType": "address",
          "name": "newOwner",
          "type": "address"
        }
      ],
      "name": "OwnershipTransferred",
      "type": "event"
    },
    {
      "anonymous": false,
      "inputs": [
        {
          "indexed": true,
          "internalType": "address",
          "name": "operator",
          "type": "address"
        },
        {
          "indexed": true,
          "internalType": "address",
          "name": "from",
          "type": "address"
        },
        {
          "indexed": true,
          "internalType": "address",
          "name": "to",
          "type": "address"
        },
        {
          "indexed": false,
          "internalType": "uint256[]",
          "name": "ids",
          "type": "uint256[]"
        },
        {
          "indexed": false,
          "internalType": "uint256[]",
          "name": "values",
          "type": "uint256[]"
        }
      ],
      "name": "TransferBatch",
      "type": "event"
    },
    {
      "anonymous": false,
      "inputs": [
        {
          "indexed": true,
          "internalType": "address",
          "name": "operator",
          "type": "address"
        },
        {
          "indexed": true,
          "internalType": "address",
          "name": "from",
          "type": "address"
        },
        {
          "indexed": true,
          "internalType": "address",
          "name": "to",
          "type": "address"
        },
        {
          "indexed": false,
          "internalType": "uint256",
          "name": "id",
          "type": "uint256"
        },
        {
          "indexed": false,
          "internalType": "uint256",
          "name": "value",
          "type": "uint256"
        }
      ],
      "name": "TransferSingle",
      "type": "event"
    },
    {
      "anonymous": false,
      "inputs": [
        {
          "indexed": false,
          "internalType": "string",
          "name": "value",
          "type": "string"
        },
        {
          "indexed": true,
          "internalType": "uint256",
          "name": "id",
          "type": "uint256"
        }
      ],
      "name": "URI",
      "type": "event"
    },
    {
      "anonymous": false,
      "inputs": [
        {
          "indexed": false,
          "internalType": "uint256",
          "name": "id",
          "type": "uint256"
        },
        {
          "indexed": false,
          "internalType": "uint256",
          "name": "amount",
          "type": "uint256"
        }
      ],
      "name": "positionCreated",
      "type": "event"
    },
    {
      "inputs": [],
      "name": "NO",
      "outputs": [
        {
          "internalType": "uint256",
          "name": "",
          "type": "uint256"
        }
      ],
      "stateMutability": "view",
      "type": "function"
    },
    {
      "inputs": [],
      "name": "YES",
      "outputs": [
        {
          "internalType": "uint256",
          "name": "",
          "type": "uint256"
        }
      ],
      "stateMutability": "view",
      "type": "function"
    },
    {
      "inputs": [
        {
          "internalType": "address",
          "name": "account",
          "type": "address"
        },
        {
          "internalType": "uint256",
          "name": "id",
          "type": "uint256"
        }
      ],
      "name": "balanceOf",
      "outputs": [
        {
          "internalType": "uint256",
          "name": "",
          "type": "uint256"
        }
      ],
      "stateMutability": "view",
      "type": "function"
    },
    {
      "inputs": [
        {
          "internalType": "address[]",
          "name": "accounts",
          "type": "address[]"
        },
        {
          "internalType": "uint256[]",
          "name": "ids",
          "type": "uint256[]"
        }
      ],
      "name": "balanceOfBatch",
      "outputs": [
        {
          "internalType": "uint256[]",
          "name": "",
          "type": "uint256[]"
        }
      ],
      "stateMutability": "view",
      "type": "function"
    },
    {
      "inputs": [
        {
          "internalType": "address",
          "name": "account",
          "type": "address"
        },
        {
          "internalType": "uint256",
          "name": "id",
          "type": "uint256"
        },
        {
          "internalType": "uint256",
          "name": "value",
          "type": "uint256"
        }
      ],
      "name": "burn",
      "outputs": [],
      "stateMutability": "nonpayable",
      "type": "function"
    },
    {
      "inputs": [
        {
          "internalType": "address",
          "name": "account",
          "type": "address"
        },
        {
          "internalType": "uint256[]",
          "name": "ids",
          "type": "uint256[]"
        },
        {
          "internalType": "uint256[]",
          "name": "values",
          "type": "uint256[]"
        }
      ],
      "name": "burnBatch",
      "outputs": [],
      "stateMutability": "nonpayable",
      "type": "function"
    },
    {
      "inputs": [],
      "name": "cashOut",
      "outputs": [],
      "stateMutability": "nonpayable",
      "type": "function"
    },
    {
      "inputs": [],
      "name": "closingDate",
      "outputs": [
        {
          "internalType": "uint256",
          "name": "",
          "type": "uint256"
        }
      ],
      "stateMutability": "view",
      "type": "function"
    },
    {
      "inputs": [
        {
          "internalType": "uint256",
          "name": "id",
          "type": "uint256"
        }
      ],
      "name": "exists",
      "outputs": [
        {
          "internalType": "bool",
          "name": "",
          "type": "bool"
        }
      ],
      "stateMutability": "view",
      "type": "function"
    },
    {
      "inputs": [],
      "name": "favored",
      "outputs": [
        {
          "internalType": "bool",
          "name": "",
          "type": "bool"
        }
      ],
      "stateMutability": "view",
      "type": "function"
    },
    {
      "inputs": [],
      "name": "feeCollector",
      "outputs": [
        {
          "internalType": "address",
          "name": "",
          "type": "address"
        }
      ],
      "stateMutability": "view",
      "type": "function"
    },
    {
      "inputs": [],
      "name": "fetched",
      "outputs": [
        {
          "internalType": "bool",
          "name": "",
          "type": "bool"
        }
      ],
      "stateMutability": "view",
      "type": "function"
    },
    {
      "inputs": [],
      "name": "getData",
      "outputs": [],
      "stateMutability": "nonpayable",
      "type": "function"
    },
    {
      "inputs": [
        {
          "internalType": "uint256",
          "name": "_predictionPrice",
          "type": "uint256"
        },
        {
          "internalType": "address",
          "name": "_oracleFeed",
          "type": "address"
        },
        {
          "internalType": "contract IERC20",
          "name": "_usdc",
          "type": "address"
        },
        {
          "internalType": "uint256",
          "name": "_closingDate",
          "type": "uint256"
        }
      ],
      "name": "initialize",
      "outputs": [],
      "stateMutability": "nonpayable",
      "type": "function"
    },
    {
      "inputs": [
        {
          "internalType": "address",
          "name": "account",
          "type": "address"
        },
        {
          "internalType": "address",
          "name": "operator",
          "type": "address"
        }
      ],
      "name": "isApprovedForAll",
      "outputs": [
        {
          "internalType": "bool",
          "name": "",
          "type": "bool"
        }
      ],
      "stateMutability": "view",
      "type": "function"
    },
    {
      "inputs": [
        {
          "internalType": "address",
          "name": "",
          "type": "address"
        },
        {
          "internalType": "uint256",
          "name": "id",
          "type": "uint256"
        },
        {
          "internalType": "uint256",
          "name": "amount",
          "type": "uint256"
        },
        {
          "internalType": "bytes",
          "name": "data",
          "type": "bytes"
        }
      ],
      "name": "mint",
      "outputs": [],
      "stateMutability": "nonpayable",
      "type": "function"
    },
    {
      "inputs": [
        {
          "internalType": "address",
          "name": "to",
          "type": "address"
        },
        {
          "internalType": "uint256[]",
          "name": "ids",
          "type": "uint256[]"
        },
        {
          "internalType": "uint256[]",
          "name": "amounts",
          "type": "uint256[]"
        },
        {
          "internalType": "bytes",
          "name": "data",
          "type": "bytes"
        }
      ],
      "name": "mintBatch",
      "outputs": [],
      "stateMutability": "nonpayable",
      "type": "function"
    },
    {
      "inputs": [],
      "name": "owner",
      "outputs": [
        {
          "internalType": "address",
          "name": "",
          "type": "address"
        }
      ],
      "stateMutability": "view",
      "type": "function"
    },
    {
      "inputs": [],
      "name": "predictionPrice",
      "outputs": [
        {
          "internalType": "uint256",
          "name": "",
          "type": "uint256"
        }
      ],
      "stateMutability": "view",
      "type": "function"
    },
    {
      "inputs": [],
      "name": "renounceOwnership",
      "outputs": [],
      "stateMutability": "nonpayable",
      "type": "function"
    },
    {
      "inputs": [],
      "name": "resolveAssetPrice",
      "outputs": [],
      "stateMutability": "nonpayable",
      "type": "function"
    },
    {
      "inputs": [],
      "name": "resolved",
      "outputs": [
        {
          "internalType": "bool",
          "name": "",
          "type": "bool"
        }
      ],
      "stateMutability": "view",
      "type": "function"
    },
    {
      "inputs": [
        {
          "internalType": "address",
          "name": "from",
          "type": "address"
        },
        {
          "internalType": "address",
          "name": "to",
          "type": "address"
        },
        {
          "internalType": "uint256[]",
          "name": "ids",
          "type": "uint256[]"
        },
        {
          "internalType": "uint256[]",
          "name": "amounts",
          "type": "uint256[]"
        },
        {
          "internalType": "bytes",
          "name": "data",
          "type": "bytes"
        }
      ],
      "name": "safeBatchTransferFrom",
      "outputs": [],
      "stateMutability": "nonpayable",
      "type": "function"
    },
    {
      "inputs": [
        {
          "internalType": "address",
          "name": "from",
          "type": "address"
        },
        {
          "internalType": "address",
          "name": "to",
          "type": "address"
        },
        {
          "internalType": "uint256",
          "name": "id",
          "type": "uint256"
        },
        {
          "internalType": "uint256",
          "name": "amount",
          "type": "uint256"
        },
        {
          "internalType": "bytes",
          "name": "data",
          "type": "bytes"
        }
      ],
      "name": "safeTransferFrom",
      "outputs": [],
      "stateMutability": "nonpayable",
      "type": "function"
    },
    {
      "inputs": [
        {
          "internalType": "address",
          "name": "operator",
          "type": "address"
        },
        {
          "internalType": "bool",
          "name": "approved",
          "type": "bool"
        }
      ],
      "name": "setApprovalForAll",
      "outputs": [],
      "stateMutability": "nonpayable",
      "type": "function"
    },
    {
      "inputs": [
        {
          "internalType": "string",
          "name": "newuri",
          "type": "string"
        }
      ],
      "name": "setURI",
      "outputs": [],
      "stateMutability": "nonpayable",
      "type": "function"
    },
    {
      "inputs": [
        {
          "internalType": "bytes4",
          "name": "interfaceId",
          "type": "bytes4"
        }
      ],
      "name": "supportsInterface",
      "outputs": [
        {
          "internalType": "bool",
          "name": "",
          "type": "bool"
        }
      ],
      "stateMutability": "view",
      "type": "function"
    },
    {
      "inputs": [
        {
          "internalType": "uint256",
          "name": "id",
          "type": "uint256"
        }
      ],
      "name": "totalSupply",
      "outputs": [
        {
          "internalType": "uint256",
          "name": "",
          "type": "uint256"
        }
      ],
      "stateMutability": "view",
      "type": "function"
    },
    {
      "inputs": [
        {
          "internalType": "address",
          "name": "newOwner",
          "type": "address"
        }
      ],
      "name": "transferOwnership",
      "outputs": [],
      "stateMutability": "nonpayable",
      "type": "function"
    },
    {
      "inputs": [
        {
          "internalType": "string",
          "name": "_newSku",
          "type": "string"
        }
      ],
      "name": "updateSku",
      "outputs": [],
      "stateMutability": "nonpayable",
      "type": "function"
    },
    {
      "inputs": [
        {
          "internalType": "uint256",
          "name": "",
          "type": "uint256"
        }
      ],
      "name": "uri",
      "outputs": [
        {
          "internalType": "string",
          "name": "",
          "type": "string"
        }
      ],
      "stateMutability": "view",
      "type": "function"
    }
  ],
  "bytecode": "0x60806040526008805460ff60b01b19169055426009553480156200002257600080fd5b5060405162002db338038062002db38339810160408190526200004591620000de565b80620000518162000064565b506200005d3362000076565b506200030e565b600262000072828262000242565b5050565b600380546001600160a01b038381166001600160a01b0319831681179093556040519116919082907f8be0079c531659141344cd1fd0a4f28419497f9722a3daafe3b4186f6b6457e090600090a35050565b634e487b7160e01b600052604160045260246000fd5b60006020808385031215620000f257600080fd5b82516001600160401b03808211156200010a57600080fd5b818501915085601f8301126200011f57600080fd5b815181811115620001345762000134620000c8565b604051601f8201601f19908116603f011681019083821181831017156200015f576200015f620000c8565b8160405282815288868487010111156200017857600080fd5b600093505b828410156200019c57848401860151818501870152928501926200017d565b600086848301015280965050505050505092915050565b600181811c90821680620001c857607f821691505b602082108103620001e957634e487b7160e01b600052602260045260246000fd5b50919050565b601f8211156200023d57600081815260208120601f850160051c81016020861015620002185750805b601f850160051c820191505b81811015620002395782815560010162000224565b5050505b505050565b81516001600160401b038111156200025e576200025e620000c8565b62000276816200026f8454620001b3565b84620001ef565b602080601f831160018114620002ae5760008415620002955750858301515b600019600386901b1c1916600185901b17855562000239565b600085815260208120601f198616915b82811015620002df57888601518255948401946001909101908401620002be565b5085821015620002fe5787850151600019600388901b60f8161c191681555b5050505050600190811b01905550565b612a95806200031e6000396000f3fe608060405234801561001057600080fd5b50600436106101e45760003560e01c8063731133e91161010f578063bd85b039116100a2578063e985e9c511610071578063e985e9c5146103fb578063f242432a14610437578063f2fde38b1461044a578063f5298aca1461045d57600080fd5b8063bd85b039146103a1578063c415b95c146103c1578063caedcd89146103d4578063e37259e9146103e857600080fd5b80639eae0c4c116100de5780639eae0c4c14610375578063a22cb4651461037d578063a628828f14610390578063b2449d651461039957600080fd5b8063731133e914610322578063793cd71e14610335578063812922051461033d5780638da5cb5b1461035057600080fd5b80631f7fdffa116101875780634e1273f4116101565780634e1273f4146102c55780634f558e79146102e55780636b20c45414610307578063715018a61461031a57600080fd5b80631f7fdffa1461028a5780632eb2c2d61461029d5780633bc5de30146102b05780633f6fa655146102b857600080fd5b8063039491df116101c3578063039491df1461024757806306311394146102595780630d483442146102625780630e89341c1461026a57600080fd5b8062fdd58e146101e957806301ffc9a71461020f57806302fe530514610232575b600080fd5b6101fc6101f7366004611fd7565b610470565b6040519081526020015b60405180910390f35b61022261021d366004612019565b61051c565b6040519015158152602001610206565b6102456102403660046120de565b6105b7565b005b60085461022290610100900460ff1681565b6101fc60065481565b6101fc600281565b61027d61027836600461212f565b6105cb565b604051610206919061218e565b610245610298366004612256565b61065f565b6102456102ab3660046122f1565b610679565b61024561070d565b6008546102229060ff1681565b6102d86102d336600461239f565b6107c3565b60405161020691906124a7565b6102226102f336600461212f565b600090815260046020526040902054151590565b6102456103153660046124ba565b610901565b610245610991565b610245610330366004612530565b6109a5565b6102456109f0565b61024561034b3660046120de565b610b23565b6003546001600160a01b03165b6040516001600160a01b039091168152602001610206565b610245610ba7565b61024561038b366004612595565b610c5e565b6101fc600a5481565b6101fc600181565b6101fc6103af36600461212f565b60009081526004602052604090205490565b60055461035d906001600160a01b031681565b60085461022290600160b01b900460ff1681565b6102456103f63660046125ce565b610c69565b610222610409366004612616565b6001600160a01b03918216600090815260016020908152604080832093909416825291909152205460ff1690565b610245610445366004612644565b610cda565b6102456104583660046126ad565b610d67565b61024561046b3660046126ca565b610df4565b60006001600160a01b0383166104f35760405162461bcd60e51b815260206004820152602a60248201527f455243313135353a2061646472657373207a65726f206973206e6f742061207660448201527f616c6964206f776e65720000000000000000000000000000000000000000000060648201526084015b60405180910390fd5b506000818152602081815260408083206001600160a01b03861684529091529020545b92915050565b60006001600160e01b031982167fd9b67a2600000000000000000000000000000000000000000000000000000000148061057f57506001600160e01b031982167f0e89341c00000000000000000000000000000000000000000000000000000000145b8061051657507f01ffc9a7000000000000000000000000000000000000000000000000000000006001600160e01b0319831614610516565b6105bf610e7f565b6105c881610ed9565b50565b6060600280546105da906126ff565b80601f0160208091040260200160405190810160405280929190818152602001828054610606906126ff565b80156106535780601f1061062857610100808354040283529160200191610653565b820191906000526020600020905b81548152906001019060200180831161063657829003601f168201915b50505050509050919050565b610667610e7f565b61067384848484610ee5565b50505050565b6001600160a01b03851633148061069557506106958533610409565b6106f95760405162461bcd60e51b815260206004820152602f60248201527f455243313135353a2063616c6c6572206973206e6f7420746f6b656e206f776e60448201526e195c881b9bdc88185c1c1c9bdd9959608a1b60648201526084016104ea565b61070685858585856110ba565b5050505050565b610715610e7f565b600860029054906101000a90046001600160a01b03166001600160a01b0316631604f9ea6040518163ffffffff1660e01b81526004016020604051808303816000875af115801561076a573d6000803e3d6000fd5b505050506040513d601f19601f8201168201806040525081019061078e9190612739565b50600880547fffffffffffffffffff00ffffffffffffffffffffffffffffffffffffffffffff16600160b01b17905542600755565b6060815183511461083c5760405162461bcd60e51b815260206004820152602960248201527f455243313135353a206163636f756e747320616e6420696473206c656e67746860448201527f206d69736d61746368000000000000000000000000000000000000000000000060648201526084016104ea565b6000835167ffffffffffffffff8111156108585761085861203d565b604051908082528060200260200182016040528015610881578160200160208202803683370190505b50905060005b84518110156108f9576108cc8582815181106108a5576108a5612752565b60200260200101518583815181106108bf576108bf612752565b6020026020010151610470565b8282815181106108de576108de612752565b60209081029190910101526108f28161277e565b9050610887565b509392505050565b6001600160a01b03831633148061091d575061091d8333610409565b6109815760405162461bcd60e51b815260206004820152602f60248201527f455243313135353a2063616c6c6572206973206e6f7420746f6b656e206f776e60448201526e195c881b9bdc88185c1c1c9bdd9959608a1b60648201526084016104ea565b61098c838383611326565b505050565b610999610e7f565b6109a3600061157b565b565b6109b1338484846115da565b60408051848152602081018490527f3923a82cb620a1af3ec9322d3347e92e90f81f20cef82079a61145417437251a910160405180910390a150505050565b60085460ff161515600114610a475760405162461bcd60e51b815260206004820152601460248201527f44617461206e6f7420666574636865642079657400000000000000000000000060448201526064016104ea565b600854610100900460ff161515600103610b08576000610a68336001610470565b9050610a76336001836116fd565b600b546040517fa9059cbb000000000000000000000000000000000000000000000000000000008152336004820152602481018390526001600160a01b039091169063a9059cbb906044016020604051808303816000875af1158015610ae0573d6000803e3d6000fd5b505050506040513d601f19601f82011682018060405250810190610b049190612797565b5050565b6000610b15336002610470565b9050610a76336002836116fd565b610b2b610e7f565b6008546040517ff80be41b000000000000000000000000000000000000000000000000000000008152620100009091046001600160a01b03169063f80be41b90610b7990849060040161218e565b600060405180830381600087803b158015610b9357600080fd5b505af1158015610706573d6000803e3d6000fd5b610baf610e7f565b600860029054906101000a90046001600160a01b03166001600160a01b031663a035b1fe6040518163ffffffff1660e01b8152600401602060405180830381865afa158015610c02573d6000803e3d6000fd5b505050506040513d601f19601f82011682018060405250810190610c269190612739565b6006541115610c43576008805461ff001916610100179055610c4f565b6008805461ff00191690555b6008805460ff19166001179055565b610b0433838361188d565b610c71610e7f565b600a55600880547fffffffffffffffffffff0000000000000000000000000000000000000000ffff16620100006001600160a01b0394851602179055600692909255600b805473ffffffffffffffffffffffffffffffffffffffff191692909116919091179055565b6001600160a01b038516331480610cf65750610cf68533610409565b610d5a5760405162461bcd60e51b815260206004820152602f60248201527f455243313135353a2063616c6c6572206973206e6f7420746f6b656e206f776e60448201526e195c881b9bdc88185c1c1c9bdd9959608a1b60648201526084016104ea565b6107068585858585611981565b610d6f610e7f565b6001600160a01b038116610deb5760405162461bcd60e51b815260206004820152602660248201527f4f776e61626c653a206e6577206f776e657220697320746865207a65726f206160448201527f646472657373000000000000000000000000000000000000000000000000000060648201526084016104ea565b6105c88161157b565b6001600160a01b038316331480610e105750610e108333610409565b610e745760405162461bcd60e51b815260206004820152602f60248201527f455243313135353a2063616c6c6572206973206e6f7420746f6b656e206f776e60448201526e195c881b9bdc88185c1c1c9bdd9959608a1b60648201526084016104ea565b61098c8383836116fd565b6003546001600160a01b031633146109a35760405162461bcd60e51b815260206004820181905260248201527f4f776e61626c653a2063616c6c6572206973206e6f7420746865206f776e657260448201526064016104ea565b6002610b0482826127fa565b6001600160a01b038416610f455760405162461bcd60e51b815260206004820152602160248201527f455243313135353a206d696e7420746f20746865207a65726f206164647265736044820152607360f81b60648201526084016104ea565b8151835114610fa75760405162461bcd60e51b815260206004820152602860248201527f455243313135353a2069647320616e6420616d6f756e7473206c656e677468206044820152670dad2e6dac2e8c6d60c31b60648201526084016104ea565b33610fb781600087878787611b3a565b60005b845181101561105257838181518110610fd557610fd5612752565b6020026020010151600080878481518110610ff257610ff2612752565b602002602001015181526020019081526020016000206000886001600160a01b03166001600160a01b03168152602001908152602001600020600082825461103a91906128ba565b9091555081905061104a8161277e565b915050610fba565b50846001600160a01b031660006001600160a01b0316826001600160a01b03167f4a39dc06d4c0dbc64b70af90fd698a233a518aa5d07e595d983b8c0526c8f7fb87876040516110a39291906128cd565b60405180910390a461070681600087878787611b48565b815183511461111c5760405162461bcd60e51b815260206004820152602860248201527f455243313135353a2069647320616e6420616d6f756e7473206c656e677468206044820152670dad2e6dac2e8c6d60c31b60648201526084016104ea565b6001600160a01b0384166111805760405162461bcd60e51b815260206004820152602560248201527f455243313135353a207472616e7366657220746f20746865207a65726f206164604482015264647265737360d81b60648201526084016104ea565b3361118f818787878787611b3a565b60005b84518110156112b85760008582815181106111af576111af612752565b6020026020010151905060008583815181106111cd576111cd612752565b602090810291909101810151600084815280835260408082206001600160a01b038e1683529093529190912054909150818110156112605760405162461bcd60e51b815260206004820152602a60248201527f455243313135353a20696e73756666696369656e742062616c616e636520666f60448201526939103a3930b739b332b960b11b60648201526084016104ea565b6000838152602081815260408083206001600160a01b038e8116855292528083208585039055908b1682528120805484929061129d9084906128ba565b92505081905550505050806112b19061277e565b9050611192565b50846001600160a01b0316866001600160a01b0316826001600160a01b03167f4a39dc06d4c0dbc64b70af90fd698a233a518aa5d07e595d983b8c0526c8f7fb87876040516113089291906128cd565b60405180910390a461131e818787878787611b48565b505050505050565b6001600160a01b0383166113885760405162461bcd60e51b815260206004820152602360248201527f455243313135353a206275726e2066726f6d20746865207a65726f206164647260448201526265737360e81b60648201526084016104ea565b80518251146113ea5760405162461bcd60e51b815260206004820152602860248201527f455243313135353a2069647320616e6420616d6f756e7473206c656e677468206044820152670dad2e6dac2e8c6d60c31b60648201526084016104ea565b600033905061140d81856000868660405180602001604052806000815250611b3a565b60005b835181101561150e57600084828151811061142d5761142d612752565b60200260200101519050600084838151811061144b5761144b612752565b602090810291909101810151600084815280835260408082206001600160a01b038c1683529093529190912054909150818110156114d75760405162461bcd60e51b8152602060048201526024808201527f455243313135353a206275726e20616d6f756e7420657863656564732062616c604482015263616e636560e01b60648201526084016104ea565b6000928352602083815260408085206001600160a01b038b16865290915290922091039055806115068161277e565b915050611410565b5060006001600160a01b0316846001600160a01b0316826001600160a01b03167f4a39dc06d4c0dbc64b70af90fd698a233a518aa5d07e595d983b8c0526c8f7fb868660405161155f9291906128cd565b60405180910390a4604080516020810190915260009052610673565b600380546001600160a01b0383811673ffffffffffffffffffffffffffffffffffffffff19831681179093556040519116919082907f8be0079c531659141344cd1fd0a4f28419497f9722a3daafe3b4186f6b6457e090600090a35050565b6001600160a01b03841661163a5760405162461bcd60e51b815260206004820152602160248201527f455243313135353a206d696e7420746f20746865207a65726f206164647265736044820152607360f81b60648201526084016104ea565b33600061164685611ced565b9050600061165385611ced565b905061166483600089858589611b3a565b6000868152602081815260408083206001600160a01b038b168452909152812080548792906116949084906128ba565b909155505060408051878152602081018790526001600160a01b03808a1692600092918716917fc3d58168c5ae7397731d063d5bbf3d657854427343f4c083240f7aacaa2d0f62910160405180910390a46116f483600089898989611d38565b50505050505050565b6001600160a01b03831661175f5760405162461bcd60e51b815260206004820152602360248201527f455243313135353a206275726e2066726f6d20746865207a65726f206164647260448201526265737360e81b60648201526084016104ea565b33600061176b84611ced565b9050600061177884611ced565b905061179883876000858560405180602001604052806000815250611b3a565b6000858152602081815260408083206001600160a01b038a168452909152902054848110156118155760405162461bcd60e51b8152602060048201526024808201527f455243313135353a206275726e20616d6f756e7420657863656564732062616c604482015263616e636560e01b60648201526084016104ea565b6000868152602081815260408083206001600160a01b038b81168086529184528285208a8703905582518b81529384018a90529092908816917fc3d58168c5ae7397731d063d5bbf3d657854427343f4c083240f7aacaa2d0f62910160405180910390a46040805160208101909152600090526116f4565b816001600160a01b0316836001600160a01b0316036119145760405162461bcd60e51b815260206004820152602960248201527f455243313135353a2073657474696e6720617070726f76616c2073746174757360448201527f20666f722073656c66000000000000000000000000000000000000000000000060648201526084016104ea565b6001600160a01b03838116600081815260016020908152604080832094871680845294825291829020805460ff191686151590811790915591519182527f17307eab39ab6107e8899845ad3d59bd9653f200f220920489ca2b5937696c31910160405180910390a3505050565b6001600160a01b0384166119e55760405162461bcd60e51b815260206004820152602560248201527f455243313135353a207472616e7366657220746f20746865207a65726f206164604482015264647265737360d81b60648201526084016104ea565b3360006119f185611ced565b905060006119fe85611ced565b9050611a0e838989858589611b3a565b6000868152602081815260408083206001600160a01b038c16845290915290205485811015611a925760405162461bcd60e51b815260206004820152602a60248201527f455243313135353a20696e73756666696369656e742062616c616e636520666f60448201526939103a3930b739b332b960b11b60648201526084016104ea565b6000878152602081815260408083206001600160a01b038d8116855292528083208985039055908a16825281208054889290611acf9084906128ba565b909155505060408051888152602081018890526001600160a01b03808b16928c821692918816917fc3d58168c5ae7397731d063d5bbf3d657854427343f4c083240f7aacaa2d0f62910160405180910390a4611b2f848a8a8a8a8a611d38565b505050505050505050565b61131e868686868686611e34565b6001600160a01b0384163b1561131e5760405163bc197c8160e01b81526001600160a01b0385169063bc197c8190611b8c90899089908890889088906004016128fb565b6020604051808303816000875af1925050508015611bc7575060408051601f3d908101601f19168201909252611bc491810190612959565b60015b611c7c57611bd3612976565b806308c379a003611c0c5750611be7612992565b80611bf25750611c0e565b8060405162461bcd60e51b81526004016104ea919061218e565b505b60405162461bcd60e51b815260206004820152603460248201527f455243313135353a207472616e7366657220746f206e6f6e204552433131353560448201527f526563656976657220696d706c656d656e74657200000000000000000000000060648201526084016104ea565b6001600160e01b0319811663bc197c8160e01b146116f45760405162461bcd60e51b815260206004820152602860248201527f455243313135353a204552433131353552656365697665722072656a656374656044820152676420746f6b656e7360c01b60648201526084016104ea565b60408051600180825281830190925260609160009190602080830190803683370190505090508281600081518110611d2757611d27612752565b602090810291909101015292915050565b6001600160a01b0384163b1561131e5760405163f23a6e6160e01b81526001600160a01b0385169063f23a6e6190611d7c9089908990889088908890600401612a1c565b6020604051808303816000875af1925050508015611db7575060408051601f3d908101601f19168201909252611db491810190612959565b60015b611dc357611bd3612976565b6001600160e01b0319811663f23a6e6160e01b146116f45760405162461bcd60e51b815260206004820152602860248201527f455243313135353a204552433131353552656365697665722072656a656374656044820152676420746f6b656e7360c01b60648201526084016104ea565b6001600160a01b038516611ebb5760005b8351811015611eb957828181518110611e6057611e60612752565b602002602001015160046000868481518110611e7e57611e7e612752565b602002602001015181526020019081526020016000206000828254611ea391906128ba565b90915550611eb290508161277e565b9050611e45565b505b6001600160a01b03841661131e5760005b83518110156116f4576000848281518110611ee957611ee9612752565b602002602001015190506000848381518110611f0757611f07612752565b6020026020010151905060006004600084815260200190815260200160002054905081811015611f9f5760405162461bcd60e51b815260206004820152602860248201527f455243313135353a206275726e20616d6f756e74206578636565647320746f7460448201527f616c537570706c7900000000000000000000000000000000000000000000000060648201526084016104ea565b60009283526004602052604090922091039055611fbb8161277e565b9050611ecc565b6001600160a01b03811681146105c857600080fd5b60008060408385031215611fea57600080fd5b8235611ff581611fc2565b946020939093013593505050565b6001600160e01b0319811681146105c857600080fd5b60006020828403121561202b57600080fd5b813561203681612003565b9392505050565b634e487b7160e01b600052604160045260246000fd5b601f8201601f1916810167ffffffffffffffff811182821017156120795761207961203d565b6040525050565b600067ffffffffffffffff83111561209a5761209a61203d565b6040516120b1601f8501601f191660200182612053565b8091508381528484840111156120c657600080fd5b83836020830137600060208583010152509392505050565b6000602082840312156120f057600080fd5b813567ffffffffffffffff81111561210757600080fd5b8201601f8101841361211857600080fd5b61212784823560208401612080565b949350505050565b60006020828403121561214157600080fd5b5035919050565b6000815180845260005b8181101561216e57602081850181015186830182015201612152565b506000602082860101526020601f19601f83011685010191505092915050565b6020815260006120366020830184612148565b600067ffffffffffffffff8211156121bb576121bb61203d565b5060051b60200190565b600082601f8301126121d657600080fd5b813560206121e3826121a1565b6040516121f08282612053565b83815260059390931b850182019282810191508684111561221057600080fd5b8286015b8481101561222b5780358352918301918301612214565b509695505050505050565b600082601f83011261224757600080fd5b61203683833560208501612080565b6000806000806080858703121561226c57600080fd5b843561227781611fc2565b9350602085013567ffffffffffffffff8082111561229457600080fd5b6122a0888389016121c5565b945060408701359150808211156122b657600080fd5b6122c2888389016121c5565b935060608701359150808211156122d857600080fd5b506122e587828801612236565b91505092959194509250565b600080600080600060a0868803121561230957600080fd5b853561231481611fc2565b9450602086013561232481611fc2565b9350604086013567ffffffffffffffff8082111561234157600080fd5b61234d89838a016121c5565b9450606088013591508082111561236357600080fd5b61236f89838a016121c5565b9350608088013591508082111561238557600080fd5b5061239288828901612236565b9150509295509295909350565b600080604083850312156123b257600080fd5b823567ffffffffffffffff808211156123ca57600080fd5b818501915085601f8301126123de57600080fd5b813560206123eb826121a1565b6040516123f88282612053565b83815260059390931b850182019282810191508984111561241857600080fd5b948201945b8386101561243f57853561243081611fc2565b8252948201949082019061241d565b9650508601359250508082111561245557600080fd5b50612462858286016121c5565b9150509250929050565b600081518084526020808501945080840160005b8381101561249c57815187529582019590820190600101612480565b509495945050505050565b602081526000612036602083018461246c565b6000806000606084860312156124cf57600080fd5b83356124da81611fc2565b9250602084013567ffffffffffffffff808211156124f757600080fd5b612503878388016121c5565b9350604086013591508082111561251957600080fd5b50612526868287016121c5565b9150509250925092565b6000806000806080858703121561254657600080fd5b843561255181611fc2565b93506020850135925060408501359150606085013567ffffffffffffffff81111561257b57600080fd5b6122e587828801612236565b80151581146105c857600080fd5b600080604083850312156125a857600080fd5b82356125b381611fc2565b915060208301356125c381612587565b809150509250929050565b600080600080608085870312156125e457600080fd5b8435935060208501356125f681611fc2565b9250604085013561260681611fc2565b9396929550929360600135925050565b6000806040838503121561262957600080fd5b823561263481611fc2565b915060208301356125c381611fc2565b600080600080600060a0868803121561265c57600080fd5b853561266781611fc2565b9450602086013561267781611fc2565b93506040860135925060608601359150608086013567ffffffffffffffff8111156126a157600080fd5b61239288828901612236565b6000602082840312156126bf57600080fd5b813561203681611fc2565b6000806000606084860312156126df57600080fd5b83356126ea81611fc2565b95602085013595506040909401359392505050565b600181811c9082168061271357607f821691505b60208210810361273357634e487b7160e01b600052602260045260246000fd5b50919050565b60006020828403121561274b57600080fd5b5051919050565b634e487b7160e01b600052603260045260246000fd5b634e487b7160e01b600052601160045260246000fd5b60006001820161279057612790612768565b5060010190565b6000602082840312156127a957600080fd5b815161203681612587565b601f82111561098c57600081815260208120601f850160051c810160208610156127db5750805b601f850160051c820191505b8181101561131e578281556001016127e7565b815167ffffffffffffffff8111156128145761281461203d565b6128288161282284546126ff565b846127b4565b602080601f83116001811461285d57600084156128455750858301515b600019600386901b1c1916600185901b17855561131e565b600085815260208120601f198616915b8281101561288c5788860151825594840194600190910190840161286d565b50858210156128aa5787850151600019600388901b60f8161c191681555b5050505050600190811b01905550565b8082018082111561051657610516612768565b6040815260006128e0604083018561246c565b82810360208401526128f2818561246c565b95945050505050565b60006001600160a01b03808816835280871660208401525060a0604083015261292760a083018661246c565b8281036060840152612939818661246c565b9050828103608084015261294d8185612148565b98975050505050505050565b60006020828403121561296b57600080fd5b815161203681612003565b600060033d111561298f5760046000803e5060005160e01c5b90565b600060443d10156129a05790565b6040516003193d81016004833e81513d67ffffffffffffffff81602484011181841117156129d057505050505090565b82850191508151818111156129e85750505050505090565b843d8701016020828501011115612a025750505050505090565b612a1160208286010187612053565b509095945050505050565b60006001600160a01b03808816835280871660208401525084604083015283606083015260a06080830152612a5460a0830184612148565b97965050505050505056fea2646970667358221220afa4632bc697f5744ec58f5eb1034d4a4f95cd5a748c72e688c71f73d6b4796764736f6c63430008100033",
  "linkReferences": {},
  "deployedLinkReferences": {}
}