{
  "_format": "hh-sol-artifact-1",
  "contractName": "Market",
  "sourceName": "contracts/Market.sol",
  "abi": [
    {
      "inputs": [
        {
          "internalType": "string",
          "name": "uri_",
          "type": "string"
        }
      ],
      "stateMutability": "nonpayable",
      "type": "constructor"
    },
    {
      "anonymous": false,
      "inputs": [
        {
          "indexed": true,
          "internalType": "address",
          "name": "account",
          "type": "address"
        },
        {
          "indexed": true,
          "internalType": "address",
          "name": "operator",
          "type": "address"
        },
        {
          "indexed": false,
          "internalType": "bool",
          "name": "approved",
          "type": "bool"
        }
      ],
      "name": "ApprovalForAll",
      "type": "event"
    },
    {
      "anonymous": false,
      "inputs": [
        {
          "indexed": true,
          "internalType": "address",
          "name": "previousOwner",
          "type": "address"
        },
        {
          "indexed": true,
          "internalType": "address",
          "name": "newOwner",
          "type": "address"
        }
      ],
      "name": "OwnershipTransferred",
      "type": "event"
    },
    {
      "anonymous": false,
      "inputs": [
        {
          "indexed": true,
          "internalType": "address",
          "name": "operator",
          "type": "address"
        },
        {
          "indexed": true,
          "internalType": "address",
          "name": "from",
          "type": "address"
        },
        {
          "indexed": true,
          "internalType": "address",
          "name": "to",
          "type": "address"
        },
        {
          "indexed": false,
          "internalType": "uint256[]",
          "name": "ids",
          "type": "uint256[]"
        },
        {
          "indexed": false,
          "internalType": "uint256[]",
          "name": "values",
          "type": "uint256[]"
        }
      ],
      "name": "TransferBatch",
      "type": "event"
    },
    {
      "anonymous": false,
      "inputs": [
        {
          "indexed": true,
          "internalType": "address",
          "name": "operator",
          "type": "address"
        },
        {
          "indexed": true,
          "internalType": "address",
          "name": "from",
          "type": "address"
        },
        {
          "indexed": true,
          "internalType": "address",
          "name": "to",
          "type": "address"
        },
        {
          "indexed": false,
          "internalType": "uint256",
          "name": "id",
          "type": "uint256"
        },
        {
          "indexed": false,
          "internalType": "uint256",
          "name": "value",
          "type": "uint256"
        }
      ],
      "name": "TransferSingle",
      "type": "event"
    },
    {
      "anonymous": false,
      "inputs": [
        {
          "indexed": false,
          "internalType": "string",
          "name": "value",
          "type": "string"
        },
        {
          "indexed": true,
          "internalType": "uint256",
          "name": "id",
          "type": "uint256"
        }
      ],
      "name": "URI",
      "type": "event"
    },
    {
      "anonymous": false,
      "inputs": [
        {
          "indexed": false,
          "internalType": "uint256",
          "name": "id",
          "type": "uint256"
        },
        {
          "indexed": false,
          "internalType": "uint256",
          "name": "amount",
          "type": "uint256"
        }
      ],
      "name": "positionCreated",
      "type": "event"
    },
    {
      "inputs": [],
      "name": "NO",
      "outputs": [
        {
          "internalType": "uint256",
          "name": "",
          "type": "uint256"
        }
      ],
      "stateMutability": "view",
      "type": "function"
    },
    {
      "inputs": [],
      "name": "YES",
      "outputs": [
        {
          "internalType": "uint256",
          "name": "",
          "type": "uint256"
        }
      ],
      "stateMutability": "view",
      "type": "function"
    },
    {
      "inputs": [
        {
          "internalType": "address",
          "name": "account",
          "type": "address"
        },
        {
          "internalType": "uint256",
          "name": "id",
          "type": "uint256"
        }
      ],
      "name": "balanceOf",
      "outputs": [
        {
          "internalType": "uint256",
          "name": "",
          "type": "uint256"
        }
      ],
      "stateMutability": "view",
      "type": "function"
    },
    {
      "inputs": [
        {
          "internalType": "address[]",
          "name": "accounts",
          "type": "address[]"
        },
        {
          "internalType": "uint256[]",
          "name": "ids",
          "type": "uint256[]"
        }
      ],
      "name": "balanceOfBatch",
      "outputs": [
        {
          "internalType": "uint256[]",
          "name": "",
          "type": "uint256[]"
        }
      ],
      "stateMutability": "view",
      "type": "function"
    },
    {
      "inputs": [
        {
          "internalType": "address",
          "name": "account",
          "type": "address"
        },
        {
          "internalType": "uint256",
          "name": "id",
          "type": "uint256"
        },
        {
          "internalType": "uint256",
          "name": "value",
          "type": "uint256"
        }
      ],
      "name": "burn",
      "outputs": [],
      "stateMutability": "nonpayable",
      "type": "function"
    },
    {
      "inputs": [
        {
          "internalType": "address",
          "name": "account",
          "type": "address"
        },
        {
          "internalType": "uint256[]",
          "name": "ids",
          "type": "uint256[]"
        },
        {
          "internalType": "uint256[]",
          "name": "values",
          "type": "uint256[]"
        }
      ],
      "name": "burnBatch",
      "outputs": [],
      "stateMutability": "nonpayable",
      "type": "function"
    },
    {
      "inputs": [],
      "name": "cashOut",
      "outputs": [],
      "stateMutability": "nonpayable",
      "type": "function"
    },
    {
      "inputs": [],
      "name": "closingDate",
      "outputs": [
        {
          "internalType": "uint256",
          "name": "",
          "type": "uint256"
        }
      ],
      "stateMutability": "view",
      "type": "function"
    },
    {
      "inputs": [
        {
          "internalType": "uint256",
          "name": "id",
          "type": "uint256"
        }
      ],
      "name": "exists",
      "outputs": [
        {
          "internalType": "bool",
          "name": "",
          "type": "bool"
        }
      ],
      "stateMutability": "view",
      "type": "function"
    },
    {
      "inputs": [],
      "name": "favored",
      "outputs": [
        {
          "internalType": "bool",
          "name": "",
          "type": "bool"
        }
      ],
      "stateMutability": "view",
      "type": "function"
    },
    {
      "inputs": [],
      "name": "feeCollector",
      "outputs": [
        {
          "internalType": "address",
          "name": "",
          "type": "address"
        }
      ],
      "stateMutability": "view",
      "type": "function"
    },
    {
      "inputs": [],
      "name": "fetched",
      "outputs": [
        {
          "internalType": "bool",
          "name": "",
          "type": "bool"
        }
      ],
      "stateMutability": "view",
      "type": "function"
    },
    {
      "inputs": [],
      "name": "getData",
      "outputs": [],
      "stateMutability": "nonpayable",
      "type": "function"
    },
    {
      "inputs": [
        {
          "internalType": "uint256",
          "name": "_predictionPrice",
          "type": "uint256"
        },
        {
          "internalType": "address",
          "name": "_oracleFeed",
          "type": "address"
        },
        {
          "internalType": "contract IERC20",
          "name": "_usdc",
          "type": "address"
        },
        {
          "internalType": "uint256",
          "name": "_closingDate",
          "type": "uint256"
        }
      ],
      "name": "initialize",
      "outputs": [],
      "stateMutability": "nonpayable",
      "type": "function"
    },
    {
      "inputs": [
        {
          "internalType": "address",
          "name": "account",
          "type": "address"
        },
        {
          "internalType": "address",
          "name": "operator",
          "type": "address"
        }
      ],
      "name": "isApprovedForAll",
      "outputs": [
        {
          "internalType": "bool",
          "name": "",
          "type": "bool"
        }
      ],
      "stateMutability": "view",
      "type": "function"
    },
    {
      "inputs": [
        {
          "internalType": "address",
          "name": "",
          "type": "address"
        },
        {
          "internalType": "uint256",
          "name": "id",
          "type": "uint256"
        },
        {
          "internalType": "uint256",
          "name": "amount",
          "type": "uint256"
        },
        {
          "internalType": "bytes",
          "name": "data",
          "type": "bytes"
        }
      ],
      "name": "mint",
      "outputs": [],
      "stateMutability": "nonpayable",
      "type": "function"
    },
    {
      "inputs": [
        {
          "internalType": "address",
          "name": "to",
          "type": "address"
        },
        {
          "internalType": "uint256[]",
          "name": "ids",
          "type": "uint256[]"
        },
        {
          "internalType": "uint256[]",
          "name": "amounts",
          "type": "uint256[]"
        },
        {
          "internalType": "bytes",
          "name": "data",
          "type": "bytes"
        }
      ],
      "name": "mintBatch",
      "outputs": [],
      "stateMutability": "nonpayable",
      "type": "function"
    },
    {
      "inputs": [],
      "name": "owner",
      "outputs": [
        {
          "internalType": "address",
          "name": "",
          "type": "address"
        }
      ],
      "stateMutability": "view",
      "type": "function"
    },
    {
      "inputs": [],
      "name": "predictionPrice",
      "outputs": [
        {
          "internalType": "uint256",
          "name": "",
          "type": "uint256"
        }
      ],
      "stateMutability": "view",
      "type": "function"
    },
    {
      "inputs": [],
      "name": "renounceOwnership",
      "outputs": [],
      "stateMutability": "nonpayable",
      "type": "function"
    },
    {
      "inputs": [],
      "name": "resolveAssetPrice",
      "outputs": [],
      "stateMutability": "nonpayable",
      "type": "function"
    },
    {
      "inputs": [],
      "name": "resolved",
      "outputs": [
        {
          "internalType": "bool",
          "name": "",
          "type": "bool"
        }
      ],
      "stateMutability": "view",
      "type": "function"
    },
    {
      "inputs": [
        {
          "internalType": "address",
          "name": "from",
          "type": "address"
        },
        {
          "internalType": "address",
          "name": "to",
          "type": "address"
        },
        {
          "internalType": "uint256[]",
          "name": "ids",
          "type": "uint256[]"
        },
        {
          "internalType": "uint256[]",
          "name": "amounts",
          "type": "uint256[]"
        },
        {
          "internalType": "bytes",
          "name": "data",
          "type": "bytes"
        }
      ],
      "name": "safeBatchTransferFrom",
      "outputs": [],
      "stateMutability": "nonpayable",
      "type": "function"
    },
    {
      "inputs": [
        {
          "internalType": "address",
          "name": "from",
          "type": "address"
        },
        {
          "internalType": "address",
          "name": "to",
          "type": "address"
        },
        {
          "internalType": "uint256",
          "name": "id",
          "type": "uint256"
        },
        {
          "internalType": "uint256",
          "name": "amount",
          "type": "uint256"
        },
        {
          "internalType": "bytes",
          "name": "data",
          "type": "bytes"
        }
      ],
      "name": "safeTransferFrom",
      "outputs": [],
      "stateMutability": "nonpayable",
      "type": "function"
    },
    {
      "inputs": [
        {
          "internalType": "address",
          "name": "operator",
          "type": "address"
        },
        {
          "internalType": "bool",
          "name": "approved",
          "type": "bool"
        }
      ],
      "name": "setApprovalForAll",
      "outputs": [],
      "stateMutability": "nonpayable",
      "type": "function"
    },
    {
      "inputs": [
        {
          "internalType": "string",
          "name": "newuri",
          "type": "string"
        }
      ],
      "name": "setURI",
      "outputs": [],
      "stateMutability": "nonpayable",
      "type": "function"
    },
    {
      "inputs": [
        {
          "internalType": "bytes4",
          "name": "interfaceId",
          "type": "bytes4"
        }
      ],
      "name": "supportsInterface",
      "outputs": [
        {
          "internalType": "bool",
          "name": "",
          "type": "bool"
        }
      ],
      "stateMutability": "view",
      "type": "function"
    },
    {
      "inputs": [
        {
          "internalType": "uint256",
          "name": "id",
          "type": "uint256"
        }
      ],
      "name": "totalSupply",
      "outputs": [
        {
          "internalType": "uint256",
          "name": "",
          "type": "uint256"
        }
      ],
      "stateMutability": "view",
      "type": "function"
    },
    {
      "inputs": [
        {
          "internalType": "address",
          "name": "newOwner",
          "type": "address"
        }
      ],
      "name": "transferOwnership",
      "outputs": [],
      "stateMutability": "nonpayable",
      "type": "function"
    },
    {
      "inputs": [
        {
          "internalType": "uint256",
          "name": "",
          "type": "uint256"
        }
      ],
      "name": "uri",
      "outputs": [
        {
          "internalType": "string",
          "name": "",
          "type": "string"
        }
      ],
      "stateMutability": "view",
      "type": "function"
    }
  ],
  "bytecode": "0x60806040526008805460ff60b01b19169055426009553480156200002257600080fd5b5060405162002d1138038062002d118339810160408190526200004591620000de565b80620000518162000064565b506200005d3362000076565b506200030e565b600262000072828262000242565b5050565b600380546001600160a01b038381166001600160a01b0319831681179093556040519116919082907f8be0079c531659141344cd1fd0a4f28419497f9722a3daafe3b4186f6b6457e090600090a35050565b634e487b7160e01b600052604160045260246000fd5b60006020808385031215620000f257600080fd5b82516001600160401b03808211156200010a57600080fd5b818501915085601f8301126200011f57600080fd5b815181811115620001345762000134620000c8565b604051601f8201601f19908116603f011681019083821181831017156200015f576200015f620000c8565b8160405282815288868487010111156200017857600080fd5b600093505b828410156200019c57848401860151818501870152928501926200017d565b600086848301015280965050505050505092915050565b600181811c90821680620001c857607f821691505b602082108103620001e957634e487b7160e01b600052602260045260246000fd5b50919050565b601f8211156200023d57600081815260208120601f850160051c81016020861015620002185750805b601f850160051c820191505b81811015620002395782815560010162000224565b5050505b505050565b81516001600160401b038111156200025e576200025e620000c8565b62000276816200026f8454620001b3565b84620001ef565b602080601f831160018114620002ae5760008415620002955750858301515b600019600386901b1c1916600185901b17855562000239565b600085815260208120601f198616915b82811015620002df57888601518255948401946001909101908401620002be565b5085821015620002fe5787850151600019600388901b60f8161c191681555b5050505050600190811b01905550565b6129f3806200031e6000396000f3fe608060405234801561001057600080fd5b50600436106101d95760003560e01c8063731133e911610104578063bd85b039116100a2578063e985e9c511610071578063e985e9c5146103dd578063f242432a14610419578063f2fde38b1461042c578063f5298aca1461043f57600080fd5b8063bd85b03914610383578063c415b95c146103a3578063caedcd89146103b6578063e37259e9146103ca57600080fd5b80639eae0c4c116100de5780639eae0c4c14610357578063a22cb4651461035f578063a628828f14610372578063b2449d651461037b57600080fd5b8063731133e914610317578063793cd71e1461032a5780638da5cb5b1461033257600080fd5b80631f7fdffa1161017c5780634e1273f41161014b5780634e1273f4146102ba5780634f558e79146102da5780636b20c454146102fc578063715018a61461030f57600080fd5b80631f7fdffa1461027f5780632eb2c2d6146102925780633bc5de30146102a55780633f6fa655146102ad57600080fd5b8063039491df116101b8578063039491df1461023c578063063113941461024e5780630d483442146102575780630e89341c1461025f57600080fd5b8062fdd58e146101de57806301ffc9a71461020457806302fe530514610227575b600080fd5b6101f16101ec366004611f35565b610452565b6040519081526020015b60405180910390f35b610217610212366004611f77565b6104fe565b60405190151581526020016101fb565b61023a61023536600461203c565b610599565b005b60085461021790610100900460ff1681565b6101f160065481565b6101f1600281565b61027261026d36600461208d565b6105ad565b6040516101fb91906120ec565b61023a61028d3660046121b4565b610641565b61023a6102a036600461224f565b61065b565b61023a6106ef565b6008546102179060ff1681565b6102cd6102c83660046122fd565b6107a5565b6040516101fb9190612405565b6102176102e836600461208d565b600090815260046020526040902054151590565b61023a61030a366004612418565b6108e3565b61023a610973565b61023a61032536600461248e565b610987565b61023a6109d2565b6003546001600160a01b03165b6040516001600160a01b0390911681526020016101fb565b61023a610b05565b61023a61036d3660046124f3565b610bbc565b6101f1600a5481565b6101f1600181565b6101f161039136600461208d565b60009081526004602052604090205490565b60055461033f906001600160a01b031681565b60085461021790600160b01b900460ff1681565b61023a6103d836600461252c565b610bc7565b6102176103eb366004612574565b6001600160a01b03918216600090815260016020908152604080832093909416825291909152205460ff1690565b61023a6104273660046125a2565b610c38565b61023a61043a36600461260b565b610cc5565b61023a61044d366004612628565b610d52565b60006001600160a01b0383166104d55760405162461bcd60e51b815260206004820152602a60248201527f455243313135353a2061646472657373207a65726f206973206e6f742061207660448201527f616c6964206f776e65720000000000000000000000000000000000000000000060648201526084015b60405180910390fd5b506000818152602081815260408083206001600160a01b03861684529091529020545b92915050565b60006001600160e01b031982167fd9b67a2600000000000000000000000000000000000000000000000000000000148061056157506001600160e01b031982167f0e89341c00000000000000000000000000000000000000000000000000000000145b806104f857507f01ffc9a7000000000000000000000000000000000000000000000000000000006001600160e01b03198316146104f8565b6105a1610ddd565b6105aa81610e37565b50565b6060600280546105bc9061265d565b80601f01602080910402602001604051908101604052809291908181526020018280546105e89061265d565b80156106355780601f1061060a57610100808354040283529160200191610635565b820191906000526020600020905b81548152906001019060200180831161061857829003601f168201915b50505050509050919050565b610649610ddd565b61065584848484610e43565b50505050565b6001600160a01b038516331480610677575061067785336103eb565b6106db5760405162461bcd60e51b815260206004820152602f60248201527f455243313135353a2063616c6c6572206973206e6f7420746f6b656e206f776e60448201526e195c881b9bdc88185c1c1c9bdd9959608a1b60648201526084016104cc565b6106e88585858585611018565b5050505050565b6106f7610ddd565b600860029054906101000a90046001600160a01b03166001600160a01b0316631604f9ea6040518163ffffffff1660e01b81526004016020604051808303816000875af115801561074c573d6000803e3d6000fd5b505050506040513d601f19601f820116820180604052508101906107709190612697565b50600880547fffffffffffffffffff00ffffffffffffffffffffffffffffffffffffffffffff16600160b01b17905542600755565b6060815183511461081e5760405162461bcd60e51b815260206004820152602960248201527f455243313135353a206163636f756e747320616e6420696473206c656e67746860448201527f206d69736d61746368000000000000000000000000000000000000000000000060648201526084016104cc565b6000835167ffffffffffffffff81111561083a5761083a611f9b565b604051908082528060200260200182016040528015610863578160200160208202803683370190505b50905060005b84518110156108db576108ae858281518110610887576108876126b0565b60200260200101518583815181106108a1576108a16126b0565b6020026020010151610452565b8282815181106108c0576108c06126b0565b60209081029190910101526108d4816126dc565b9050610869565b509392505050565b6001600160a01b0383163314806108ff57506108ff83336103eb565b6109635760405162461bcd60e51b815260206004820152602f60248201527f455243313135353a2063616c6c6572206973206e6f7420746f6b656e206f776e60448201526e195c881b9bdc88185c1c1c9bdd9959608a1b60648201526084016104cc565b61096e838383611284565b505050565b61097b610ddd565b61098560006114d9565b565b61099333848484611538565b60408051848152602081018490527f3923a82cb620a1af3ec9322d3347e92e90f81f20cef82079a61145417437251a910160405180910390a150505050565b60085460ff161515600114610a295760405162461bcd60e51b815260206004820152601460248201527f44617461206e6f7420666574636865642079657400000000000000000000000060448201526064016104cc565b600854610100900460ff161515600103610aea576000610a4a336001610452565b9050610a583360018361165b565b600b546040517fa9059cbb000000000000000000000000000000000000000000000000000000008152336004820152602481018390526001600160a01b039091169063a9059cbb906044016020604051808303816000875af1158015610ac2573d6000803e3d6000fd5b505050506040513d601f19601f82011682018060405250810190610ae691906126f5565b5050565b6000610af7336002610452565b9050610a583360028361165b565b610b0d610ddd565b600860029054906101000a90046001600160a01b03166001600160a01b031663a035b1fe6040518163ffffffff1660e01b8152600401602060405180830381865afa158015610b60573d6000803e3d6000fd5b505050506040513d601f19601f82011682018060405250810190610b849190612697565b6006541115610ba1576008805461ff001916610100179055610bad565b6008805461ff00191690555b6008805460ff19166001179055565b610ae63383836117eb565b610bcf610ddd565b600a55600880547fffffffffffffffffffff0000000000000000000000000000000000000000ffff16620100006001600160a01b0394851602179055600692909255600b805473ffffffffffffffffffffffffffffffffffffffff191692909116919091179055565b6001600160a01b038516331480610c545750610c5485336103eb565b610cb85760405162461bcd60e51b815260206004820152602f60248201527f455243313135353a2063616c6c6572206973206e6f7420746f6b656e206f776e60448201526e195c881b9bdc88185c1c1c9bdd9959608a1b60648201526084016104cc565b6106e885858585856118df565b610ccd610ddd565b6001600160a01b038116610d495760405162461bcd60e51b815260206004820152602660248201527f4f776e61626c653a206e6577206f776e657220697320746865207a65726f206160448201527f646472657373000000000000000000000000000000000000000000000000000060648201526084016104cc565b6105aa816114d9565b6001600160a01b038316331480610d6e5750610d6e83336103eb565b610dd25760405162461bcd60e51b815260206004820152602f60248201527f455243313135353a2063616c6c6572206973206e6f7420746f6b656e206f776e60448201526e195c881b9bdc88185c1c1c9bdd9959608a1b60648201526084016104cc565b61096e83838361165b565b6003546001600160a01b031633146109855760405162461bcd60e51b815260206004820181905260248201527f4f776e61626c653a2063616c6c6572206973206e6f7420746865206f776e657260448201526064016104cc565b6002610ae68282612758565b6001600160a01b038416610ea35760405162461bcd60e51b815260206004820152602160248201527f455243313135353a206d696e7420746f20746865207a65726f206164647265736044820152607360f81b60648201526084016104cc565b8151835114610f055760405162461bcd60e51b815260206004820152602860248201527f455243313135353a2069647320616e6420616d6f756e7473206c656e677468206044820152670dad2e6dac2e8c6d60c31b60648201526084016104cc565b33610f1581600087878787611a98565b60005b8451811015610fb057838181518110610f3357610f336126b0565b6020026020010151600080878481518110610f5057610f506126b0565b602002602001015181526020019081526020016000206000886001600160a01b03166001600160a01b031681526020019081526020016000206000828254610f989190612818565b90915550819050610fa8816126dc565b915050610f18565b50846001600160a01b031660006001600160a01b0316826001600160a01b03167f4a39dc06d4c0dbc64b70af90fd698a233a518aa5d07e595d983b8c0526c8f7fb878760405161100192919061282b565b60405180910390a46106e881600087878787611aa6565b815183511461107a5760405162461bcd60e51b815260206004820152602860248201527f455243313135353a2069647320616e6420616d6f756e7473206c656e677468206044820152670dad2e6dac2e8c6d60c31b60648201526084016104cc565b6001600160a01b0384166110de5760405162461bcd60e51b815260206004820152602560248201527f455243313135353a207472616e7366657220746f20746865207a65726f206164604482015264647265737360d81b60648201526084016104cc565b336110ed818787878787611a98565b60005b845181101561121657600085828151811061110d5761110d6126b0565b60200260200101519050600085838151811061112b5761112b6126b0565b602090810291909101810151600084815280835260408082206001600160a01b038e1683529093529190912054909150818110156111be5760405162461bcd60e51b815260206004820152602a60248201527f455243313135353a20696e73756666696369656e742062616c616e636520666f60448201526939103a3930b739b332b960b11b60648201526084016104cc565b6000838152602081815260408083206001600160a01b038e8116855292528083208585039055908b168252812080548492906111fb908490612818565b925050819055505050508061120f906126dc565b90506110f0565b50846001600160a01b0316866001600160a01b0316826001600160a01b03167f4a39dc06d4c0dbc64b70af90fd698a233a518aa5d07e595d983b8c0526c8f7fb878760405161126692919061282b565b60405180910390a461127c818787878787611aa6565b505050505050565b6001600160a01b0383166112e65760405162461bcd60e51b815260206004820152602360248201527f455243313135353a206275726e2066726f6d20746865207a65726f206164647260448201526265737360e81b60648201526084016104cc565b80518251146113485760405162461bcd60e51b815260206004820152602860248201527f455243313135353a2069647320616e6420616d6f756e7473206c656e677468206044820152670dad2e6dac2e8c6d60c31b60648201526084016104cc565b600033905061136b81856000868660405180602001604052806000815250611a98565b60005b835181101561146c57600084828151811061138b5761138b6126b0565b6020026020010151905060008483815181106113a9576113a96126b0565b602090810291909101810151600084815280835260408082206001600160a01b038c1683529093529190912054909150818110156114355760405162461bcd60e51b8152602060048201526024808201527f455243313135353a206275726e20616d6f756e7420657863656564732062616c604482015263616e636560e01b60648201526084016104cc565b6000928352602083815260408085206001600160a01b038b1686529091529092209103905580611464816126dc565b91505061136e565b5060006001600160a01b0316846001600160a01b0316826001600160a01b03167f4a39dc06d4c0dbc64b70af90fd698a233a518aa5d07e595d983b8c0526c8f7fb86866040516114bd92919061282b565b60405180910390a4604080516020810190915260009052610655565b600380546001600160a01b0383811673ffffffffffffffffffffffffffffffffffffffff19831681179093556040519116919082907f8be0079c531659141344cd1fd0a4f28419497f9722a3daafe3b4186f6b6457e090600090a35050565b6001600160a01b0384166115985760405162461bcd60e51b815260206004820152602160248201527f455243313135353a206d696e7420746f20746865207a65726f206164647265736044820152607360f81b60648201526084016104cc565b3360006115a485611c4b565b905060006115b185611c4b565b90506115c283600089858589611a98565b6000868152602081815260408083206001600160a01b038b168452909152812080548792906115f2908490612818565b909155505060408051878152602081018790526001600160a01b03808a1692600092918716917fc3d58168c5ae7397731d063d5bbf3d657854427343f4c083240f7aacaa2d0f62910160405180910390a461165283600089898989611c96565b50505050505050565b6001600160a01b0383166116bd5760405162461bcd60e51b815260206004820152602360248201527f455243313135353a206275726e2066726f6d20746865207a65726f206164647260448201526265737360e81b60648201526084016104cc565b3360006116c984611c4b565b905060006116d684611c4b565b90506116f683876000858560405180602001604052806000815250611a98565b6000858152602081815260408083206001600160a01b038a168452909152902054848110156117735760405162461bcd60e51b8152602060048201526024808201527f455243313135353a206275726e20616d6f756e7420657863656564732062616c604482015263616e636560e01b60648201526084016104cc565b6000868152602081815260408083206001600160a01b038b81168086529184528285208a8703905582518b81529384018a90529092908816917fc3d58168c5ae7397731d063d5bbf3d657854427343f4c083240f7aacaa2d0f62910160405180910390a4604080516020810190915260009052611652565b816001600160a01b0316836001600160a01b0316036118725760405162461bcd60e51b815260206004820152602960248201527f455243313135353a2073657474696e6720617070726f76616c2073746174757360448201527f20666f722073656c66000000000000000000000000000000000000000000000060648201526084016104cc565b6001600160a01b03838116600081815260016020908152604080832094871680845294825291829020805460ff191686151590811790915591519182527f17307eab39ab6107e8899845ad3d59bd9653f200f220920489ca2b5937696c31910160405180910390a3505050565b6001600160a01b0384166119435760405162461bcd60e51b815260206004820152602560248201527f455243313135353a207472616e7366657220746f20746865207a65726f206164604482015264647265737360d81b60648201526084016104cc565b33600061194f85611c4b565b9050600061195c85611c4b565b905061196c838989858589611a98565b6000868152602081815260408083206001600160a01b038c168452909152902054858110156119f05760405162461bcd60e51b815260206004820152602a60248201527f455243313135353a20696e73756666696369656e742062616c616e636520666f60448201526939103a3930b739b332b960b11b60648201526084016104cc565b6000878152602081815260408083206001600160a01b038d8116855292528083208985039055908a16825281208054889290611a2d908490612818565b909155505060408051888152602081018890526001600160a01b03808b16928c821692918816917fc3d58168c5ae7397731d063d5bbf3d657854427343f4c083240f7aacaa2d0f62910160405180910390a4611a8d848a8a8a8a8a611c96565b505050505050505050565b61127c868686868686611d92565b6001600160a01b0384163b1561127c5760405163bc197c8160e01b81526001600160a01b0385169063bc197c8190611aea9089908990889088908890600401612859565b6020604051808303816000875af1925050508015611b25575060408051601f3d908101601f19168201909252611b22918101906128b7565b60015b611bda57611b316128d4565b806308c379a003611b6a5750611b456128f0565b80611b505750611b6c565b8060405162461bcd60e51b81526004016104cc91906120ec565b505b60405162461bcd60e51b815260206004820152603460248201527f455243313135353a207472616e7366657220746f206e6f6e204552433131353560448201527f526563656976657220696d706c656d656e74657200000000000000000000000060648201526084016104cc565b6001600160e01b0319811663bc197c8160e01b146116525760405162461bcd60e51b815260206004820152602860248201527f455243313135353a204552433131353552656365697665722072656a656374656044820152676420746f6b656e7360c01b60648201526084016104cc565b60408051600180825281830190925260609160009190602080830190803683370190505090508281600081518110611c8557611c856126b0565b602090810291909101015292915050565b6001600160a01b0384163b1561127c5760405163f23a6e6160e01b81526001600160a01b0385169063f23a6e6190611cda908990899088908890889060040161297a565b6020604051808303816000875af1925050508015611d15575060408051601f3d908101601f19168201909252611d12918101906128b7565b60015b611d2157611b316128d4565b6001600160e01b0319811663f23a6e6160e01b146116525760405162461bcd60e51b815260206004820152602860248201527f455243313135353a204552433131353552656365697665722072656a656374656044820152676420746f6b656e7360c01b60648201526084016104cc565b6001600160a01b038516611e195760005b8351811015611e1757828181518110611dbe57611dbe6126b0565b602002602001015160046000868481518110611ddc57611ddc6126b0565b602002602001015181526020019081526020016000206000828254611e019190612818565b90915550611e109050816126dc565b9050611da3565b505b6001600160a01b03841661127c5760005b8351811015611652576000848281518110611e4757611e476126b0565b602002602001015190506000848381518110611e6557611e656126b0565b6020026020010151905060006004600084815260200190815260200160002054905081811015611efd5760405162461bcd60e51b815260206004820152602860248201527f455243313135353a206275726e20616d6f756e74206578636565647320746f7460448201527f616c537570706c7900000000000000000000000000000000000000000000000060648201526084016104cc565b60009283526004602052604090922091039055611f19816126dc565b9050611e2a565b6001600160a01b03811681146105aa57600080fd5b60008060408385031215611f4857600080fd5b8235611f5381611f20565b946020939093013593505050565b6001600160e01b0319811681146105aa57600080fd5b600060208284031215611f8957600080fd5b8135611f9481611f61565b9392505050565b634e487b7160e01b600052604160045260246000fd5b601f8201601f1916810167ffffffffffffffff81118282101715611fd757611fd7611f9b565b6040525050565b600067ffffffffffffffff831115611ff857611ff8611f9b565b60405161200f601f8501601f191660200182611fb1565b80915083815284848401111561202457600080fd5b83836020830137600060208583010152509392505050565b60006020828403121561204e57600080fd5b813567ffffffffffffffff81111561206557600080fd5b8201601f8101841361207657600080fd5b61208584823560208401611fde565b949350505050565b60006020828403121561209f57600080fd5b5035919050565b6000815180845260005b818110156120cc576020818501810151868301820152016120b0565b506000602082860101526020601f19601f83011685010191505092915050565b602081526000611f9460208301846120a6565b600067ffffffffffffffff82111561211957612119611f9b565b5060051b60200190565b600082601f83011261213457600080fd5b81356020612141826120ff565b60405161214e8282611fb1565b83815260059390931b850182019282810191508684111561216e57600080fd5b8286015b848110156121895780358352918301918301612172565b509695505050505050565b600082601f8301126121a557600080fd5b611f9483833560208501611fde565b600080600080608085870312156121ca57600080fd5b84356121d581611f20565b9350602085013567ffffffffffffffff808211156121f257600080fd5b6121fe88838901612123565b9450604087013591508082111561221457600080fd5b61222088838901612123565b9350606087013591508082111561223657600080fd5b5061224387828801612194565b91505092959194509250565b600080600080600060a0868803121561226757600080fd5b853561227281611f20565b9450602086013561228281611f20565b9350604086013567ffffffffffffffff8082111561229f57600080fd5b6122ab89838a01612123565b945060608801359150808211156122c157600080fd5b6122cd89838a01612123565b935060808801359150808211156122e357600080fd5b506122f088828901612194565b9150509295509295909350565b6000806040838503121561231057600080fd5b823567ffffffffffffffff8082111561232857600080fd5b818501915085601f83011261233c57600080fd5b81356020612349826120ff565b6040516123568282611fb1565b83815260059390931b850182019282810191508984111561237657600080fd5b948201945b8386101561239d57853561238e81611f20565b8252948201949082019061237b565b965050860135925050808211156123b357600080fd5b506123c085828601612123565b9150509250929050565b600081518084526020808501945080840160005b838110156123fa578151875295820195908201906001016123de565b509495945050505050565b602081526000611f9460208301846123ca565b60008060006060848603121561242d57600080fd5b833561243881611f20565b9250602084013567ffffffffffffffff8082111561245557600080fd5b61246187838801612123565b9350604086013591508082111561247757600080fd5b5061248486828701612123565b9150509250925092565b600080600080608085870312156124a457600080fd5b84356124af81611f20565b93506020850135925060408501359150606085013567ffffffffffffffff8111156124d957600080fd5b61224387828801612194565b80151581146105aa57600080fd5b6000806040838503121561250657600080fd5b823561251181611f20565b91506020830135612521816124e5565b809150509250929050565b6000806000806080858703121561254257600080fd5b84359350602085013561255481611f20565b9250604085013561256481611f20565b9396929550929360600135925050565b6000806040838503121561258757600080fd5b823561259281611f20565b9150602083013561252181611f20565b600080600080600060a086880312156125ba57600080fd5b85356125c581611f20565b945060208601356125d581611f20565b93506040860135925060608601359150608086013567ffffffffffffffff8111156125ff57600080fd5b6122f088828901612194565b60006020828403121561261d57600080fd5b8135611f9481611f20565b60008060006060848603121561263d57600080fd5b833561264881611f20565b95602085013595506040909401359392505050565b600181811c9082168061267157607f821691505b60208210810361269157634e487b7160e01b600052602260045260246000fd5b50919050565b6000602082840312156126a957600080fd5b5051919050565b634e487b7160e01b600052603260045260246000fd5b634e487b7160e01b600052601160045260246000fd5b6000600182016126ee576126ee6126c6565b5060010190565b60006020828403121561270757600080fd5b8151611f94816124e5565b601f82111561096e57600081815260208120601f850160051c810160208610156127395750805b601f850160051c820191505b8181101561127c57828155600101612745565b815167ffffffffffffffff81111561277257612772611f9b565b61278681612780845461265d565b84612712565b602080601f8311600181146127bb57600084156127a35750858301515b600019600386901b1c1916600185901b17855561127c565b600085815260208120601f198616915b828110156127ea578886015182559484019460019091019084016127cb565b50858210156128085787850151600019600388901b60f8161c191681555b5050505050600190811b01905550565b808201808211156104f8576104f86126c6565b60408152600061283e60408301856123ca565b828103602084015261285081856123ca565b95945050505050565b60006001600160a01b03808816835280871660208401525060a0604083015261288560a08301866123ca565b828103606084015261289781866123ca565b905082810360808401526128ab81856120a6565b98975050505050505050565b6000602082840312156128c957600080fd5b8151611f9481611f61565b600060033d11156128ed5760046000803e5060005160e01c5b90565b600060443d10156128fe5790565b6040516003193d81016004833e81513d67ffffffffffffffff816024840111818411171561292e57505050505090565b82850191508151818111156129465750505050505090565b843d87010160208285010111156129605750505050505090565b61296f60208286010187611fb1565b509095945050505050565b60006001600160a01b03808816835280871660208401525084604083015283606083015260a060808301526129b260a08301846120a6565b97965050505050505056fea2646970667358221220aed0da4b646dd3fa1a6f941dbdcb9fb2fc093940c67102fc26123cc8ac78d9af64736f6c63430008100033",
  "linkReferences": {},
  "deployedLinkReferences": {}
}