{
  "_format": "hh-sol-artifact-1",
  "contractName": "MarketFactory",
  "sourceName": "contracts/MarketFactory.sol",
  "abi": [
    {
      "inputs": [],
      "stateMutability": "nonpayable",
      "type": "constructor"
    },
    {
      "anonymous": false,
      "inputs": [
        {
          "indexed": true,
          "internalType": "address",
          "name": "previousOwner",
          "type": "address"
        },
        {
          "indexed": true,
          "internalType": "address",
          "name": "newOwner",
          "type": "address"
        }
      ],
      "name": "OwnershipTransferred",
      "type": "event"
    },
    {
      "anonymous": false,
      "inputs": [
        {
          "indexed": false,
          "internalType": "string",
          "name": "sku",
          "type": "string"
        },
        {
          "indexed": false,
          "internalType": "uint256",
          "name": "_predictionPrice",
          "type": "uint256"
        },
        {
          "indexed": false,
          "internalType": "uint256",
          "name": "closingDate",
          "type": "uint256"
        }
      ],
      "name": "marketCreated",
      "type": "event"
    },
    {
      "inputs": [
        {
          "internalType": "uint256",
          "name": "",
          "type": "uint256"
        }
      ],
      "name": "allMarkets",
      "outputs": [
        {
          "internalType": "address",
          "name": "",
          "type": "address"
        }
      ],
      "stateMutability": "view",
      "type": "function"
    },
    {
      "inputs": [
        {
          "internalType": "string",
          "name": "uri",
          "type": "string"
        },
        {
          "internalType": "uint256",
          "name": "_predictionPrice",
          "type": "uint256"
        },
        {
          "internalType": "address",
          "name": "_oracleFeed",
          "type": "address"
        },
        {
          "internalType": "uint256",
          "name": "_closingDate",
          "type": "uint256"
        },
        {
          "internalType": "contract IERC20",
          "name": "_usdc",
          "type": "address"
        }
      ],
      "name": "createNewMarket",
      "outputs": [],
      "stateMutability": "nonpayable",
      "type": "function"
    },
    {
      "inputs": [
        {
          "internalType": "string",
          "name": "sku",
          "type": "string"
        },
        {
          "internalType": "uint256",
          "name": "_predictionPrice",
          "type": "uint256"
        },
        {
          "internalType": "uint256",
          "name": "closingDate",
          "type": "uint256"
        }
      ],
      "name": "getMarket",
      "outputs": [
        {
          "internalType": "address",
          "name": "",
          "type": "address"
        }
      ],
      "stateMutability": "view",
      "type": "function"
    },
    {
      "inputs": [
        {
          "internalType": "bytes32",
          "name": "",
          "type": "bytes32"
        }
      ],
      "name": "markets",
      "outputs": [
        {
          "internalType": "address",
          "name": "",
          "type": "address"
        }
      ],
      "stateMutability": "view",
      "type": "function"
    },
    {
      "inputs": [],
      "name": "owner",
      "outputs": [
        {
          "internalType": "address",
          "name": "",
          "type": "address"
        }
      ],
      "stateMutability": "view",
      "type": "function"
    },
    {
      "inputs": [],
      "name": "renounceOwnership",
      "outputs": [],
      "stateMutability": "nonpayable",
      "type": "function"
    },
    {
      "inputs": [
        {
          "internalType": "address",
          "name": "newOwner",
          "type": "address"
        }
      ],
      "name": "transferOwnership",
      "outputs": [],
      "stateMutability": "nonpayable",
      "type": "function"
    }
  ],
  "bytecode": "0x608060405234801561001057600080fd5b5061002d61002261003260201b60201c565b61003a60201b60201c565b6100fe565b600033905090565b60008060009054906101000a900473ffffffffffffffffffffffffffffffffffffffff169050816000806101000a81548173ffffffffffffffffffffffffffffffffffffffff021916908373ffffffffffffffffffffffffffffffffffffffff1602179055508173ffffffffffffffffffffffffffffffffffffffff168173ffffffffffffffffffffffffffffffffffffffff167f8be0079c531659141344cd1fd0a4f28419497f9722a3daafe3b4186f6b6457e060405160405180910390a35050565b615deb8061010d6000396000f3fe60806040523480156200001157600080fd5b5060043610620000885760003560e01c80637564912b11620000635780637564912b14620001055780638da5cb5b146200013b578063ca736d4c146200015d578063f2fde38b146200017d5762000088565b806352d84d1e146200008d57806355201b1314620000c3578063715018a614620000f9575b600080fd5b620000ab6004803603810190620000a591906200075d565b6200019d565b604051620000ba9190620007d4565b60405180910390f35b620000e16004803603810190620000db919062000953565b620001dd565b604051620000f09190620007d4565b60405180910390f35b620001036200024d565b005b6200012360048036038101906200011d919062000a09565b62000265565b604051620001329190620007d4565b60405180910390f35b6200014562000298565b604051620001549190620007d4565b60405180910390f35b6200017b600480360381019062000175919062000ab1565b620002c1565b005b6200019b600480360381019062000195919062000b58565b62000525565b005b60028181548110620001ae57600080fd5b906000526020600020016000915054906101000a900473ffffffffffffffffffffffffffffffffffffffff1681565b600080848484604051602001620001f79392919062000c28565b6040516020818303038152906040528051906020012090506001600082815260200190815260200160002060009054906101000a900473ffffffffffffffffffffffffffffffffffffffff169150509392505050565b62000257620005af565b62000263600062000634565b565b60016020528060005260406000206000915054906101000a900473ffffffffffffffffffffffffffffffffffffffff1681565b60008060009054906101000a900473ffffffffffffffffffffffffffffffffffffffff16905090565b620002cb620005af565b600085604051620002dc9062000700565b620002e8919062000cb9565b604051809103906000f08015801562000305573d6000803e3d6000fd5b5090508073ffffffffffffffffffffffffffffffffffffffff1663e37259e9868685876040518563ffffffff1660e01b815260040162000349949392919062000d59565b600060405180830381600087803b1580156200036457600080fd5b505af115801562000379573d6000803e3d6000fd5b5050505060008473ffffffffffffffffffffffffffffffffffffffff16634462f40c6040518163ffffffff1660e01b8152600401600060405180830381865afa158015620003cb573d6000803e3d6000fd5b505050506040513d6000823e3d601f19601f82011682018060405250810190620003f6919062000e24565b90506000818786604051602001620004119392919062000c28565b604051602081830303815290604052805190602001209050826001600083815260200190815260200160002060006101000a81548173ffffffffffffffffffffffffffffffffffffffff021916908373ffffffffffffffffffffffffffffffffffffffff1602179055506002839080600181540180825580915050600190039060005260206000200160009091909190916101000a81548173ffffffffffffffffffffffffffffffffffffffff021916908373ffffffffffffffffffffffffffffffffffffffff1602179055507f83991da520b69c0a0cd4204217c718588da838462664770d44ca5899e3e1d964828887604051620005139392919062000e75565b60405180910390a15050505050505050565b6200052f620005af565b600073ffffffffffffffffffffffffffffffffffffffff168173ffffffffffffffffffffffffffffffffffffffff1603620005a1576040517f08c379a0000000000000000000000000000000000000000000000000000000008152600401620005989062000f2f565b60405180910390fd5b620005ac8162000634565b50565b620005b9620006f8565b73ffffffffffffffffffffffffffffffffffffffff16620005d962000298565b73ffffffffffffffffffffffffffffffffffffffff161462000632576040517f08c379a0000000000000000000000000000000000000000000000000000000008152600401620006299062000fa1565b60405180910390fd5b565b60008060009054906101000a900473ffffffffffffffffffffffffffffffffffffffff169050816000806101000a81548173ffffffffffffffffffffffffffffffffffffffff021916908373ffffffffffffffffffffffffffffffffffffffff1602179055508173ffffffffffffffffffffffffffffffffffffffff168173ffffffffffffffffffffffffffffffffffffffff167f8be0079c531659141344cd1fd0a4f28419497f9722a3daafe3b4186f6b6457e060405160405180910390a35050565b600033905090565b614df28062000fc483390190565b6000604051905090565b600080fd5b600080fd5b6000819050919050565b620007378162000722565b81146200074357600080fd5b50565b60008135905062000757816200072c565b92915050565b60006020828403121562000776576200077562000718565b5b6000620007868482850162000746565b91505092915050565b600073ffffffffffffffffffffffffffffffffffffffff82169050919050565b6000620007bc826200078f565b9050919050565b620007ce81620007af565b82525050565b6000602082019050620007eb6000830184620007c3565b92915050565b600080fd5b600080fd5b6000601f19601f8301169050919050565b7f4e487b7100000000000000000000000000000000000000000000000000000000600052604160045260246000fd5b6200084682620007fb565b810181811067ffffffffffffffff821117156200086857620008676200080c565b5b80604052505050565b60006200087d6200070e565b90506200088b82826200083b565b919050565b600067ffffffffffffffff821115620008ae57620008ad6200080c565b5b620008b982620007fb565b9050602081019050919050565b82818337600083830152505050565b6000620008ec620008e68462000890565b62000871565b9050828152602081018484840111156200090b576200090a620007f6565b5b62000918848285620008c6565b509392505050565b600082601f830112620009385762000937620007f1565b5b81356200094a848260208601620008d5565b91505092915050565b6000806000606084860312156200096f576200096e62000718565b5b600084013567ffffffffffffffff81111562000990576200098f6200071d565b5b6200099e8682870162000920565b9350506020620009b18682870162000746565b9250506040620009c48682870162000746565b9150509250925092565b6000819050919050565b620009e381620009ce565b8114620009ef57600080fd5b50565b60008135905062000a0381620009d8565b92915050565b60006020828403121562000a225762000a2162000718565b5b600062000a3284828501620009f2565b91505092915050565b62000a4681620007af565b811462000a5257600080fd5b50565b60008135905062000a668162000a3b565b92915050565b600062000a7982620007af565b9050919050565b62000a8b8162000a6c565b811462000a9757600080fd5b50565b60008135905062000aab8162000a80565b92915050565b600080600080600060a0868803121562000ad05762000acf62000718565b5b600086013567ffffffffffffffff81111562000af15762000af06200071d565b5b62000aff8882890162000920565b955050602062000b128882890162000746565b945050604062000b258882890162000a55565b935050606062000b388882890162000746565b925050608062000b4b8882890162000a9a565b9150509295509295909350565b60006020828403121562000b715762000b7062000718565b5b600062000b818482850162000a55565b91505092915050565b600081519050919050565b600081905092915050565b60005b8381101562000bc057808201518184015260208101905062000ba3565b60008484015250505050565b600062000bd98262000b8a565b62000be5818562000b95565b935062000bf781856020860162000ba0565b80840191505092915050565b6000819050919050565b62000c2262000c1c8262000722565b62000c03565b82525050565b600062000c36828662000bcc565b915062000c44828562000c0d565b60208201915062000c56828462000c0d565b602082019150819050949350505050565b600082825260208201905092915050565b600062000c858262000b8a565b62000c91818562000c67565b935062000ca381856020860162000ba0565b62000cae81620007fb565b840191505092915050565b6000602082019050818103600083015262000cd5818462000c78565b905092915050565b62000ce88162000722565b82525050565b6000819050919050565b600062000d1962000d1362000d0d846200078f565b62000cee565b6200078f565b9050919050565b600062000d2d8262000cf8565b9050919050565b600062000d418262000d20565b9050919050565b62000d538162000d34565b82525050565b600060808201905062000d70600083018762000cdd565b62000d7f6020830186620007c3565b62000d8e604083018562000d48565b62000d9d606083018462000cdd565b95945050505050565b600062000dbd62000db78462000890565b62000871565b90508281526020810184848401111562000ddc5762000ddb620007f6565b5b62000de984828562000ba0565b509392505050565b600082601f83011262000e095762000e08620007f1565b5b815162000e1b84826020860162000da6565b91505092915050565b60006020828403121562000e3d5762000e3c62000718565b5b600082015167ffffffffffffffff81111562000e5e5762000e5d6200071d565b5b62000e6c8482850162000df1565b91505092915050565b6000606082019050818103600083015262000e91818662000c78565b905062000ea2602083018562000cdd565b62000eb1604083018462000cdd565b949350505050565b7f4f776e61626c653a206e6577206f776e657220697320746865207a65726f206160008201527f6464726573730000000000000000000000000000000000000000000000000000602082015250565b600062000f1760268362000c67565b915062000f248262000eb9565b604082019050919050565b6000602082019050818103600083015262000f4a8162000f08565b9050919050565b7f4f776e61626c653a2063616c6c6572206973206e6f7420746865206f776e6572600082015250565b600062000f8960208362000c67565b915062000f968262000f51565b602082019050919050565b6000602082019050818103600083015262000fbc8162000f7a565b905091905056fe60806040526000600860166101000a81548160ff021916908315150217905550426009553480156200003057600080fd5b5060405162004df238038062004df2833981810160405281019062000056919062000306565b8062000068816200009060201b60201c565b50620000896200007d620000a560201b60201c565b620000ad60201b60201c565b5062000689565b8060029081620000a19190620005a2565b5050565b600033905090565b6000600360009054906101000a900473ffffffffffffffffffffffffffffffffffffffff16905081600360006101000a81548173ffffffffffffffffffffffffffffffffffffffff021916908373ffffffffffffffffffffffffffffffffffffffff1602179055508173ffffffffffffffffffffffffffffffffffffffff168173ffffffffffffffffffffffffffffffffffffffff167f8be0079c531659141344cd1fd0a4f28419497f9722a3daafe3b4186f6b6457e060405160405180910390a35050565b6000604051905090565b600080fd5b600080fd5b600080fd5b600080fd5b6000601f19601f8301169050919050565b7f4e487b7100000000000000000000000000000000000000000000000000000000600052604160045260246000fd5b620001dc8262000191565b810181811067ffffffffffffffff82111715620001fe57620001fd620001a2565b5b80604052505050565b60006200021362000173565b9050620002218282620001d1565b919050565b600067ffffffffffffffff821115620002445762000243620001a2565b5b6200024f8262000191565b9050602081019050919050565b60005b838110156200027c5780820151818401526020810190506200025f565b60008484015250505050565b60006200029f620002998462000226565b62000207565b905082815260208101848484011115620002be57620002bd6200018c565b5b620002cb8482856200025c565b509392505050565b600082601f830112620002eb57620002ea62000187565b5b8151620002fd84826020860162000288565b91505092915050565b6000602082840312156200031f576200031e6200017d565b5b600082015167ffffffffffffffff81111562000340576200033f62000182565b5b6200034e84828501620002d3565b91505092915050565b600081519050919050565b7f4e487b7100000000000000000000000000000000000000000000000000000000600052602260045260246000fd5b60006002820490506001821680620003aa57607f821691505b602082108103620003c057620003bf62000362565b5b50919050565b60008190508160005260206000209050919050565b60006020601f8301049050919050565b600082821b905092915050565b6000600883026200042a7fffffffffffffffffffffffffffffffffffffffffffffffffffffffffffffffff82620003eb565b620004368683620003eb565b95508019841693508086168417925050509392505050565b6000819050919050565b6000819050919050565b6000620004836200047d62000477846200044e565b62000458565b6200044e565b9050919050565b6000819050919050565b6200049f8362000462565b620004b7620004ae826200048a565b848454620003f8565b825550505050565b600090565b620004ce620004bf565b620004db81848462000494565b505050565b5b818110156200050357620004f7600082620004c4565b600181019050620004e1565b5050565b601f82111562000552576200051c81620003c6565b6200052784620003db565b8101602085101562000537578190505b6200054f6200054685620003db565b830182620004e0565b50505b505050565b600082821c905092915050565b6000620005776000198460080262000557565b1980831691505092915050565b600062000592838362000564565b9150826002028217905092915050565b620005ad8262000357565b67ffffffffffffffff811115620005c957620005c8620001a2565b5b620005d5825462000391565b620005e282828562000507565b600060209050601f8311600181146200061a576000841562000605578287015190505b62000611858262000584565b86555062000681565b601f1984166200062a86620003c6565b60005b8281101562000654578489015182556001820191506020850194506020810190506200062d565b8683101562000674578489015162000670601f89168262000564565b8355505b6001600288020188555050505b505050505050565b61475980620006996000396000f3fe608060405234801561001057600080fd5b50600436106101d95760003560e01c8063731133e911610104578063bd85b039116100a2578063e985e9c511610071578063e985e9c5146104f8578063f242432a14610528578063f2fde38b14610544578063f5298aca14610560576101d9565b8063bd85b03914610470578063c415b95c146104a0578063caedcd89146104be578063e37259e9146104dc576101d9565b80639eae0c4c116100de5780639eae0c4c1461040e578063a22cb46514610418578063a628828f14610434578063b2449d6514610452576101d9565b8063731133e9146103ca578063793cd71e146103e65780638da5cb5b146103f0576101d9565b80631f7fdffa1161017c5780634e1273f41161014b5780634e1273f4146103445780634f558e79146103745780636b20c454146103a4578063715018a6146103c0576101d9565b80631f7fdffa146102e45780632eb2c2d6146103005780633bc5de301461031c5780633f6fa65514610326576101d9565b8063039491df116101b8578063039491df1461025a57806306311394146102785780630d483442146102965780630e89341c146102b4576101d9565b8062fdd58e146101de57806301ffc9a71461020e57806302fe53051461023e575b600080fd5b6101f860048036038101906101f39190612adf565b61057c565b6040516102059190612b2e565b60405180910390f35b61022860048036038101906102239190612ba1565b610644565b6040516102359190612be9565b60405180910390f35b61025860048036038101906102539190612d4a565b610726565b005b61026261073a565b60405161026f9190612be9565b60405180910390f35b61028061074d565b60405161028d9190612b2e565b60405180910390f35b61029e610753565b6040516102ab9190612b2e565b60405180910390f35b6102ce60048036038101906102c99190612d93565b610758565b6040516102db9190612e3f565b60405180910390f35b6102fe60048036038101906102f99190612fca565b6107ec565b005b61031a60048036038101906103159190613085565b610806565b005b6103246108a7565b005b61032e61095f565b60405161033b9190612be9565b60405180910390f35b61035e60048036038101906103599190613217565b610972565b60405161036b919061334d565b60405180910390f35b61038e60048036038101906103899190612d93565b610a8b565b60405161039b9190612be9565b60405180910390f35b6103be60048036038101906103b9919061336f565b610a9f565b005b6103c8610b3c565b005b6103e460048036038101906103df91906133fa565b610b50565b005b6103ee610b9b565b005b6103f8610d8e565b604051610405919061348c565b60405180910390f35b610416610db8565b005b610432600480360381019061042d91906134d3565b610eab565b005b61043c610ec1565b6040516104499190612b2e565b60405180910390f35b61045a610ec7565b6040516104679190612b2e565b60405180910390f35b61048a60048036038101906104859190612d93565b610ecc565b6040516104979190612b2e565b60405180910390f35b6104a8610ee9565b6040516104b5919061348c565b60405180910390f35b6104c6610f0f565b6040516104d39190612be9565b60405180910390f35b6104f660048036038101906104f19190613551565b610f22565b005b610512600480360381019061050d91906135b8565b610fc0565b60405161051f9190612be9565b60405180910390f35b610542600480360381019061053d91906135f8565b611054565b005b61055e6004803603810190610559919061368f565b6110f5565b005b61057a600480360381019061057591906136bc565b611178565b005b60008073ffffffffffffffffffffffffffffffffffffffff168373ffffffffffffffffffffffffffffffffffffffff16036105ec576040517f08c379a00000000000000000000000000000000000000000000000000000000081526004016105e390613781565b60405180910390fd5b60008083815260200190815260200160002060008473ffffffffffffffffffffffffffffffffffffffff1673ffffffffffffffffffffffffffffffffffffffff16815260200190815260200160002054905092915050565b60007fd9b67a26000000000000000000000000000000000000000000000000000000007bffffffffffffffffffffffffffffffffffffffffffffffffffffffff1916827bffffffffffffffffffffffffffffffffffffffffffffffffffffffff1916148061070f57507f0e89341c000000000000000000000000000000000000000000000000000000007bffffffffffffffffffffffffffffffffffffffffffffffffffffffff1916827bffffffffffffffffffffffffffffffffffffffffffffffffffffffff1916145b8061071f575061071e82611215565b5b9050919050565b61072e61127f565b610737816112fd565b50565b600860019054906101000a900460ff1681565b60065481565b600281565b606060028054610767906137d0565b80601f0160208091040260200160405190810160405280929190818152602001828054610793906137d0565b80156107e05780601f106107b5576101008083540402835291602001916107e0565b820191906000526020600020905b8154815290600101906020018083116107c357829003601f168201915b50505050509050919050565b6107f461127f565b61080084848484611310565b50505050565b61080e61153c565b73ffffffffffffffffffffffffffffffffffffffff168573ffffffffffffffffffffffffffffffffffffffff16148061085457506108538561084e61153c565b610fc0565b5b610893576040517f08c379a000000000000000000000000000000000000000000000000000000000815260040161088a90613873565b60405180910390fd5b6108a08585858585611544565b5050505050565b600860029054906101000a900473ffffffffffffffffffffffffffffffffffffffff1673ffffffffffffffffffffffffffffffffffffffff16631604f9ea6040518163ffffffff1660e01b81526004016020604051808303816000875af1158015610916573d6000803e3d6000fd5b505050506040513d601f19601f8201168201806040525081019061093a91906138c9565b506001600860166101000a81548160ff02191690831515021790555042600781905550565b600860009054906101000a900460ff1681565b606081518351146109b8576040517f08c379a00000000000000000000000000000000000000000000000000000000081526004016109af90613968565b60405180910390fd5b6000835167ffffffffffffffff8111156109d5576109d4612c1f565b5b604051908082528060200260200182016040528015610a035781602001602082028036833780820191505090505b50905060005b8451811015610a8057610a50858281518110610a2857610a27613988565b5b6020026020010151858381518110610a4357610a42613988565b5b602002602001015161057c565b828281518110610a6357610a62613988565b5b60200260200101818152505080610a79906139e6565b9050610a09565b508091505092915050565b600080610a9783610ecc565b119050919050565b610aa761153c565b73ffffffffffffffffffffffffffffffffffffffff168373ffffffffffffffffffffffffffffffffffffffff161480610aed5750610aec83610ae761153c565b610fc0565b5b610b2c576040517f08c379a0000000000000000000000000000000000000000000000000000000008152600401610b2390613873565b60405180910390fd5b610b37838383611865565b505050565b610b4461127f565b610b4e6000611b33565b565b610b5c33848484611bf9565b7f3923a82cb620a1af3ec9322d3347e92e90f81f20cef82079a61145417437251a8383604051610b8d929190613a2e565b60405180910390a150505050565b60011515600860009054906101000a900460ff16151514610bf1576040517f08c379a0000000000000000000000000000000000000000000000000000000008152600401610be890613aa3565b60405180910390fd5b60011515600860019054906101000a900460ff16151503610cce576000610c1933600161057c565b9050610c2733600183611da9565b600b60009054906101000a900473ffffffffffffffffffffffffffffffffffffffff1673ffffffffffffffffffffffffffffffffffffffff1663a9059cbb33836040518363ffffffff1660e01b8152600401610c84929190613ac3565b6020604051808303816000875af1158015610ca3573d6000803e3d6000fd5b505050506040513d601f19601f82011682018060405250810190610cc79190613b01565b5050610d8c565b6000610cdb33600261057c565b9050610ce933600283611da9565b600b60009054906101000a900473ffffffffffffffffffffffffffffffffffffffff1673ffffffffffffffffffffffffffffffffffffffff1663a9059cbb33836040518363ffffffff1660e01b8152600401610d46929190613ac3565b6020604051808303816000875af1158015610d65573d6000803e3d6000fd5b505050506040513d601f19601f82011682018060405250810190610d899190613b01565b50505b565b6000600360009054906101000a900473ffffffffffffffffffffffffffffffffffffffff16905090565b600860029054906101000a900473ffffffffffffffffffffffffffffffffffffffff1673ffffffffffffffffffffffffffffffffffffffff1663a035b1fe6040518163ffffffff1660e01b8152600401602060405180830381865afa158015610e25573d6000803e3d6000fd5b505050506040513d601f19601f82011682018060405250810190610e499190613b43565b6006541115610e72576001600860016101000a81548160ff021916908315150217905550610e8e565b6000600860016101000a81548160ff0219169083151502179055505b6001600860006101000a81548160ff021916908315150217905550565b610ebd610eb661153c565b8383611fef565b5050565b600a5481565b600181565b600060046000838152602001908152602001600020549050919050565b600560009054906101000a900473ffffffffffffffffffffffffffffffffffffffff1681565b600860169054906101000a900460ff1681565b610f2a61127f565b80600a8190555082600860026101000a81548173ffffffffffffffffffffffffffffffffffffffff021916908373ffffffffffffffffffffffffffffffffffffffff1602179055508360068190555081600b60006101000a81548173ffffffffffffffffffffffffffffffffffffffff021916908373ffffffffffffffffffffffffffffffffffffffff16021790555050505050565b6000600160008473ffffffffffffffffffffffffffffffffffffffff1673ffffffffffffffffffffffffffffffffffffffff16815260200190815260200160002060008373ffffffffffffffffffffffffffffffffffffffff1673ffffffffffffffffffffffffffffffffffffffff16815260200190815260200160002060009054906101000a900460ff16905092915050565b61105c61153c565b73ffffffffffffffffffffffffffffffffffffffff168573ffffffffffffffffffffffffffffffffffffffff1614806110a257506110a18561109c61153c565b610fc0565b5b6110e1576040517f08c379a00000000000000000000000000000000000000000000000000000000081526004016110d890613873565b60405180910390fd5b6110ee858585858561215b565b5050505050565b6110fd61127f565b600073ffffffffffffffffffffffffffffffffffffffff168173ffffffffffffffffffffffffffffffffffffffff160361116c576040517f08c379a000000000000000000000000000000000000000000000000000000000815260040161116390613be2565b60405180910390fd5b61117581611b33565b50565b61118061153c565b73ffffffffffffffffffffffffffffffffffffffff168373ffffffffffffffffffffffffffffffffffffffff1614806111c657506111c5836111c061153c565b610fc0565b5b611205576040517f08c379a00000000000000000000000000000000000000000000000000000000081526004016111fc90613873565b60405180910390fd5b611210838383611da9565b505050565b60007f01ffc9a7000000000000000000000000000000000000000000000000000000007bffffffffffffffffffffffffffffffffffffffffffffffffffffffff1916827bffffffffffffffffffffffffffffffffffffffffffffffffffffffff1916149050919050565b61128761153c565b73ffffffffffffffffffffffffffffffffffffffff166112a5610d8e565b73ffffffffffffffffffffffffffffffffffffffff16146112fb576040517f08c379a00000000000000000000000000000000000000000000000000000000081526004016112f290613c4e565b60405180910390fd5b565b806002908161130c9190613e1a565b5050565b600073ffffffffffffffffffffffffffffffffffffffff168473ffffffffffffffffffffffffffffffffffffffff160361137f576040517f08c379a000000000000000000000000000000000000000000000000000000000815260040161137690613f5e565b60405180910390fd5b81518351146113c3576040517f08c379a00000000000000000000000000000000000000000000000000000000081526004016113ba90613ff0565b60405180910390fd5b60006113cd61153c565b90506113de816000878787876123f6565b60005b8451811015611497578381815181106113fd576113fc613988565b5b602002602001015160008087848151811061141b5761141a613988565b5b6020026020010151815260200190815260200160002060008873ffffffffffffffffffffffffffffffffffffffff1673ffffffffffffffffffffffffffffffffffffffff168152602001908152602001600020600082825461147d9190614010565b92505081905550808061148f906139e6565b9150506113e1565b508473ffffffffffffffffffffffffffffffffffffffff16600073ffffffffffffffffffffffffffffffffffffffff168273ffffffffffffffffffffffffffffffffffffffff167f4a39dc06d4c0dbc64b70af90fd698a233a518aa5d07e595d983b8c0526c8f7fb878760405161150f929190614044565b60405180910390a46115268160008787878761240c565b61153581600087878787612414565b5050505050565b600033905090565b8151835114611588576040517f08c379a000000000000000000000000000000000000000000000000000000000815260040161157f90613ff0565b60405180910390fd5b600073ffffffffffffffffffffffffffffffffffffffff168473ffffffffffffffffffffffffffffffffffffffff16036115f7576040517f08c379a00000000000000000000000000000000000000000000000000000000081526004016115ee906140ed565b60405180910390fd5b600061160161153c565b90506116118187878787876123f6565b60005b84518110156117c257600085828151811061163257611631613988565b5b60200260200101519050600085838151811061165157611650613988565b5b60200260200101519050600080600084815260200190815260200160002060008b73ffffffffffffffffffffffffffffffffffffffff1673ffffffffffffffffffffffffffffffffffffffff168152602001908152602001600020549050818110156116f2576040517f08c379a00000000000000000000000000000000000000000000000000000000081526004016116e99061417f565b60405180910390fd5b81810360008085815260200190815260200160002060008c73ffffffffffffffffffffffffffffffffffffffff1673ffffffffffffffffffffffffffffffffffffffff168152602001908152602001600020819055508160008085815260200190815260200160002060008b73ffffffffffffffffffffffffffffffffffffffff1673ffffffffffffffffffffffffffffffffffffffff16815260200190815260200160002060008282546117a79190614010565b92505081905550505050806117bb906139e6565b9050611614565b508473ffffffffffffffffffffffffffffffffffffffff168673ffffffffffffffffffffffffffffffffffffffff168273ffffffffffffffffffffffffffffffffffffffff167f4a39dc06d4c0dbc64b70af90fd698a233a518aa5d07e595d983b8c0526c8f7fb8787604051611839929190614044565b60405180910390a461184f81878787878761240c565b61185d818787878787612414565b505050505050565b600073ffffffffffffffffffffffffffffffffffffffff168373ffffffffffffffffffffffffffffffffffffffff16036118d4576040517f08c379a00000000000000000000000000000000000000000000000000000000081526004016118cb90614211565b60405180910390fd5b8051825114611918576040517f08c379a000000000000000000000000000000000000000000000000000000000815260040161190f90613ff0565b60405180910390fd5b600061192261153c565b9050611942818560008686604051806020016040528060008152506123f6565b60005b8351811015611a8f57600084828151811061196357611962613988565b5b60200260200101519050600084838151811061198257611981613988565b5b60200260200101519050600080600084815260200190815260200160002060008973ffffffffffffffffffffffffffffffffffffffff1673ffffffffffffffffffffffffffffffffffffffff16815260200190815260200160002054905081811015611a23576040517f08c379a0000000000000000000000000000000000000000000000000000000008152600401611a1a906142a3565b60405180910390fd5b81810360008085815260200190815260200160002060008a73ffffffffffffffffffffffffffffffffffffffff1673ffffffffffffffffffffffffffffffffffffffff168152602001908152602001600020819055505050508080611a87906139e6565b915050611945565b50600073ffffffffffffffffffffffffffffffffffffffff168473ffffffffffffffffffffffffffffffffffffffff168273ffffffffffffffffffffffffffffffffffffffff167f4a39dc06d4c0dbc64b70af90fd698a233a518aa5d07e595d983b8c0526c8f7fb8686604051611b07929190614044565b60405180910390a4611b2d8185600086866040518060200160405280600081525061240c565b50505050565b6000600360009054906101000a900473ffffffffffffffffffffffffffffffffffffffff16905081600360006101000a81548173ffffffffffffffffffffffffffffffffffffffff021916908373ffffffffffffffffffffffffffffffffffffffff1602179055508173ffffffffffffffffffffffffffffffffffffffff168173ffffffffffffffffffffffffffffffffffffffff167f8be0079c531659141344cd1fd0a4f28419497f9722a3daafe3b4186f6b6457e060405160405180910390a35050565b600073ffffffffffffffffffffffffffffffffffffffff168473ffffffffffffffffffffffffffffffffffffffff1603611c68576040517f08c379a0000000000000000000000000000000000000000000000000000000008152600401611c5f90613f5e565b60405180910390fd5b6000611c7261153c565b90506000611c7f856125eb565b90506000611c8c856125eb565b9050611c9d836000898585896123f6565b8460008088815260200190815260200160002060008973ffffffffffffffffffffffffffffffffffffffff1673ffffffffffffffffffffffffffffffffffffffff1681526020019081526020016000206000828254611cfc9190614010565b925050819055508673ffffffffffffffffffffffffffffffffffffffff16600073ffffffffffffffffffffffffffffffffffffffff168473ffffffffffffffffffffffffffffffffffffffff167fc3d58168c5ae7397731d063d5bbf3d657854427343f4c083240f7aacaa2d0f628989604051611d7a929190613a2e565b60405180910390a4611d918360008985858961240c565b611da083600089898989612665565b50505050505050565b600073ffffffffffffffffffffffffffffffffffffffff168373ffffffffffffffffffffffffffffffffffffffff1603611e18576040517f08c379a0000000000000000000000000000000000000000000000000000000008152600401611e0f90614211565b60405180910390fd5b6000611e2261153c565b90506000611e2f846125eb565b90506000611e3c846125eb565b9050611e5c838760008585604051806020016040528060008152506123f6565b600080600087815260200190815260200160002060008873ffffffffffffffffffffffffffffffffffffffff1673ffffffffffffffffffffffffffffffffffffffff16815260200190815260200160002054905084811015611ef3576040517f08c379a0000000000000000000000000000000000000000000000000000000008152600401611eea906142a3565b60405180910390fd5b84810360008088815260200190815260200160002060008973ffffffffffffffffffffffffffffffffffffffff1673ffffffffffffffffffffffffffffffffffffffff16815260200190815260200160002081905550600073ffffffffffffffffffffffffffffffffffffffff168773ffffffffffffffffffffffffffffffffffffffff168573ffffffffffffffffffffffffffffffffffffffff167fc3d58168c5ae7397731d063d5bbf3d657854427343f4c083240f7aacaa2d0f628989604051611fc0929190613a2e565b60405180910390a4611fe68488600086866040518060200160405280600081525061240c565b50505050505050565b8173ffffffffffffffffffffffffffffffffffffffff168373ffffffffffffffffffffffffffffffffffffffff160361205d576040517f08c379a000000000000000000000000000000000000000000000000000000000815260040161205490614335565b60405180910390fd5b80600160008573ffffffffffffffffffffffffffffffffffffffff1673ffffffffffffffffffffffffffffffffffffffff16815260200190815260200160002060008473ffffffffffffffffffffffffffffffffffffffff1673ffffffffffffffffffffffffffffffffffffffff16815260200190815260200160002060006101000a81548160ff0219169083151502179055508173ffffffffffffffffffffffffffffffffffffffff168373ffffffffffffffffffffffffffffffffffffffff167f17307eab39ab6107e8899845ad3d59bd9653f200f220920489ca2b5937696c318360405161214e9190612be9565b60405180910390a3505050565b600073ffffffffffffffffffffffffffffffffffffffff168473ffffffffffffffffffffffffffffffffffffffff16036121ca576040517f08c379a00000000000000000000000000000000000000000000000000000000081526004016121c1906140ed565b60405180910390fd5b60006121d461153c565b905060006121e1856125eb565b905060006121ee856125eb565b90506121fe8389898585896123f6565b600080600088815260200190815260200160002060008a73ffffffffffffffffffffffffffffffffffffffff1673ffffffffffffffffffffffffffffffffffffffff16815260200190815260200160002054905085811015612295576040517f08c379a000000000000000000000000000000000000000000000000000000000815260040161228c9061417f565b60405180910390fd5b85810360008089815260200190815260200160002060008b73ffffffffffffffffffffffffffffffffffffffff1673ffffffffffffffffffffffffffffffffffffffff168152602001908152602001600020819055508560008089815260200190815260200160002060008a73ffffffffffffffffffffffffffffffffffffffff1673ffffffffffffffffffffffffffffffffffffffff168152602001908152602001600020600082825461234a9190614010565b925050819055508773ffffffffffffffffffffffffffffffffffffffff168973ffffffffffffffffffffffffffffffffffffffff168573ffffffffffffffffffffffffffffffffffffffff167fc3d58168c5ae7397731d063d5bbf3d657854427343f4c083240f7aacaa2d0f628a8a6040516123c7929190613a2e565b60405180910390a46123dd848a8a86868a61240c565b6123eb848a8a8a8a8a612665565b505050505050505050565b61240486868686868661283c565b505050505050565b505050505050565b6124338473ffffffffffffffffffffffffffffffffffffffff16612a0c565b156125e3578373ffffffffffffffffffffffffffffffffffffffff1663bc197c8187878686866040518663ffffffff1660e01b81526004016124799594939291906143aa565b6020604051808303816000875af19250505080156124b557506040513d601f19601f820116820180604052508101906124b29190614427565b60015b61255a576124c1614461565b806308c379a00361251d57506124d5614483565b806124e0575061251f565b806040517f08c379a00000000000000000000000000000000000000000000000000000000081526004016125149190612e3f565b60405180910390fd5b505b6040517f08c379a000000000000000000000000000000000000000000000000000000000815260040161255190614585565b60405180910390fd5b63bc197c8160e01b7bffffffffffffffffffffffffffffffffffffffffffffffffffffffff1916817bffffffffffffffffffffffffffffffffffffffffffffffffffffffff1916146125e1576040517f08c379a00000000000000000000000000000000000000000000000000000000081526004016125d890614617565b60405180910390fd5b505b505050505050565b60606000600167ffffffffffffffff81111561260a57612609612c1f565b5b6040519080825280602002602001820160405280156126385781602001602082028036833780820191505090505b50905082816000815181106126505761264f613988565b5b60200260200101818152505080915050919050565b6126848473ffffffffffffffffffffffffffffffffffffffff16612a0c565b15612834578373ffffffffffffffffffffffffffffffffffffffff1663f23a6e6187878686866040518663ffffffff1660e01b81526004016126ca959493929190614637565b6020604051808303816000875af192505050801561270657506040513d601f19601f820116820180604052508101906127039190614427565b60015b6127ab57612712614461565b806308c379a00361276e5750612726614483565b806127315750612770565b806040517f08c379a00000000000000000000000000000000000000000000000000000000081526004016127659190612e3f565b60405180910390fd5b505b6040517f08c379a00000000000000000000000000000000000000000000000000000000081526004016127a290614585565b60405180910390fd5b63f23a6e6160e01b7bffffffffffffffffffffffffffffffffffffffffffffffffffffffff1916817bffffffffffffffffffffffffffffffffffffffffffffffffffffffff191614612832576040517f08c379a000000000000000000000000000000000000000000000000000000000815260040161282990614617565b60405180910390fd5b505b505050505050565b61284a868686868686612a2f565b600073ffffffffffffffffffffffffffffffffffffffff168573ffffffffffffffffffffffffffffffffffffffff16036128fb5760005b83518110156128f95782818151811061289d5761289c613988565b5b6020026020010151600460008684815181106128bc576128bb613988565b5b6020026020010151815260200190815260200160002060008282546128e19190614010565b92505081905550806128f2906139e6565b9050612881565b505b600073ffffffffffffffffffffffffffffffffffffffff168473ffffffffffffffffffffffffffffffffffffffff1603612a045760005b8351811015612a025760008482815181106129505761294f613988565b5b60200260200101519050600084838151811061296f5761296e613988565b5b60200260200101519050600060046000848152602001908152602001600020549050818110156129d4576040517f08c379a00000000000000000000000000000000000000000000000000000000081526004016129cb90614703565b60405180910390fd5b8181036004600085815260200190815260200160002081905550505050806129fb906139e6565b9050612932565b505b505050505050565b6000808273ffffffffffffffffffffffffffffffffffffffff163b119050919050565b505050505050565b6000604051905090565b600080fd5b600080fd5b600073ffffffffffffffffffffffffffffffffffffffff82169050919050565b6000612a7682612a4b565b9050919050565b612a8681612a6b565b8114612a9157600080fd5b50565b600081359050612aa381612a7d565b92915050565b6000819050919050565b612abc81612aa9565b8114612ac757600080fd5b50565b600081359050612ad981612ab3565b92915050565b60008060408385031215612af657612af5612a41565b5b6000612b0485828601612a94565b9250506020612b1585828601612aca565b9150509250929050565b612b2881612aa9565b82525050565b6000602082019050612b436000830184612b1f565b92915050565b60007fffffffff0000000000000000000000000000000000000000000000000000000082169050919050565b612b7e81612b49565b8114612b8957600080fd5b50565b600081359050612b9b81612b75565b92915050565b600060208284031215612bb757612bb6612a41565b5b6000612bc584828501612b8c565b91505092915050565b60008115159050919050565b612be381612bce565b82525050565b6000602082019050612bfe6000830184612bda565b92915050565b600080fd5b600080fd5b6000601f19601f8301169050919050565b7f4e487b7100000000000000000000000000000000000000000000000000000000600052604160045260246000fd5b612c5782612c0e565b810181811067ffffffffffffffff82111715612c7657612c75612c1f565b5b80604052505050565b6000612c89612a37565b9050612c958282612c4e565b919050565b600067ffffffffffffffff821115612cb557612cb4612c1f565b5b612cbe82612c0e565b9050602081019050919050565b82818337600083830152505050565b6000612ced612ce884612c9a565b612c7f565b905082815260208101848484011115612d0957612d08612c09565b5b612d14848285612ccb565b509392505050565b600082601f830112612d3157612d30612c04565b5b8135612d41848260208601612cda565b91505092915050565b600060208284031215612d6057612d5f612a41565b5b600082013567ffffffffffffffff811115612d7e57612d7d612a46565b5b612d8a84828501612d1c565b91505092915050565b600060208284031215612da957612da8612a41565b5b6000612db784828501612aca565b91505092915050565b600081519050919050565b600082825260208201905092915050565b60005b83811015612dfa578082015181840152602081019050612ddf565b60008484015250505050565b6000612e1182612dc0565b612e1b8185612dcb565b9350612e2b818560208601612ddc565b612e3481612c0e565b840191505092915050565b60006020820190508181036000830152612e598184612e06565b905092915050565b600067ffffffffffffffff821115612e7c57612e7b612c1f565b5b602082029050602081019050919050565b600080fd5b6000612ea5612ea084612e61565b612c7f565b90508083825260208201905060208402830185811115612ec857612ec7612e8d565b5b835b81811015612ef15780612edd8882612aca565b845260208401935050602081019050612eca565b5050509392505050565b600082601f830112612f1057612f0f612c04565b5b8135612f20848260208601612e92565b91505092915050565b600067ffffffffffffffff821115612f4457612f43612c1f565b5b612f4d82612c0e565b9050602081019050919050565b6000612f6d612f6884612f29565b612c7f565b905082815260208101848484011115612f8957612f88612c09565b5b612f94848285612ccb565b509392505050565b600082601f830112612fb157612fb0612c04565b5b8135612fc1848260208601612f5a565b91505092915050565b60008060008060808587031215612fe457612fe3612a41565b5b6000612ff287828801612a94565b945050602085013567ffffffffffffffff81111561301357613012612a46565b5b61301f87828801612efb565b935050604085013567ffffffffffffffff8111156130405761303f612a46565b5b61304c87828801612efb565b925050606085013567ffffffffffffffff81111561306d5761306c612a46565b5b61307987828801612f9c565b91505092959194509250565b600080600080600060a086880312156130a1576130a0612a41565b5b60006130af88828901612a94565b95505060206130c088828901612a94565b945050604086013567ffffffffffffffff8111156130e1576130e0612a46565b5b6130ed88828901612efb565b935050606086013567ffffffffffffffff81111561310e5761310d612a46565b5b61311a88828901612efb565b925050608086013567ffffffffffffffff81111561313b5761313a612a46565b5b61314788828901612f9c565b9150509295509295909350565b600067ffffffffffffffff82111561316f5761316e612c1f565b5b602082029050602081019050919050565b600061319361318e84613154565b612c7f565b905080838252602082019050602084028301858111156131b6576131b5612e8d565b5b835b818110156131df57806131cb8882612a94565b8452602084019350506020810190506131b8565b5050509392505050565b600082601f8301126131fe576131fd612c04565b5b813561320e848260208601613180565b91505092915050565b6000806040838503121561322e5761322d612a41565b5b600083013567ffffffffffffffff81111561324c5761324b612a46565b5b613258858286016131e9565b925050602083013567ffffffffffffffff81111561327957613278612a46565b5b61328585828601612efb565b9150509250929050565b600081519050919050565b600082825260208201905092915050565b6000819050602082019050919050565b6132c481612aa9565b82525050565b60006132d683836132bb565b60208301905092915050565b6000602082019050919050565b60006132fa8261328f565b613304818561329a565b935061330f836132ab565b8060005b8381101561334057815161332788826132ca565b9750613332836132e2565b925050600181019050613313565b5085935050505092915050565b6000602082019050818103600083015261336781846132ef565b905092915050565b60008060006060848603121561338857613387612a41565b5b600061339686828701612a94565b935050602084013567ffffffffffffffff8111156133b7576133b6612a46565b5b6133c386828701612efb565b925050604084013567ffffffffffffffff8111156133e4576133e3612a46565b5b6133f086828701612efb565b9150509250925092565b6000806000806080858703121561341457613413612a41565b5b600061342287828801612a94565b945050602061343387828801612aca565b935050604061344487828801612aca565b925050606085013567ffffffffffffffff81111561346557613464612a46565b5b61347187828801612f9c565b91505092959194509250565b61348681612a6b565b82525050565b60006020820190506134a1600083018461347d565b92915050565b6134b081612bce565b81146134bb57600080fd5b50565b6000813590506134cd816134a7565b92915050565b600080604083850312156134ea576134e9612a41565b5b60006134f885828601612a94565b9250506020613509858286016134be565b9150509250929050565b600061351e82612a6b565b9050919050565b61352e81613513565b811461353957600080fd5b50565b60008135905061354b81613525565b92915050565b6000806000806080858703121561356b5761356a612a41565b5b600061357987828801612aca565b945050602061358a87828801612a94565b935050604061359b8782880161353c565b92505060606135ac87828801612aca565b91505092959194509250565b600080604083850312156135cf576135ce612a41565b5b60006135dd85828601612a94565b92505060206135ee85828601612a94565b9150509250929050565b600080600080600060a0868803121561361457613613612a41565b5b600061362288828901612a94565b955050602061363388828901612a94565b945050604061364488828901612aca565b935050606061365588828901612aca565b925050608086013567ffffffffffffffff81111561367657613675612a46565b5b61368288828901612f9c565b9150509295509295909350565b6000602082840312156136a5576136a4612a41565b5b60006136b384828501612a94565b91505092915050565b6000806000606084860312156136d5576136d4612a41565b5b60006136e386828701612a94565b93505060206136f486828701612aca565b925050604061370586828701612aca565b9150509250925092565b7f455243313135353a2061646472657373207a65726f206973206e6f742061207660008201527f616c6964206f776e657200000000000000000000000000000000000000000000602082015250565b600061376b602a83612dcb565b91506137768261370f565b604082019050919050565b6000602082019050818103600083015261379a8161375e565b9050919050565b7f4e487b7100000000000000000000000000000000000000000000000000000000600052602260045260246000fd5b600060028204905060018216806137e857607f821691505b6020821081036137fb576137fa6137a1565b5b50919050565b7f455243313135353a2063616c6c6572206973206e6f7420746f6b656e206f776e60008201527f6572206e6f7220617070726f7665640000000000000000000000000000000000602082015250565b600061385d602f83612dcb565b915061386882613801565b604082019050919050565b6000602082019050818103600083015261388c81613850565b9050919050565b6000819050919050565b6138a681613893565b81146138b157600080fd5b50565b6000815190506138c38161389d565b92915050565b6000602082840312156138df576138de612a41565b5b60006138ed848285016138b4565b91505092915050565b7f455243313135353a206163636f756e747320616e6420696473206c656e67746860008201527f206d69736d617463680000000000000000000000000000000000000000000000602082015250565b6000613952602983612dcb565b915061395d826138f6565b604082019050919050565b6000602082019050818103600083015261398181613945565b9050919050565b7f4e487b7100000000000000000000000000000000000000000000000000000000600052603260045260246000fd5b7f4e487b7100000000000000000000000000000000000000000000000000000000600052601160045260246000fd5b60006139f182612aa9565b91507fffffffffffffffffffffffffffffffffffffffffffffffffffffffffffffffff8203613a2357613a226139b7565b5b600182019050919050565b6000604082019050613a436000830185612b1f565b613a506020830184612b1f565b9392505050565b7f44617461206e6f74206665746368656420796574000000000000000000000000600082015250565b6000613a8d601483612dcb565b9150613a9882613a57565b602082019050919050565b60006020820190508181036000830152613abc81613a80565b9050919050565b6000604082019050613ad8600083018561347d565b613ae56020830184612b1f565b9392505050565b600081519050613afb816134a7565b92915050565b600060208284031215613b1757613b16612a41565b5b6000613b2584828501613aec565b91505092915050565b600081519050613b3d81612ab3565b92915050565b600060208284031215613b5957613b58612a41565b5b6000613b6784828501613b2e565b91505092915050565b7f4f776e61626c653a206e6577206f776e657220697320746865207a65726f206160008201527f6464726573730000000000000000000000000000000000000000000000000000602082015250565b6000613bcc602683612dcb565b9150613bd782613b70565b604082019050919050565b60006020820190508181036000830152613bfb81613bbf565b9050919050565b7f4f776e61626c653a2063616c6c6572206973206e6f7420746865206f776e6572600082015250565b6000613c38602083612dcb565b9150613c4382613c02565b602082019050919050565b60006020820190508181036000830152613c6781613c2b565b9050919050565b60008190508160005260206000209050919050565b60006020601f8301049050919050565b600082821b905092915050565b600060088302613cd07fffffffffffffffffffffffffffffffffffffffffffffffffffffffffffffffff82613c93565b613cda8683613c93565b95508019841693508086168417925050509392505050565b6000819050919050565b6000613d17613d12613d0d84612aa9565b613cf2565b612aa9565b9050919050565b6000819050919050565b613d3183613cfc565b613d45613d3d82613d1e565b848454613ca0565b825550505050565b600090565b613d5a613d4d565b613d65818484613d28565b505050565b5b81811015613d8957613d7e600082613d52565b600181019050613d6b565b5050565b601f821115613dce57613d9f81613c6e565b613da884613c83565b81016020851015613db7578190505b613dcb613dc385613c83565b830182613d6a565b50505b505050565b600082821c905092915050565b6000613df160001984600802613dd3565b1980831691505092915050565b6000613e0a8383613de0565b9150826002028217905092915050565b613e2382612dc0565b67ffffffffffffffff811115613e3c57613e3b612c1f565b5b613e4682546137d0565b613e51828285613d8d565b600060209050601f831160018114613e845760008415613e72578287015190505b613e7c8582613dfe565b865550613ee4565b601f198416613e9286613c6e565b60005b82811015613eba57848901518255600182019150602085019450602081019050613e95565b86831015613ed75784890151613ed3601f891682613de0565b8355505b6001600288020188555050505b505050505050565b7f455243313135353a206d696e7420746f20746865207a65726f2061646472657360008201527f7300000000000000000000000000000000000000000000000000000000000000602082015250565b6000613f48602183612dcb565b9150613f5382613eec565b604082019050919050565b60006020820190508181036000830152613f7781613f3b565b9050919050565b7f455243313135353a2069647320616e6420616d6f756e7473206c656e6774682060008201527f6d69736d61746368000000000000000000000000000000000000000000000000602082015250565b6000613fda602883612dcb565b9150613fe582613f7e565b604082019050919050565b6000602082019050818103600083015261400981613fcd565b9050919050565b600061401b82612aa9565b915061402683612aa9565b925082820190508082111561403e5761403d6139b7565b5b92915050565b6000604082019050818103600083015261405e81856132ef565b9050818103602083015261407281846132ef565b90509392505050565b7f455243313135353a207472616e7366657220746f20746865207a65726f20616460008201527f6472657373000000000000000000000000000000000000000000000000000000602082015250565b60006140d7602583612dcb565b91506140e28261407b565b604082019050919050565b60006020820190508181036000830152614106816140ca565b9050919050565b7f455243313135353a20696e73756666696369656e742062616c616e636520666f60008201527f72207472616e7366657200000000000000000000000000000000000000000000602082015250565b6000614169602a83612dcb565b91506141748261410d565b604082019050919050565b600060208201905081810360008301526141988161415c565b9050919050565b7f455243313135353a206275726e2066726f6d20746865207a65726f206164647260008201527f6573730000000000000000000000000000000000000000000000000000000000602082015250565b60006141fb602383612dcb565b91506142068261419f565b604082019050919050565b6000602082019050818103600083015261422a816141ee565b9050919050565b7f455243313135353a206275726e20616d6f756e7420657863656564732062616c60008201527f616e636500000000000000000000000000000000000000000000000000000000602082015250565b600061428d602483612dcb565b915061429882614231565b604082019050919050565b600060208201905081810360008301526142bc81614280565b9050919050565b7f455243313135353a2073657474696e6720617070726f76616c2073746174757360008201527f20666f722073656c660000000000000000000000000000000000000000000000602082015250565b600061431f602983612dcb565b915061432a826142c3565b604082019050919050565b6000602082019050818103600083015261434e81614312565b9050919050565b600081519050919050565b600082825260208201905092915050565b600061437c82614355565b6143868185614360565b9350614396818560208601612ddc565b61439f81612c0e565b840191505092915050565b600060a0820190506143bf600083018861347d565b6143cc602083018761347d565b81810360408301526143de81866132ef565b905081810360608301526143f281856132ef565b905081810360808301526144068184614371565b90509695505050505050565b60008151905061442181612b75565b92915050565b60006020828403121561443d5761443c612a41565b5b600061444b84828501614412565b91505092915050565b60008160e01c9050919050565b600060033d11156144805760046000803e61447d600051614454565b90505b90565b600060443d1061451057614495612a37565b60043d036004823e80513d602482011167ffffffffffffffff821117156144bd575050614510565b808201805167ffffffffffffffff8111156144db5750505050614510565b80602083010160043d0385018111156144f8575050505050614510565b61450782602001850186612c4e565b82955050505050505b90565b7f455243313135353a207472616e7366657220746f206e6f6e204552433131353560008201527f526563656976657220696d706c656d656e746572000000000000000000000000602082015250565b600061456f603483612dcb565b915061457a82614513565b604082019050919050565b6000602082019050818103600083015261459e81614562565b9050919050565b7f455243313135353a204552433131353552656365697665722072656a6563746560008201527f6420746f6b656e73000000000000000000000000000000000000000000000000602082015250565b6000614601602883612dcb565b915061460c826145a5565b604082019050919050565b60006020820190508181036000830152614630816145f4565b9050919050565b600060a08201905061464c600083018861347d565b614659602083018761347d565b6146666040830186612b1f565b6146736060830185612b1f565b81810360808301526146858184614371565b90509695505050505050565b7f455243313135353a206275726e20616d6f756e74206578636565647320746f7460008201527f616c537570706c79000000000000000000000000000000000000000000000000602082015250565b60006146ed602883612dcb565b91506146f882614691565b604082019050919050565b6000602082019050818103600083015261471c816146e0565b905091905056fea26469706673582212207b5e97dfb4b32dae1a8c57fc332fbff740f20bf75e325312c88bd89d6d9a7a8f64736f6c63430008100033a26469706673582212203fc864daf575423144fa92d94e00636b7e41226865937e3085bcb127f25589f864736f6c63430008100033",
  "linkReferences": {},
  "deployedLinkReferences": {}
}