{
  "_format": "hh-sol-artifact-1",
  "contractName": "BankFactory",
  "sourceName": "contracts/bank.sol",
  "abi": [
    {
      "inputs": [
        {
          "internalType": "address",
          "name": "_owner",
          "type": "address"
        },
        {
          "internalType": "uint256",
          "name": "_funds",
          "type": "uint256"
        }
      ],
      "name": "createBank",
      "outputs": [],
      "stateMutability": "nonpayable",
      "type": "function"
    },
    {
      "inputs": [
        {
          "internalType": "uint256",
          "name": "",
          "type": "uint256"
        }
      ],
      "name": "list_of_banks",
      "outputs": [
        {
          "internalType": "contract Bank",
          "name": "",
          "type": "address"
        }
      ],
      "stateMutability": "view",
      "type": "function"
    }
  ],
  "bytecode": "0x608060405234801561001057600080fd5b5061038c806100206000396000f3fe608060405234801561001057600080fd5b50600436106100365760003560e01c80638471af771461003b578063b4ff1c1314610050575b600080fd5b61004e610049366004610169565b61007f565b005b61006361005e3660046101a1565b610132565b6040516001600160a01b03909116815260200160405180910390f35b818160405161008d9061015c565b6001600160a01b0390921682526020820152604001604051809103906000f0801580156100be573d6000803e3d6000fd5b50600080546001600160a01b03929092167fffffffffffffffffffffffff00000000000000000000000000000000000000009283168117825560018054808201825592527fb10e2d527612073b26eecdfd717e6a320cf44b4afac2b0732d9fcbe2b7fa0cf690910180549092161790555050565b6001818154811061014257600080fd5b6000918252602090912001546001600160a01b0316905081565b61019c806101bb83390190565b6000806040838503121561017c57600080fd5b82356001600160a01b038116811461019357600080fd5b946020939093013593505050565b6000602082840312156101b357600080fd5b503591905056fe608060405234801561001057600080fd5b5060405161019c38038061019c83398101604081905261002f91610060565b600055600180546001600160a01b039092166001600160a01b0319928316179055600280549091163317905561009a565b6000806040838503121561007357600080fd5b82516001600160a01b038116811461008a57600080fd5b6020939093015192949293505050565b60f4806100a86000396000f3fe6080604052348015600f57600080fd5b5060043610603c5760003560e01c80638da5cb5b146041578063d5f3948814608a578063d6b82fe31460a9575b600080fd5b60015460609073ffffffffffffffffffffffffffffffffffffffff1681565b60405173ffffffffffffffffffffffffffffffffffffffff90911681526020015b60405180910390f35b60025460609073ffffffffffffffffffffffffffffffffffffffff1681565b60b160005481565b604051908152602001608156fea264697066735822122065a6b4a98828398390bc5a5be2467916b85088f0f2f8f1f1696a43e533c6a9d664736f6c63430008100033a2646970667358221220c9147e07d4342ae6cdb9c29707db783ca095fd7e9ea299105aeee45027b68d6664736f6c63430008100033",
  "linkReferences": {},
  "deployedLinkReferences": {}
}